{
  "address": "0xa064874446771a6Dab3840657266115E038059F2",
  "abi": [
    {
      "inputs": [
        {
          "internalType": "address",
          "name": "_underlying",
          "type": "address"
        },
        {
          "internalType": "string",
          "name": "_name",
          "type": "string"
        },
        {
          "internalType": "string",
          "name": "_symbol",
          "type": "string"
        }
      ],
      "stateMutability": "nonpayable",
      "type": "constructor"
    },
    {
      "inputs": [],
      "name": "EnforcedPause",
      "type": "error"
    },
    {
      "inputs": [],
      "name": "ExpectedPause",
      "type": "error"
    },
    {
      "inputs": [
        {
          "internalType": "address",
          "name": "owner",
          "type": "address"
        }
      ],
      "name": "OwnableInvalidOwner",
      "type": "error"
    },
    {
      "inputs": [
        {
          "internalType": "address",
          "name": "account",
          "type": "address"
        }
      ],
      "name": "OwnableUnauthorizedAccount",
      "type": "error"
    },
    {
      "inputs": [],
      "name": "ReentrancyGuardReentrantCall",
      "type": "error"
    },
    {
      "inputs": [
        {
          "internalType": "address",
          "name": "token",
          "type": "address"
        }
      ],
      "name": "SafeERC20FailedOperation",
      "type": "error"
    },
    {
      "inputs": [
        {
          "internalType": "bytes32",
          "name": "handle",
          "type": "bytes32"
        },
        {
          "internalType": "address",
          "name": "sender",
          "type": "address"
        }
      ],
      "name": "SenderNotAllowedToUseHandle",
      "type": "error"
    },
    {
      "inputs": [],
      "name": "ZamaProtocolUnsupported",
      "type": "error"
    },
    {
      "anonymous": false,
      "inputs": [
        {
          "indexed": true,
          "internalType": "address",
          "name": "owner",
          "type": "address"
        },
        {
          "indexed": true,
          "internalType": "address",
          "name": "spender",
          "type": "address"
        }
      ],
      "name": "ConfidentialApproval",
      "type": "event"
    },
    {
      "anonymous": false,
      "inputs": [
        {
          "indexed": true,
          "internalType": "address",
          "name": "from",
          "type": "address"
        },
        {
          "indexed": true,
          "internalType": "address",
          "name": "to",
          "type": "address"
        }
      ],
      "name": "ConfidentialTransfer",
      "type": "event"
    },
    {
      "anonymous": false,
      "inputs": [
        {
          "indexed": true,
          "internalType": "address",
          "name": "owner",
          "type": "address"
        },
        {
          "indexed": true,
          "internalType": "address",
          "name": "operator",
          "type": "address"
        },
        {
          "indexed": false,
          "internalType": "uint256",
          "name": "expiration",
          "type": "uint256"
        }
      ],
      "name": "OperatorSet",
      "type": "event"
    },
    {
      "anonymous": false,
      "inputs": [
        {
          "indexed": true,
          "internalType": "address",
          "name": "previousOwner",
          "type": "address"
        },
        {
          "indexed": true,
          "internalType": "address",
          "name": "newOwner",
          "type": "address"
        }
      ],
      "name": "OwnershipTransferred",
      "type": "event"
    },
    {
      "anonymous": false,
      "inputs": [
        {
          "indexed": false,
          "internalType": "address",
          "name": "account",
          "type": "address"
        }
      ],
      "name": "Paused",
      "type": "event"
    },
    {
      "anonymous": false,
      "inputs": [
        {
          "indexed": true,
          "internalType": "address",
          "name": "account",
          "type": "address"
        },
        {
          "indexed": false,
          "internalType": "uint256",
          "name": "amount",
          "type": "uint256"
        }
      ],
      "name": "Shield",
      "type": "event"
    },
    {
      "anonymous": false,
      "inputs": [
        {
          "indexed": false,
          "internalType": "address",
          "name": "account",
          "type": "address"
        }
      ],
      "name": "Unpaused",
      "type": "event"
    },
    {
      "anonymous": false,
      "inputs": [
        {
          "indexed": true,
          "internalType": "address",
          "name": "account",
          "type": "address"
        },
        {
          "indexed": false,
          "internalType": "uint64",
          "name": "amount",
          "type": "uint64"
        }
      ],
      "name": "Unshield",
      "type": "event"
    },
    {
      "inputs": [],
      "name": "confidentialProtocolId",
      "outputs": [
        {
          "internalType": "uint256",
          "name": "",
          "type": "uint256"
        }
      ],
      "stateMutability": "view",
      "type": "function"
    },
    {
      "inputs": [
        {
          "internalType": "address",
          "name": "to",
          "type": "address"
        },
        {
          "internalType": "externalEuint64",
          "name": "encryptedAmount",
          "type": "bytes32"
        },
        {
          "internalType": "bytes",
          "name": "inputProof",
          "type": "bytes"
        }
      ],
      "name": "confidentialTransfer",
      "outputs": [],
      "stateMutability": "nonpayable",
      "type": "function"
    },
    {
      "inputs": [
        {
          "internalType": "address",
          "name": "to",
          "type": "address"
        },
        {
          "internalType": "euint64",
          "name": "amount",
          "type": "bytes32"
        }
      ],
      "name": "confidentialTransfer",
      "outputs": [
        {
          "internalType": "euint64",
          "name": "",
          "type": "bytes32"
        }
      ],
      "stateMutability": "nonpayable",
      "type": "function"
    },
    {
      "inputs": [
        {
          "internalType": "address",
          "name": "from",
          "type": "address"
        },
        {
          "internalType": "address",
          "name": "to",
          "type": "address"
        },
        {
          "internalType": "externalEuint64",
          "name": "encryptedAmount",
          "type": "bytes32"
        },
        {
          "internalType": "bytes",
          "name": "inputProof",
          "type": "bytes"
        }
      ],
      "name": "confidentialTransferFrom",
      "outputs": [],
      "stateMutability": "nonpayable",
      "type": "function"
    },
    {
      "inputs": [
        {
          "internalType": "address",
          "name": "from",
          "type": "address"
        },
        {
          "internalType": "address",
          "name": "to",
          "type": "address"
        },
        {
          "internalType": "euint64",
          "name": "amount",
          "type": "bytes32"
        }
      ],
      "name": "confidentialTransferFrom",
      "outputs": [
        {
          "internalType": "euint64",
          "name": "",
          "type": "bytes32"
        }
      ],
      "stateMutability": "nonpayable",
      "type": "function"
    },
    {
      "inputs": [
        {
          "internalType": "address",
          "name": "account",
          "type": "address"
        }
      ],
      "name": "encryptedBalanceOf",
      "outputs": [
        {
          "internalType": "euint64",
          "name": "",
          "type": "bytes32"
        }
      ],
      "stateMutability": "view",
      "type": "function"
    },
    {
      "inputs": [
        {
          "internalType": "address",
          "name": "owner_",
          "type": "address"
        },
        {
          "internalType": "address",
          "name": "operator",
          "type": "address"
        }
      ],
      "name": "isOperator",
      "outputs": [
        {
          "internalType": "bool",
          "name": "",
          "type": "bool"
        }
      ],
      "stateMutability": "view",
      "type": "function"
    },
    {
      "inputs": [],
      "name": "name",
      "outputs": [
        {
          "internalType": "string",
          "name": "",
          "type": "string"
        }
      ],
      "stateMutability": "view",
      "type": "function"
    },
    {
      "inputs": [],
      "name": "owner",
      "outputs": [
        {
          "internalType": "address",
          "name": "",
          "type": "address"
        }
      ],
      "stateMutability": "view",
      "type": "function"
    },
    {
      "inputs": [],
      "name": "pause",
      "outputs": [],
      "stateMutability": "nonpayable",
      "type": "function"
    },
    {
      "inputs": [],
      "name": "paused",
      "outputs": [
        {
          "internalType": "bool",
          "name": "",
          "type": "bool"
        }
      ],
      "stateMutability": "view",
      "type": "function"
    },
    {
      "inputs": [],
      "name": "renounceOwnership",
      "outputs": [],
      "stateMutability": "nonpayable",
      "type": "function"
    },
    {
      "inputs": [
        {
          "internalType": "address",
          "name": "operator",
          "type": "address"
        },
        {
          "internalType": "uint256",
          "name": "expiration",
          "type": "uint256"
        }
      ],
      "name": "setOperator",
      "outputs": [],
      "stateMutability": "nonpayable",
      "type": "function"
    },
    {
      "inputs": [
        {
          "internalType": "uint256",
          "name": "amount",
          "type": "uint256"
        }
      ],
      "name": "shield",
      "outputs": [],
      "stateMutability": "nonpayable",
      "type": "function"
    },
    {
      "inputs": [],
      "name": "symbol",
      "outputs": [
        {
          "internalType": "string",
          "name": "",
          "type": "string"
        }
      ],
      "stateMutability": "view",
      "type": "function"
    },
    {
      "inputs": [],
      "name": "totalShielded",
      "outputs": [
        {
          "internalType": "uint256",
          "name": "",
          "type": "uint256"
        }
      ],
      "stateMutability": "view",
      "type": "function"
    },
    {
      "inputs": [
        {
          "internalType": "address",
          "name": "newOwner",
          "type": "address"
        }
      ],
      "name": "transferOwnership",
      "outputs": [],
      "stateMutability": "nonpayable",
      "type": "function"
    },
    {
      "inputs": [],
      "name": "underlying",
      "outputs": [
        {
          "internalType": "contract IERC20",
          "name": "",
          "type": "address"
        }
      ],
      "stateMutability": "view",
      "type": "function"
    },
    {
      "inputs": [],
      "name": "unpause",
      "outputs": [],
      "stateMutability": "nonpayable",
      "type": "function"
    },
    {
      "inputs": [
        {
          "internalType": "uint64",
          "name": "amount",
          "type": "uint64"
        }
      ],
      "name": "unshield",
      "outputs": [],
      "stateMutability": "nonpayable",
      "type": "function"
    }
  ],
  "transactionHash": "0x90d750d0027e23d05633580e5b30d9a76a9c2cb4b1062bb091ff1ece41605ef1",
  "args": [
    "0x74C30991DC47937EBa68E04d67E4B668095A7096",
    "Confidential WETH",
    "cWETH"
  ],
  "numDeployments": 1,
  "solcInputHash": "7fedb94330c0b34888fcd936530c0f49",
  "bytecode": "0x60a06040523461060757611d14803803806100198161062a565b9283398101906060818303126106075780516001600160a01b03811691908290036106075760208101516001600160401b038111610607578361005d91830161064f565b60408201519093906001600160401b0381116106075761007d920161064f565b9060017f9b779b17422d0df92223018b32b4d1fa46e071723d6817e2486d003becc55f005533156105f4575f8054610100600160a81b0319811633600881811b610100600160a81b03169290921784559291901c6001600160a01b0316907f8be0079c531659141344cd1fd0a4f28419497f9722a3daafe3b4186f6b6457e09080a36101076106a0565b5046600103610510576101186106a0565b5061012161060b565b73ca2e8f1f656cd25c01f05d0b243ab1ecd4a8ffb6815273d82385dada1ae3e969447f20a3164f6213100e7560208201527377627828a55156b04ac0dc0eb30467f1a552bb0360408201525b80517f9e7b61f58c47dc699ac88507c4f5bb9f121c03808c5676a8078fe583e464970080546001600160a01b03199081166001600160a01b039384161790915560208301517f9e7b61f58c47dc699ac88507c4f5bb9f121c03808c5676a8078fe583e4649701805483169184169190911790556040909201517f9e7b61f58c47dc699ac88507c4f5bb9f121c03808c5676a8078fe583e46497028054909316911617905580156104dc5760805281516001600160401b0381116103ef57600154600181811c911680156104d2575b60208210146103d157601f811161046f575b50602092601f821160011461040e57928192935f92610403575b50508160011b915f199060031b1c1916176001555b80516001600160401b0381116103ef57600254600181811c911680156103e5575b60208210146103d157601f811161036e575b50602091601f821160011461030e579181925f92610303575b50508160011b915f199060031b1c1916176002555b60405161165990816106bb823960805181818161058d0152818161092b015261098f0152f35b015190505f806102c8565b601f1982169260025f52805f20915f5b8581106103565750836001951061033e575b505050811b016002556102dd565b01515f1960f88460031b161c191690555f8080610330565b9192602060018192868501518155019401920161031e565b60025f527f405787fa12a823e0f2b7631cc41b3ba8828b3321ca811111fa75cd3aa3bb5ace601f830160051c810191602084106103c7575b601f0160051c01905b8181106103bc57506102af565b5f81556001016103af565b90915081906103a6565b634e487b7160e01b5f52602260045260245ffd5b90607f169061029d565b634e487b7160e01b5f52604160045260245ffd5b015190505f80610267565b601f1982169360015f52805f20915f5b868110610457575083600195961061043f575b505050811b0160015561027c565b01515f1960f88460031b161c191690555f8080610431565b9192602060018192868501518155019401920161041e565b60015f527fb10e2d527612073b26eecdfd717e6a320cf44b4afac2b0732d9fcbe2b7fa0cf6601f830160051c810191602084106104c8575b601f0160051c01905b8181106104bd575061024d565b5f81556001016104b0565b90915081906104a7565b90607f169061023b565b60405162461bcd60e51b815260206004820152600c60248201526b5a65726f206164647265737360a01b6044820152606490fd5b4662aa36a70361057b576105226106a0565b5061052b61060b565b73f0ffdc93b7e186bc2f8cb3daa75d86d1930a433d81527392c920834ec8941d2c77d188936e1f7a6f49c127602082015273be0e383937d564d7ff0bc3b46c51f0bf8d5c311a604082015261016d565b46617a69036105e55761058c6106a0565b5061059561060b565b7350157cffd6bbfa2dece204a89ec419c23ef5755d815273e3a9105a3a932253a70f126eb1e3b589c643dd24602082015273901f8942346f7ab3a01f6d7613119bca447bb030604082015261016d565b6373cac13b60e01b5f5260045ffd5b631e4fbdf760e01b5f525f60045260245ffd5b5f80fd5b60405190606082016001600160401b038111838210176103ef57604052565b6040519190601f01601f191682016001600160401b038111838210176103ef57604052565b81601f82011215610607578051906001600160401b0382116103ef5761067e601f8301601f191660200161062a565b928284526020838301011161060757815f9260208093018386015e8301015290565b6106a861060b565b905f82525f60208301525f604083015256fe60806040526004361015610011575f80fd5b5f3560e01c806306fdde0314610d905780632fb74e6214610c625780633f4ba83a14610bfe5780634c919a3214610bc6578063516b9ff014610ba95780635bebed7e14610af15780635c975abb14610ad05780635f0110f91461094f5780636f307dc31461090c578063715018a6146108a4578063777541361461082e5780638456cb59146107d75780638927b030146107b55780638da5cb5b1461078d57806395d89b4114610681578063a52d4ec3146104e9578063b6363cf21461048b578063e064b9bb146102f6578063eb3155b5146101aa5763f2fde38b146100f5575f80fd5b346101a65760203660031901126101a65761010e610ea5565b61011661144c565b6001600160a01b038116908115610193576001600160a01b039074ffffffffffffffffffffffffffffffffffffffff005f549160081b1674ffffffffffffffffffffffffffffffffffffffff00198216175f5560081c167f8be0079c531659141344cd1fd0a4f28419497f9722a3daafe3b4186f6b6457e05f80a3005b631e4fbdf760e01b5f525f60045260245ffd5b5f80fd5b346101a65760603660031901126101a6576101c3610ea5565b6101cb610ebb565b906044356101d7610fdd565b6001600160a01b0383166101ec811515610eff565b61021e33846001600160a01b03165f5260066020526001600160a01b0360405f2091165f5260205260405f2054421090565b156102b1576102858260209561027f6001600160a01b03871696875f526004895261024d8460405f20546111fa565b885f5260048a5260405f2055875f526004895261026d60405f20546112c1565b50875f526004895260405f20546112e0565b50611307565b604051927f75f412a499b41f8e80914ae262c37b5cbe8b4301cf1036324872310af4ab2aed5f80a38152f35b60405162461bcd60e51b815260206004820152600c60248201527f4e6f74206f70657261746f7200000000000000000000000000000000000000006044820152606490fd5b346101a65760803660031901126101a65761030f610ea5565b610317610ebb565b9060643567ffffffffffffffff81116101a65761036992610371610342610465933690600401610ed1565b959061034c610fdd565b6001600160a01b03841696610362881515610eff565b3691610f4b565b604435610ff7565b9061027f6001600160a01b03851694855f52600560205260405f206001600160a01b0333165f526020526103a98460405f20546111fa565b5f87815260056020908152604080832033845290915290208190556103cd906112c1565b50855f52600560205260405f206001600160a01b0333165f526020526103f78160405f20546112e0565b50855f52600560205260405f206001600160a01b0333165f5260205261042260405f203390546112e0565b50855f5260046020526104398460405f20546111fa565b5f878152600460205260409020819055610452906112c1565b50855f52600460205260405f20546112e0565b7f75f412a499b41f8e80914ae262c37b5cbe8b4301cf1036324872310af4ab2aed5f80a3005b346101a65760403660031901126101a65760206104df6104a9610ea5565b6104b1610ebb565b906001600160a01b03165f5260066020526001600160a01b0360405f2091165f5260205260405f2054421090565b6040519015158152f35b346101a65760203660031901126101a65760043567ffffffffffffffff8116908181036101a6576105376105499161051f611475565b610527610fdd565b610532841515610f91565b611534565b335f52600460205260405f20546111fa565b335f908152600460205260409020819055610563906112c1565b50335f52600460205261057a3360405f20546112e0565b5060035481810390811161066d576003557f0000000000000000000000000000000000000000000000000000000000000000906040519163a9059cbb60e01b5f52336004528160245260205f60448180855af160015f511481161561064e575b8360405215610632575081527f4f51b1fc48a32edc4751dcc024120ee2814360a7a7f814455855d7244be8ce0160203392a260017f9b779b17422d0df92223018b32b4d1fa46e071723d6817e2486d003becc55f0055005b6001600160a01b0390635274afe760e01b5f521660045260245ffd5b600181151661066457813b15153d1516166105da565b833d5f823e3d90fd5b634e487b7160e01b5f52601160045260245ffd5b346101a6575f3660031901126101a6576040515f6002548060011c90600181168015610783575b60208310811461076f5782855290811561074b57506001146106ed575b6106e9836106d581850382610e4b565b604051918291602083526020830190610e81565b0390f35b60025f9081527f405787fa12a823e0f2b7631cc41b3ba8828b3321ca811111fa75cd3aa3bb5ace939250905b808210610731575090915081016020016106d56106c5565b919260018160209254838588010152019101909291610719565b60ff191660208086019190915291151560051b840190910191506106d590506106c5565b634e487b7160e01b5f52602260045260245ffd5b91607f16916106a8565b346101a6575f3660031901126101a65760206001600160a01b035f5460081c16604051908152f35b346101a6575f3660031901126101a65760206107cf6115a0565b604051908152f35b346101a6575f3660031901126101a6576107ef61144c565b6107f7610fdd565b600160ff195f5416175f557f62e78cea01bee320cd4e420270b5ea74000d11b0c9f74754ebdbfc544b05a2586020604051338152a1005b346101a65760403660031901126101a657610847610ea5565b6001600160a01b031660243561085e821515610eff565b335f52600660205260405f20825f526020528060405f20556040519081527f46a53ed9eca0c7b83ffe1816d76072991f61ba734bf907c3db0415bd9450392860203392a3005b346101a6575f3660031901126101a6576108bc61144c565b5f6001600160a01b03815474ffffffffffffffffffffffffffffffffffffffff00198116835560081c167f8be0079c531659141344cd1fd0a4f28419497f9722a3daafe3b4186f6b6457e08280a3005b346101a6575f3660031901126101a65760206040516001600160a01b037f0000000000000000000000000000000000000000000000000000000000000000168152f35b346101a65760203660031901126101a65760043561096b611475565b610973610fdd565b61097e811515610f91565b67ffffffffffffffff8111610a8b577f00000000000000000000000000000000000000000000000000000000000000006040516323b872dd60e01b5f5233600452306024528260445260205f60648180865af19060015f5114821615610a6a575b6040525f60605215610632575060035481810180911161066d57600355610a18610a1267ffffffffffffffff8316611534565b33611307565b6040519081527fe2fa94574209ffd74675f24174679d543acae6f08897dec8ca3d07db761b7ebb60203392a260017f9b779b17422d0df92223018b32b4d1fa46e071723d6817e2486d003becc55f0055005b906001811516610a8257823b15153d151616906109df565b503d5f823e3d90fd5b60405162461bcd60e51b815260206004820152601060248201527f416d6f756e7420746f6f206c61726765000000000000000000000000000000006044820152606490fd5b346101a6575f3660031901126101a657602060ff5f54166040519015158152f35b346101a65760403660031901126101a6576020610b0c610ea5565b602435610b17610fdd565b610b7c816001600160a01b03841693610b31851515610eff565b335f5260048652610b468260405f20546111fa565b335f526004875260405f2055335f5260048652610b6660405f20546112c1565b50335f526004865261027f3360405f20546112e0565b60405191337f75f412a499b41f8e80914ae262c37b5cbe8b4301cf1036324872310af4ab2aed5f80a38152f35b346101a6575f3660031901126101a6576020600354604051908152f35b346101a65760203660031901126101a6576001600160a01b03610be7610ea5565b165f526004602052602060405f2054604051908152f35b346101a6575f3660031901126101a657610c1661144c565b5f5460ff811615610c535760ff19165f557f5db9ee0a495bf2e6ff9c91a7834c1ba4fdd244a5e8aa4e537bd38aeae4b073aa6020604051338152a1005b638dfc202b60e01b5f5260045ffd5b346101a65760603660031901126101a657610c7b610ea5565b60443567ffffffffffffffff81116101a657610c9b903690600401610ed1565b9091610ca5610fdd565b6001600160a01b03811692610cbb841515610eff565b338414610d4b57610cd4610cdc91610d24943691610f4b565b602435610ff7565b90335f526004602052610cf38260405f20546111fa565b335f908152600460205260409020819055610d0d906112c1565b50335f52600460205261027f3360405f20546112e0565b337f75f412a499b41f8e80914ae262c37b5cbe8b4301cf1036324872310af4ab2aed5f80a3005b60405162461bcd60e51b815260206004820152600d60248201527f53656c66207472616e73666572000000000000000000000000000000000000006044820152606490fd5b346101a6575f3660031901126101a6576040515f6001548060011c90600181168015610e41575b60208310811461076f5782855290811561074b5750600114610de3576106e9836106d581850382610e4b565b60015f9081527fb10e2d527612073b26eecdfd717e6a320cf44b4afac2b0732d9fcbe2b7fa0cf6939250905b808210610e27575090915081016020016106d56106c5565b919260018160209254838588010152019101909291610e0f565b91607f1691610db7565b90601f8019910116810190811067ffffffffffffffff821117610e6d57604052565b634e487b7160e01b5f52604160045260245ffd5b805180835260209291819084018484015e5f828201840152601f01601f1916010190565b600435906001600160a01b03821682036101a657565b602435906001600160a01b03821682036101a657565b9181601f840112156101a65782359167ffffffffffffffff83116101a657602083818601950101116101a657565b15610f0657565b60405162461bcd60e51b815260206004820152600c60248201527f5a65726f206164647265737300000000000000000000000000000000000000006044820152606490fd5b92919267ffffffffffffffff8211610e6d5760405191610f75601f8201601f191660200184610e4b565b8294818452818301116101a6578281602093845f960137010152565b15610f9857565b60405162461bcd60e51b815260206004820152600b60248201527f5a65726f20616d6f756e740000000000000000000000000000000000000000006044820152606490fd5b60ff5f5416610fe857565b63d93c066560e01b5f5260045ffd5b81519091901561113057602090611064926001600160a01b037f9e7b61f58c47dc699ac88507c4f5bb9f121c03808c5676a8078fe583e46497015416905f60405180968195829463045fc19560e11b84526004840152336024840152608060448401526084830190610e81565b6005606483015203925af19081156110f3575f916110fe575b506001600160a01b037f9e7b61f58c47dc699ac88507c4f5bb9f121c03808c5676a8078fe583e46497005416803b156101a657604051630f8e573b60e21b815260048101839052336024820152905f908290604490829084905af180156110f3576110e6575090565b5f6110f091610e4b565b90565b6040513d5f823e3d90fd5b90506020813d602011611128575b8161111960209383610e4b565b810103126101a657515f61107d565b3d915061110c565b5080156111f1577f9e7b61f58c47dc699ac88507c4f5bb9f121c03808c5676a8078fe583e4649700546040516382027b6d60e01b81526004810183905233602482015290602090829060449082906001600160a01b03165afa9081156110f3575f916111b6575b50156111a05790565b630276b5d960e01b5f526004523360245260445ffd5b90506020813d6020116111e9575b816111d160209383610e4b565b810103126101a6575180151581036101a6575f611197565b3d91506111c4565b506110f06114d3565b9081156112b1575b801561129f575b60209060646001600160a01b037f9e7b61f58c47dc699ac88507c4f5bb9f121c03808c5676a8078fe583e46497015416935f60405195869485936303056db360e31b8552600485015260248401528160448401525af19081156110f3575f91611270575090565b90506020813d602011611297575b8161128b60209383610e4b565b810103126101a6575190565b3d915061127e565b5060206112aa6114d3565b9050611209565b90506112bb6114d3565b90611202565b80156112d2575b6110f030826115cf565b506112db6114d3565b6112c8565b9081156112f2575b6110f090826115cf565b90506110f06112ff6114d3565b9190506112e8565b6001600160a01b0381165f818152600460205260409020541561143657805f52600460205260405f205492808415611426575b15611414575b60209060646001600160a01b037f9e7b61f58c47dc699ac88507c4f5bb9f121c03808c5676a8078fe583e46497015416955f604051978894859363022f65e760e31b8552600485015260248401528160448401525af180156110f3575f906113e0575b6113dd9350815f52600460205260405f20555b805f5260046020526113cb60405f20546112c1565b505f52600460205260405f20546112e0565b50565b506020833d60201161140c575b816113fa60209383610e4b565b810103126101a6576113dd92516113a3565b3d91506113ed565b50602061141f6114d3565b9050611340565b93506114306114d3565b9361133a565b6113dd92815f52600460205260405f20556113b6565b6001600160a01b035f5460081c16330361146257565b63118cdaa760e01b5f523360045260245ffd5b60027f9b779b17422d0df92223018b32b4d1fa46e071723d6817e2486d003becc55f0054146114c45760027f9b779b17422d0df92223018b32b4d1fa46e071723d6817e2486d003becc55f0055565b633ee5aeb560e01b5f5260045ffd5b5f60206001600160a01b037f9e7b61f58c47dc699ac88507c4f5bb9f121c03808c5676a8078fe583e46497015416604460405180948193639cd07acb60e01b8352816004840152600560248401525af19081156110f3575f91611270575090565b602067ffffffffffffffff60446001600160a01b037f9e7b61f58c47dc699ac88507c4f5bb9f121c03808c5676a8078fe583e46497015416935f6040519586948593639cd07acb60e01b8552166004840152600560248401525af19081156110f3575f91611270575090565b466001036115ad57600190565b4662aa36a7036115bd5761271190565b617a6946146115ca575f90565b5f1990565b6001600160a01b037f9e7b61f58c47dc699ac88507c4f5bb9f121c03808c5676a8078fe583e4649700541691823b156101a657604051635ca4b5b160e11b815260048101929092526001600160a01b03166024820152905f908290604490829084905af180156110f3576116405750565b5f61164a91610e4b565b56fea164736f6c634300081b000a",
  "devdoc": {
    "errors": {
      "EnforcedPause()": [
        {
          "details": "The operation failed because the contract is paused."
        }
      ],
      "ExpectedPause()": [
        {
          "details": "The operation failed because the contract is not paused."
        }
      ],
      "OwnableInvalidOwner(address)": [
        {
          "details": "The owner is not a valid owner account. (eg. `address(0)`)"
        }
      ],
      "OwnableUnauthorizedAccount(address)": [
        {
          "details": "The caller account is not authorized to perform an operation."
        }
      ],
      "ReentrancyGuardReentrantCall()": [
        {
          "details": "Unauthorized reentrant call."
        }
      ],
      "SafeERC20FailedOperation(address)": [
        {
          "details": "An operation with an ERC-20 token failed."
        }
      ]
    },
    "events": {
      "Paused(address)": {
        "details": "Emitted when the pause is triggered by `account`."
      },
      "Unpaused(address)": {
        "details": "Emitted when the pause is lifted by `account`."
      }
    },
    "kind": "dev",
    "methods": {
      "owner()": {
        "details": "Returns the address of the current owner."
      },
      "paused()": {
        "details": "Returns true if the contract is paused, and false otherwise."
      },
      "renounceOwnership()": {
        "details": "Leaves the contract without owner. It will not be possible to call `onlyOwner` functions. Can only be called by the current owner. NOTE: Renouncing ownership will leave the contract without an owner, thereby disabling any functionality that is only available to the owner."
      },
      "transferOwnership(address)": {
        "details": "Transfers ownership of the contract to a new account (`newOwner`). Can only be called by the current owner."
      }
    },
    "title": "ConfidentialERC20Wrapper — Generic ERC-7984 wrapper for any ERC20",
    "version": 1
  },
  "userdoc": {
    "errors": {
      "SenderNotAllowedToUseHandle(bytes32,address)": [
        {
          "notice": "Returned if the sender is not allowed to use the handle."
        }
      ],
      "ZamaProtocolUnsupported()": [
        {
          "notice": "Returned if the Zama protocol is not supported on the current chain"
        }
      ]
    },
    "kind": "user",
    "methods": {},
    "notice": "Wraps any ERC20 into a confidential token with encrypted balances.         Same architecture as ConfidentialUSDC but parameterized.",
    "version": 1
  },
  "storageLayout": {
    "storage": [
      {
        "astId": 42965,
        "contract": "contracts/dex/ConfidentialERC20Wrapper.sol:ConfidentialERC20Wrapper",
        "label": "_paused",
        "offset": 0,
        "slot": "0",
        "type": "t_bool"
      },
      {
        "astId": 42164,
        "contract": "contracts/dex/ConfidentialERC20Wrapper.sol:ConfidentialERC20Wrapper",
        "label": "_owner",
        "offset": 1,
        "slot": "0",
        "type": "t_address"
      },
      {
        "astId": 44427,
        "contract": "contracts/dex/ConfidentialERC20Wrapper.sol:ConfidentialERC20Wrapper",
        "label": "name",
        "offset": 0,
        "slot": "1",
        "type": "t_string_storage"
      },
      {
        "astId": 44429,
        "contract": "contracts/dex/ConfidentialERC20Wrapper.sol:ConfidentialERC20Wrapper",
        "label": "symbol",
        "offset": 0,
        "slot": "2",
        "type": "t_string_storage"
      },
      {
        "astId": 44431,
        "contract": "contracts/dex/ConfidentialERC20Wrapper.sol:ConfidentialERC20Wrapper",
        "label": "totalShielded",
        "offset": 0,
        "slot": "3",
        "type": "t_uint256"
      },
      {
        "astId": 44436,
        "contract": "contracts/dex/ConfidentialERC20Wrapper.sol:ConfidentialERC20Wrapper",
        "label": "_encBalances",
        "offset": 0,
        "slot": "4",
        "type": "t_mapping(t_address,t_userDefinedValueType(euint64)48221)"
      },
      {
        "astId": 44443,
        "contract": "contracts/dex/ConfidentialERC20Wrapper.sol:ConfidentialERC20Wrapper",
        "label": "_encAllowances",
        "offset": 0,
        "slot": "5",
        "type": "t_mapping(t_address,t_mapping(t_address,t_userDefinedValueType(euint64)48221))"
      },
      {
        "astId": 44449,
        "contract": "contracts/dex/ConfidentialERC20Wrapper.sol:ConfidentialERC20Wrapper",
        "label": "_operators",
        "offset": 0,
        "slot": "6",
        "type": "t_mapping(t_address,t_mapping(t_address,t_uint256))"
      }
    ],
    "types": {
      "t_address": {
        "encoding": "inplace",
        "label": "address",
        "numberOfBytes": "20"
      },
      "t_bool": {
        "encoding": "inplace",
        "label": "bool",
        "numberOfBytes": "1"
      },
      "t_mapping(t_address,t_mapping(t_address,t_uint256))": {
        "encoding": "mapping",
        "key": "t_address",
        "label": "mapping(address => mapping(address => uint256))",
        "numberOfBytes": "32",
        "value": "t_mapping(t_address,t_uint256)"
      },
      "t_mapping(t_address,t_mapping(t_address,t_userDefinedValueType(euint64)48221))": {
        "encoding": "mapping",
        "key": "t_address",
        "label": "mapping(address => mapping(address => euint64))",
        "numberOfBytes": "32",
        "value": "t_mapping(t_address,t_userDefinedValueType(euint64)48221)"
      },
      "t_mapping(t_address,t_uint256)": {
        "encoding": "mapping",
        "key": "t_address",
        "label": "mapping(address => uint256)",
        "numberOfBytes": "32",
        "value": "t_uint256"
      },
      "t_mapping(t_address,t_userDefinedValueType(euint64)48221)": {
        "encoding": "mapping",
        "key": "t_address",
        "label": "mapping(address => euint64)",
        "numberOfBytes": "32",
        "value": "t_userDefinedValueType(euint64)48221"
      },
      "t_string_storage": {
        "encoding": "bytes",
        "label": "string",
        "numberOfBytes": "32"
      },
      "t_uint256": {
        "encoding": "inplace",
        "label": "uint256",
        "numberOfBytes": "32"
      },
      "t_userDefinedValueType(euint64)48221": {
        "encoding": "inplace",
        "label": "euint64",
        "numberOfBytes": "32"
      }
    }
  }
}