{
  "address": "0x491097C72D1277A6a48A52C1434eFF12a17d20e1",
  "abi": [
    {
      "inputs": [
        {
          "internalType": "address",
          "name": "_usdc",
          "type": "address"
        },
        {
          "internalType": "address",
          "name": "_cusdc",
          "type": "address"
        },
        {
          "internalType": "address",
          "name": "_treasury",
          "type": "address"
        },
        {
          "internalType": "uint256",
          "name": "_withdrawDelay",
          "type": "uint256"
        },
        {
          "internalType": "uint256",
          "name": "_feeBps",
          "type": "uint256"
        }
      ],
      "stateMutability": "nonpayable",
      "type": "constructor"
    },
    {
      "inputs": [],
      "name": "EnforcedPause",
      "type": "error"
    },
    {
      "inputs": [],
      "name": "ExpectedPause",
      "type": "error"
    },
    {
      "inputs": [
        {
          "internalType": "address",
          "name": "owner",
          "type": "address"
        }
      ],
      "name": "OwnableInvalidOwner",
      "type": "error"
    },
    {
      "inputs": [
        {
          "internalType": "address",
          "name": "account",
          "type": "address"
        }
      ],
      "name": "OwnableUnauthorizedAccount",
      "type": "error"
    },
    {
      "inputs": [],
      "name": "ReentrancyGuardReentrantCall",
      "type": "error"
    },
    {
      "inputs": [
        {
          "internalType": "address",
          "name": "token",
          "type": "address"
        }
      ],
      "name": "SafeERC20FailedOperation",
      "type": "error"
    },
    {
      "inputs": [
        {
          "internalType": "bytes32",
          "name": "handle",
          "type": "bytes32"
        },
        {
          "internalType": "address",
          "name": "sender",
          "type": "address"
        }
      ],
      "name": "SenderNotAllowedToUseHandle",
      "type": "error"
    },
    {
      "inputs": [],
      "name": "ZamaProtocolUnsupported",
      "type": "error"
    },
    {
      "anonymous": false,
      "inputs": [
        {
          "indexed": true,
          "internalType": "uint256",
          "name": "bucketId",
          "type": "uint256"
        }
      ],
      "name": "BucketCreated",
      "type": "event"
    },
    {
      "anonymous": false,
      "inputs": [
        {
          "indexed": true,
          "internalType": "address",
          "name": "claimer",
          "type": "address"
        },
        {
          "indexed": false,
          "internalType": "uint256",
          "name": "timestamp",
          "type": "uint256"
        }
      ],
      "name": "Claimed",
      "type": "event"
    },
    {
      "anonymous": false,
      "inputs": [
        {
          "indexed": true,
          "internalType": "bytes32",
          "name": "commitment",
          "type": "bytes32"
        },
        {
          "indexed": false,
          "internalType": "uint256",
          "name": "timestamp",
          "type": "uint256"
        },
        {
          "indexed": false,
          "internalType": "uint256",
          "name": "depositIndex",
          "type": "uint256"
        }
      ],
      "name": "Deposited",
      "type": "event"
    },
    {
      "anonymous": false,
      "inputs": [
        {
          "indexed": true,
          "internalType": "bytes32",
          "name": "commitment",
          "type": "bytes32"
        },
        {
          "indexed": false,
          "internalType": "uint256",
          "name": "timestamp",
          "type": "uint256"
        },
        {
          "indexed": false,
          "internalType": "uint256",
          "name": "depositIndex",
          "type": "uint256"
        }
      ],
      "name": "DepositedConfidential",
      "type": "event"
    },
    {
      "anonymous": false,
      "inputs": [
        {
          "indexed": true,
          "internalType": "address",
          "name": "treasury",
          "type": "address"
        },
        {
          "indexed": false,
          "internalType": "uint256",
          "name": "amount",
          "type": "uint256"
        }
      ],
      "name": "FeesCollected",
      "type": "event"
    },
    {
      "anonymous": false,
      "inputs": [
        {
          "indexed": true,
          "internalType": "address",
          "name": "previousOwner",
          "type": "address"
        },
        {
          "indexed": true,
          "internalType": "address",
          "name": "newOwner",
          "type": "address"
        }
      ],
      "name": "OwnershipTransferStarted",
      "type": "event"
    },
    {
      "anonymous": false,
      "inputs": [
        {
          "indexed": true,
          "internalType": "address",
          "name": "previousOwner",
          "type": "address"
        },
        {
          "indexed": true,
          "internalType": "address",
          "name": "newOwner",
          "type": "address"
        }
      ],
      "name": "OwnershipTransferred",
      "type": "event"
    },
    {
      "anonymous": false,
      "inputs": [
        {
          "indexed": false,
          "internalType": "address",
          "name": "account",
          "type": "address"
        }
      ],
      "name": "Paused",
      "type": "event"
    },
    {
      "anonymous": false,
      "inputs": [
        {
          "indexed": true,
          "internalType": "uint256",
          "name": "bucketId",
          "type": "uint256"
        },
        {
          "indexed": true,
          "internalType": "uint256",
          "name": "slotIndex",
          "type": "uint256"
        },
        {
          "indexed": false,
          "internalType": "uint256",
          "name": "timestamp",
          "type": "uint256"
        }
      ],
      "name": "Registered",
      "type": "event"
    },
    {
      "anonymous": false,
      "inputs": [
        {
          "indexed": false,
          "internalType": "address",
          "name": "account",
          "type": "address"
        }
      ],
      "name": "Unpaused",
      "type": "event"
    },
    {
      "anonymous": false,
      "inputs": [
        {
          "indexed": true,
          "internalType": "bytes32",
          "name": "commitment",
          "type": "bytes32"
        },
        {
          "indexed": true,
          "internalType": "address",
          "name": "auditor",
          "type": "address"
        }
      ],
      "name": "ViewingKeyGranted",
      "type": "event"
    },
    {
      "anonymous": false,
      "inputs": [
        {
          "indexed": true,
          "internalType": "bytes32",
          "name": "nullifierHash",
          "type": "bytes32"
        },
        {
          "indexed": true,
          "internalType": "uint256",
          "name": "bucketId",
          "type": "uint256"
        },
        {
          "indexed": false,
          "internalType": "uint256",
          "name": "timestamp",
          "type": "uint256"
        }
      ],
      "name": "WithdrawnToVault",
      "type": "event"
    },
    {
      "inputs": [],
      "name": "MAX_BUCKET_SIZE",
      "outputs": [
        {
          "internalType": "uint256",
          "name": "",
          "type": "uint256"
        }
      ],
      "stateMutability": "view",
      "type": "function"
    },
    {
      "inputs": [],
      "name": "acceptOwnership",
      "outputs": [],
      "stateMutability": "nonpayable",
      "type": "function"
    },
    {
      "inputs": [],
      "name": "bucketCount",
      "outputs": [
        {
          "internalType": "uint256",
          "name": "",
          "type": "uint256"
        }
      ],
      "stateMutability": "view",
      "type": "function"
    },
    {
      "inputs": [
        {
          "internalType": "uint256",
          "name": "",
          "type": "uint256"
        }
      ],
      "name": "bucketSize",
      "outputs": [
        {
          "internalType": "uint256",
          "name": "",
          "type": "uint256"
        }
      ],
      "stateMutability": "view",
      "type": "function"
    },
    {
      "inputs": [
        {
          "internalType": "uint256",
          "name": "bucketId",
          "type": "uint256"
        },
        {
          "internalType": "uint256",
          "name": "slotIndex",
          "type": "uint256"
        }
      ],
      "name": "claim",
      "outputs": [],
      "stateMutability": "nonpayable",
      "type": "function"
    },
    {
      "inputs": [],
      "name": "claimProtocolFees",
      "outputs": [],
      "stateMutability": "nonpayable",
      "type": "function"
    },
    {
      "inputs": [],
      "name": "claimRelayerFees",
      "outputs": [],
      "stateMutability": "nonpayable",
      "type": "function"
    },
    {
      "inputs": [
        {
          "internalType": "bytes32",
          "name": "commitment",
          "type": "bytes32"
        }
      ],
      "name": "commitmentExists",
      "outputs": [
        {
          "internalType": "bool",
          "name": "",
          "type": "bool"
        }
      ],
      "stateMutability": "view",
      "type": "function"
    },
    {
      "inputs": [
        {
          "internalType": "bytes32",
          "name": "nullifier",
          "type": "bytes32"
        },
        {
          "internalType": "bytes32",
          "name": "secret",
          "type": "bytes32"
        },
        {
          "internalType": "address",
          "name": "depositor",
          "type": "address"
        }
      ],
      "name": "computeCommitment",
      "outputs": [
        {
          "internalType": "bytes32",
          "name": "",
          "type": "bytes32"
        }
      ],
      "stateMutability": "pure",
      "type": "function"
    },
    {
      "inputs": [],
      "name": "confidentialProtocolId",
      "outputs": [
        {
          "internalType": "uint256",
          "name": "",
          "type": "uint256"
        }
      ],
      "stateMutability": "view",
      "type": "function"
    },
    {
      "inputs": [],
      "name": "cusdc",
      "outputs": [
        {
          "internalType": "contract IConfidentialUSDC_Vault",
          "name": "",
          "type": "address"
        }
      ],
      "stateMutability": "view",
      "type": "function"
    },
    {
      "inputs": [
        {
          "internalType": "bytes32",
          "name": "nullifier",
          "type": "bytes32"
        },
        {
          "internalType": "bytes32",
          "name": "secret",
          "type": "bytes32"
        },
        {
          "internalType": "uint256",
          "name": "amount",
          "type": "uint256"
        }
      ],
      "name": "deposit",
      "outputs": [],
      "stateMutability": "nonpayable",
      "type": "function"
    },
    {
      "inputs": [
        {
          "internalType": "bytes32",
          "name": "nullifier",
          "type": "bytes32"
        },
        {
          "internalType": "bytes32",
          "name": "secret",
          "type": "bytes32"
        },
        {
          "internalType": "externalEuint64",
          "name": "encryptedAmount",
          "type": "bytes32"
        },
        {
          "internalType": "bytes",
          "name": "inputProof",
          "type": "bytes"
        }
      ],
      "name": "depositConfidential",
      "outputs": [],
      "stateMutability": "nonpayable",
      "type": "function"
    },
    {
      "inputs": [],
      "name": "depositCount",
      "outputs": [
        {
          "internalType": "uint256",
          "name": "",
          "type": "uint256"
        }
      ],
      "stateMutability": "view",
      "type": "function"
    },
    {
      "inputs": [],
      "name": "feeBps",
      "outputs": [
        {
          "internalType": "uint256",
          "name": "",
          "type": "uint256"
        }
      ],
      "stateMutability": "view",
      "type": "function"
    },
    {
      "inputs": [
        {
          "internalType": "bytes32",
          "name": "commitment",
          "type": "bytes32"
        }
      ],
      "name": "getDepositTime",
      "outputs": [
        {
          "internalType": "uint256",
          "name": "",
          "type": "uint256"
        }
      ],
      "stateMutability": "view",
      "type": "function"
    },
    {
      "inputs": [
        {
          "internalType": "bytes32",
          "name": "commitment",
          "type": "bytes32"
        }
      ],
      "name": "getEncryptedAmount",
      "outputs": [
        {
          "internalType": "euint64",
          "name": "",
          "type": "bytes32"
        }
      ],
      "stateMutability": "view",
      "type": "function"
    },
    {
      "inputs": [
        {
          "internalType": "uint256",
          "name": "bucketId",
          "type": "uint256"
        },
        {
          "internalType": "uint256",
          "name": "slotIndex",
          "type": "uint256"
        }
      ],
      "name": "getSlotBalance",
      "outputs": [
        {
          "internalType": "euint64",
          "name": "",
          "type": "bytes32"
        }
      ],
      "stateMutability": "view",
      "type": "function"
    },
    {
      "inputs": [
        {
          "internalType": "bytes32",
          "name": "commitment",
          "type": "bytes32"
        },
        {
          "internalType": "address",
          "name": "auditor",
          "type": "address"
        }
      ],
      "name": "grantViewingKey",
      "outputs": [],
      "stateMutability": "nonpayable",
      "type": "function"
    },
    {
      "inputs": [
        {
          "internalType": "address",
          "name": "",
          "type": "address"
        }
      ],
      "name": "isRegistered",
      "outputs": [
        {
          "internalType": "bool",
          "name": "",
          "type": "bool"
        }
      ],
      "stateMutability": "view",
      "type": "function"
    },
    {
      "inputs": [
        {
          "internalType": "bytes32",
          "name": "",
          "type": "bytes32"
        }
      ],
      "name": "nullifierSpent",
      "outputs": [
        {
          "internalType": "bool",
          "name": "",
          "type": "bool"
        }
      ],
      "stateMutability": "view",
      "type": "function"
    },
    {
      "inputs": [],
      "name": "owner",
      "outputs": [
        {
          "internalType": "address",
          "name": "",
          "type": "address"
        }
      ],
      "stateMutability": "view",
      "type": "function"
    },
    {
      "inputs": [],
      "name": "pause",
      "outputs": [],
      "stateMutability": "nonpayable",
      "type": "function"
    },
    {
      "inputs": [],
      "name": "paused",
      "outputs": [
        {
          "internalType": "bool",
          "name": "",
          "type": "bool"
        }
      ],
      "stateMutability": "view",
      "type": "function"
    },
    {
      "inputs": [],
      "name": "pendingOwner",
      "outputs": [
        {
          "internalType": "address",
          "name": "",
          "type": "address"
        }
      ],
      "stateMutability": "view",
      "type": "function"
    },
    {
      "inputs": [
        {
          "internalType": "externalEaddress",
          "name": "encAddr",
          "type": "bytes32"
        },
        {
          "internalType": "bytes",
          "name": "inputProof",
          "type": "bytes"
        },
        {
          "internalType": "uint256",
          "name": "bucketId",
          "type": "uint256"
        }
      ],
      "name": "register",
      "outputs": [],
      "stateMutability": "nonpayable",
      "type": "function"
    },
    {
      "inputs": [],
      "name": "renounceOwnership",
      "outputs": [],
      "stateMutability": "pure",
      "type": "function"
    },
    {
      "inputs": [
        {
          "internalType": "uint256",
          "name": "_feeBps",
          "type": "uint256"
        }
      ],
      "name": "setFeeBps",
      "outputs": [],
      "stateMutability": "nonpayable",
      "type": "function"
    },
    {
      "inputs": [
        {
          "internalType": "address",
          "name": "_treasury",
          "type": "address"
        }
      ],
      "name": "setTreasury",
      "outputs": [],
      "stateMutability": "nonpayable",
      "type": "function"
    },
    {
      "inputs": [
        {
          "internalType": "uint256",
          "name": "_delay",
          "type": "uint256"
        }
      ],
      "name": "setWithdrawDelay",
      "outputs": [],
      "stateMutability": "nonpayable",
      "type": "function"
    },
    {
      "inputs": [
        {
          "internalType": "address",
          "name": "newOwner",
          "type": "address"
        }
      ],
      "name": "transferOwnership",
      "outputs": [],
      "stateMutability": "nonpayable",
      "type": "function"
    },
    {
      "inputs": [],
      "name": "treasury",
      "outputs": [
        {
          "internalType": "address",
          "name": "",
          "type": "address"
        }
      ],
      "stateMutability": "view",
      "type": "function"
    },
    {
      "inputs": [],
      "name": "unpause",
      "outputs": [],
      "stateMutability": "nonpayable",
      "type": "function"
    },
    {
      "inputs": [],
      "name": "usdc",
      "outputs": [
        {
          "internalType": "contract IERC20",
          "name": "",
          "type": "address"
        }
      ],
      "stateMutability": "view",
      "type": "function"
    },
    {
      "inputs": [],
      "name": "withdrawDelay",
      "outputs": [
        {
          "internalType": "uint256",
          "name": "",
          "type": "uint256"
        }
      ],
      "stateMutability": "view",
      "type": "function"
    },
    {
      "inputs": [
        {
          "internalType": "bytes32",
          "name": "nullifier",
          "type": "bytes32"
        },
        {
          "internalType": "bytes32",
          "name": "secret",
          "type": "bytes32"
        },
        {
          "internalType": "address",
          "name": "depositor",
          "type": "address"
        },
        {
          "internalType": "externalEaddress",
          "name": "encRecipient",
          "type": "bytes32"
        },
        {
          "internalType": "bytes",
          "name": "inputProof",
          "type": "bytes"
        },
        {
          "internalType": "uint256",
          "name": "bucketId",
          "type": "uint256"
        },
        {
          "internalType": "address",
          "name": "relayer",
          "type": "address"
        },
        {
          "internalType": "uint256",
          "name": "relayerFeeBps",
          "type": "uint256"
        }
      ],
      "name": "withdrawToVault",
      "outputs": [],
      "stateMutability": "nonpayable",
      "type": "function"
    }
  ],
  "transactionHash": "0xa9b4b77e88f07ed9878f8b8a6c88f16cb31a84b16fbacb074d3941035b56cb6a",
  "args": [
    "0x1c7D4B196Cb0C7B01d743Fbc6116a902379C7238",
    "0x4f73E1F80De6E614FBB5F4B66B6C802CD087A5CC",
    "0x590891F269720001435004A1089cAB5b2c20029A",
    3600,
    50
  ],
  "numDeployments": 1,
  "solcInputHash": "e7f3251826b94195fd31a97ea7edb96b",
  "bytecode": "0x60c0604052346104d057604051601f612a8938819003918201601f19168301916001600160401b038311848410176104d45780849260a0946040528339810103126104d05761004d81610507565b9061005a60208201610507565b61006660408301610507565b608060608401519301519360017f9b779b17422d0df92223018b32b4d1fa46e071723d6817e2486d003becc55f005533156104bd57600180546001600160a01b03191690555f8054610100600160a81b0319811633600881811b610100600160a81b03169290921784559291901c6001600160a01b0316907f8be0079c531659141344cd1fd0a4f28419497f9722a3daafe3b4186f6b6457e09080a361010a61051b565b50466001036103d95761011b61051b565b506101246104e8565b73ca2e8f1f656cd25c01f05d0b243ab1ecd4a8ffb6815273d82385dada1ae3e969447f20a3164f6213100e7560208201527377627828a55156b04ac0dc0eb30467f1a552bb0360408201525b80517f9e7b61f58c47dc699ac88507c4f5bb9f121c03808c5676a8078fe583e464970080546001600160a01b03199081166001600160a01b039384161790915560208301517f9e7b61f58c47dc699ac88507c4f5bb9f121c03808c5676a8078fe583e4649701805483169184169190911790556040909201517f9e7b61f58c47dc699ac88507c4f5bb9f121c03808c5676a8078fe583e4649702805490931690821617909155169182156103a8576001600160a01b0316908115610376576001600160a01b0316918215610341576101f4851161030d5783156102d45760805260a052600480546001600160a01b0319169190911790556002556003556001600a556040515f7fa9e62e6b8d5c8df7c65c027e2f07d1a7a34a5b2f4a5d595cea8faa81a809cc178180a2612553908161053682396080518181816109f80152611800015260a0518181816104c001528181611631015281816118e40152611a350152f35b60405162461bcd60e51b8152602060048201526011602482015270044656c6179206d757374206265203e203607c1b6044820152606490fd5b60405162461bcd60e51b815260206004820152600c60248201526b08ccaca40e8dede40d0d2ced60a31b6044820152606490fd5b60405162461bcd60e51b815260206004820152600d60248201526c5a65726f20747265617375727960981b6044820152606490fd5b60405162461bcd60e51b815260206004820152600a6024820152695a65726f20635553444360b01b6044820152606490fd5b60405162461bcd60e51b81526020600482015260096024820152685a65726f205553444360b81b6044820152606490fd5b4662aa36a703610444576103eb61051b565b506103f46104e8565b73f0ffdc93b7e186bc2f8cb3daa75d86d1930a433d81527392c920834ec8941d2c77d188936e1f7a6f49c127602082015273be0e383937d564d7ff0bc3b46c51f0bf8d5c311a6040820152610170565b46617a69036104ae5761045561051b565b5061045e6104e8565b7350157cffd6bbfa2dece204a89ec419c23ef5755d815273e3a9105a3a932253a70f126eb1e3b589c643dd24602082015273901f8942346f7ab3a01f6d7613119bca447bb0306040820152610170565b6373cac13b60e01b5f5260045ffd5b631e4fbdf760e01b5f525f60045260245ffd5b5f80fd5b634e487b7160e01b5f52604160045260245ffd5b60405190606082016001600160401b038111838210176104d457604052565b51906001600160a01b03821682036104d057565b6105236104e8565b905f82525f60208301525f604083015256fe6080806040526004361015610012575f80fd5b5f3560e01c9081630288a39c14611afd5750806317e5e9ed14611a5957806320852ee714611a1657806324a9d853146119f95780632dfdf0b5146119dc578063306d16771461185357806338c86911146118245780633e413bee146117e15780633f4ba83a1461177d57806342ece37d1461174b57806343a6abcc146117225780634a7d0369146115f35780635c975abb146115d257806361d027b3146115ac578063715018a61461155757806372760c4f1461150f57806372c27b62146114a057806372f0cb301461143457806379ba50971461137a5780638456cb591461132357806386307865146112f15780638927b030146112cf5780638da5cb5b146112a757806393caa72914610c815780639844b73f14610991578063a04f91c61461094c578063a93f468314610922578063b048797c14610645578063c2f5673e14610628578063c349026314610440578063c3c5a54714610403578063e00742f6146102e7578063e30c3978146102c1578063f0f4426014610237578063f2fde38b146101c75763f3d96780146101a8575f80fd5b346101c3575f3660031901126101c357602060405160648152f35b5f80fd5b346101c35760203660031901126101c3576001600160a01b036101e8611b71565b6101f0611fb2565b16806001600160a01b031960015416176001556001600160a01b035f5460081c167f38d16b8cac22d99fc7c124b9cd0de2d3fa1faef420bfe791d8c362d765e227005f80a3005b346101c35760203660031901126101c3576001600160a01b03610258611b71565b610260611fb2565b16801561027c576001600160a01b031960045416176004555f80f35b60405162461bcd60e51b815260206004820152600c60248201527f5a65726f206164647265737300000000000000000000000000000000000000006044820152606490fd5b346101c3575f3660031901126101c35760206001600160a01b0360015416604051908152f35b346101c35760403660031901126101c357600435602435906001600160a01b038216918281036101c357815f52600660205260405f209061032e60ff600384015416611c88565b6001600160a01b0360018301541633036103be578315610379576103529154612327565b507f319a13689b9e73e9fea0a77af1502ed22810421d0717bdc4009e27acd17ab89d5f80a3005b60405162461bcd60e51b815260206004820152600c60248201527f5a65726f2061756469746f7200000000000000000000000000000000000000006044820152606490fd5b60405162461bcd60e51b815260206004820152600d60248201527f4e6f74206465706f7369746f72000000000000000000000000000000000000006044820152606490fd5b346101c35760203660031901126101c3576001600160a01b03610424611b71565b165f52600b602052602060ff60405f2054166040519015158152f35b346101c35761044e36611b45565b90610457611d20565b61045f611e10565b5f52600860205260405f20905f5260205260405f20600281015460ff8160a01c16156105e3576001600160a01b033391160361059e57602061051660015f93016104b58154916104ad61234e565b809155611d58565b506001600160a01b037f000000000000000000000000000000000000000000000000000000000000000016906104eb8282611d7a565b50604051632df5f6bf60e11b8152336004820152602481019190915293849283919082906044820190565b03925af1801561059357610564575b6040514281527fd8138f8a3f377c5259ca548e70e4c2de94f129f5a11036a15b69513cba2b426a60203392a260015f5160206125275f395f51905f5255005b6020813d60201161058b575b8161057d60209383611bb7565b810103126101c35751610525565b3d9150610570565b6040513d5f823e3d90fd5b60405162461bcd60e51b815260206004820152600d60248201527f4e6f7420796f757220736c6f74000000000000000000000000000000000000006044820152606490fd5b60405162461bcd60e51b815260206004820152600f60248201527f536c6f74206e6f742061637469766500000000000000000000000000000000006044820152606490fd5b346101c3575f3660031901126101c3576020600a54604051908152f35b346101c35760603660031901126101c35760243567ffffffffffffffff81116101c357610676903690600401611b17565b9060443591610683611e10565b335f52600b60205260ff60405f2054166108dd576106a4600a548410611cd4565b825f526009602052606460405f20541015610898576106d0916106c8913691611c34565b6004356121a0565b90805f52600960205260405f2054916106e761234e565b604051906106f482611b87565b828252602082019081526001600160a01b038060026040850194338652606081019460018652885f52600860205260405f208a5f5260205260405f209151825551600182015501935116166001600160a01b03198354161782555115157fffffffffffffffffffffff00ffffffffffffffffffffffffffffffffffffffff74ff000000000000000000000000000000000000000083549260a01b1691161790558015610885575b6107a69030906123ea565b805f52600860205260405f20825f526020526107c8600160405f200154611d58565b506001820180831161087157815f52600960205260405f2055335f52600b60205260405f20600160ff19825416179055805f526009602052606460405f205414610839575b7f3372efa751fbb4378df965b088761313f1317883c361a21ef4ae0d10a6272d9d6020604051428152a3005b610869600a54807fa9e62e6b8d5c8df7c65c027e2f07d1a7a34a5b2f4a5d595cea8faa81a809cc175f80a2611c7a565b600a5561080d565b634e487b7160e01b5f52601160045260245ffd5b506107a661089161239c565b905061079b565b60405162461bcd60e51b815260206004820152600b60248201527f4275636b65742066756c6c0000000000000000000000000000000000000000006044820152606490fd5b60405162461bcd60e51b815260206004820152601260248201527f416c7265616479207265676973746572656400000000000000000000000000006044820152606490fd5b346101c35760203660031901126101c3576004355f526009602052602060405f2054604051908152f35b346101c35760203660031901126101c357600435805f52600660205261097b60ff600360405f20015416611c88565b5f526006602052602060405f2054604051908152f35b346101c35760603660031901126101c3576044356109ad611d20565b6109b5611e10565b8015610c3c5767ffffffffffffffff8111610bf7576109d933602435600435611e2a565b90815f5260066020526109f660ff600360405f2001541615611be8565b7f00000000000000000000000000000000000000000000000000000000000000006040516323b872dd60e01b5f5233600452306024528260445260205f60648180865af19060015f5114821615610bd6575b6040525f60605215610bba5750610a60600554611c7a565b6005555f5160206125075f395f51905f5254604051639cd07acb60e01b815267ffffffffffffffff9290921660048301526001600160a01b0316816044815f602094600560248401525af18015610593575f90610b86575b610b409150610b3b604051610acc81611b87565b828152600360208201338152604083014281526001600160a01b03606085019260018452895f52600660205260405f209551865551166001600160a01b036001860191166001600160a01b031982541617905551600284015551151591019060ff801983541691151516179055565b611d58565b507fb39477ecc06c5293391f8b73168b655d9c1310af93dbbf043187d79f881bbb8f60406005548151904282526020820152a260015f5160206125275f395f51905f5255005b506020813d602011610bb2575b81610ba060209383611bb7565b810103126101c357610b409051610ab8565b3d9150610b93565b6001600160a01b0390635274afe760e01b5f521660045260245ffd5b906001811516610bee57823b15153d15161690610a48565b503d5f823e3d90fd5b60405162461bcd60e51b815260206004820152601060248201527f416d6f756e7420746f6f206c61726765000000000000000000000000000000006044820152606490fd5b60405162461bcd60e51b815260206004820152600b60248201527f5a65726f20616d6f756e740000000000000000000000000000000000000000006044820152606490fd5b346101c3576101003660031901126101c357600435610c9e611b5b565b60843567ffffffffffffffff81116101c357610cbe903690600401611b17565b909260a4359360c435916001600160a01b038316918284036101c35760e43591610ce6611d20565b610cee611e10565b610cfb600a548910611cd4565b6064831161126257604051602081019082825260208152610d1d604082611bb7565b51902096875f52600760205260ff60405f20541661121d57610d429160243590611e2a565b5f52600660205260405f206003810160ff815416156111d8576002820154600254810180911161087157421061119357875f52600760205260405f20600160ff1982541617905560ff19815416905554610d9a61234e565b91610da361234e565b96826003548061115b575b50851515958680611152575b61110c575b5050610dd891610dd0913691611c34565b6064356121a0565b5f8981526009602052604081205491928315915b838110610ec1575050505050600354610ea2575b5080610e99575b610e4c575b5050507f9fb298bf77656595d063bff8fe393c624709f39fc55f0d3cba10163621db19246020604051428152a360015f5160206125275f395f51905f5255005b610e65610e9093825f52600d60205260405f20546122a2565b5f828152600d60205260409020819055610e7e90611d58565b505f52600d60205260405f2054612327565b50828080610e0c565b50801515610e07565b610eb1610eba91600c546122a2565b80600c55611d58565b5086610e00565b8b5f52600860205260405f20815f5260205260405f209060ff600283015460a01c16156111035783825487916110f3575b80156110e1575b60209060646001600160a01b035f5160206125075f395f51905f525416935f604051958694859363f77f3f1d60e01b8552600485015260248401528160448401525af1908115610593575f916110b0575b50610f5361234e565b84821561102c575b851561101e575b8115611008575b6064602092935f6001600160a01b035f5160206125075f395f51905f5254166040519687958694637702dcff60e01b86526004860152602485015260448401525af1908115610593575f91610fd6575b50610fce906104ad60018095019182546122a2565b505b01610dec565b90506020813d8211611000575b81610ff060209383611bb7565b810103126101c357516001610fb9565b3d9150610fe3565b60209150606461101661234e565b925050610f69565b5061102761234e565b610f62565b5f5160206125075f395f51905f5254604051639cd07acb60e01b81525f60048201529193506001600160a01b0316816044815f6020948160248401525af1908115610593575f9161107f575b5091610f5b565b90506020813d82116110a8575b8161109960209383611bb7565b810103126101c357515f611078565b3d915061108c565b90506020813d82116110d9575b816110ca60209383611bb7565b810103126101c357518e610f4a565b3d91506110bd565b5060206110ec61239c565b9050610ef9565b90506110fd61239c565b90610ef2565b60019150610fd0565b610dd092949950611137611132610dd8959367ffffffffffffffff61113e941690611ff7565b6120a2565b809a61211b565b936111488a611d58565b5091819350610dbf565b50871515610dba565b61117792955061113291945067ffffffffffffffff1684611ff7565b92611182848461211b565b9261118c85611d58565b508b610dae565b60405162461bcd60e51b815260206004820152600960248201527f546f6f206561726c7900000000000000000000000000000000000000000000006044820152606490fd5b60405162461bcd60e51b815260206004820152600c60248201527f496e76616c6964206e6f746500000000000000000000000000000000000000006044820152606490fd5b60405162461bcd60e51b815260206004820152600f60248201527f4e756c6c6966696572207370656e7400000000000000000000000000000000006044820152606490fd5b60405162461bcd60e51b815260206004820152601460248201527f52656c617965722066656520746f6f20686967680000000000000000000000006044820152606490fd5b346101c3575f3660031901126101c35760206001600160a01b035f5460081c16604051908152f35b346101c3575f3660031901126101c35760206112e9611fc8565b604051908152f35b346101c35760203660031901126101c3576004355f526006602052602060ff600360405f200154166040519015158152f35b346101c3575f3660031901126101c35761133b611fb2565b611343611e10565b600160ff195f5416175f557f62e78cea01bee320cd4e420270b5ea74000d11b0c9f74754ebdbfc544b05a2586020604051338152a1005b346101c3575f3660031901126101c357600154336001600160a01b03821603611421576001600160a01b0319166001555f5474ffffffffffffffffffffffffffffffffffffffff003360081b167fffffffffffffffffffffff0000000000000000000000000000000000000000ff8216175f556001600160a01b03339160081c167f8be0079c531659141344cd1fd0a4f28419497f9722a3daafe3b4186f6b6457e05f80a3005b63118cdaa760e01b5f523360045260245ffd5b346101c35760203660031901126101c357600435611450611fb2565b801561145b57600255005b60405162461bcd60e51b815260206004820152601160248201527f44656c6179206d757374206265203e20300000000000000000000000000000006044820152606490fd5b346101c35760203660031901126101c3576004356114bc611fb2565b6101f481116114ca57600355005b60405162461bcd60e51b815260206004820152600c60248201527f46656520746f6f206869676800000000000000000000000000000000000000006044820152606490fd5b346101c35760203660031901126101c357600435805f52600660205261153e60ff600360405f20015416611c88565b5f5260066020526020600260405f200154604051908152f35b346101c3575f3660031901126101c35760405162461bcd60e51b815260206004820152601160248201527f52656e6f756e63652064697361626c65640000000000000000000000000000006044820152606490fd5b346101c3575f3660031901126101c35760206001600160a01b0360045416604051908152f35b346101c3575f3660031901126101c357602060ff5f54166040519015158152f35b346101c3575f3660031901126101c35761160b611fb2565b611613611d20565b61169b6020600c54611626610eb161234e565b506001600160a01b037f00000000000000000000000000000000000000000000000000000000000000001661165b8183611d7a565b506001600160a01b03600454165f604051809681958294632df5f6bf60e11b845260048401602090939291936001600160a01b0360408201951681520152565b03925af18015610593576116f3575b6001600160a01b03600454167f9dc46f23cfb5ddcad0ae7ea2be38d47fec07bb9382ec7e564efc69e036dd66ce60206040515f8152a260015f5160206125275f395f51905f5255005b6020813d60201161171a575b8161170c60209383611bb7565b810103126101c357516116aa565b3d91506116ff565b346101c35760603660031901126101c35760206112e9611740611b5b565b602435600435611e2a565b346101c35761175936611b45565b905f52600860205260405f20905f526020526020600160405f200154604051908152f35b346101c3575f3660031901126101c357611795611fb2565b5f5460ff8116156117d25760ff19165f557f5db9ee0a495bf2e6ff9c91a7834c1ba4fdd244a5e8aa4e537bd38aeae4b073aa6020604051338152a1005b638dfc202b60e01b5f5260045ffd5b346101c3575f3660031901126101c35760206040516001600160a01b037f0000000000000000000000000000000000000000000000000000000000000000168152f35b346101c35760203660031901126101c3576004355f526007602052602060ff60405f2054166040519015158152f35b346101c35760803660031901126101c35760643567ffffffffffffffff81116101c3575f6118d861188b6118d0933690600401611b17565b9390611895611d20565b61189d611e10565b6118ac33602435600435611e2a565b9485855260066020526118c960ff60036040882001541615611be8565b3691611c34565b604435611e5f565b60206001600160a01b037f00000000000000000000000000000000000000000000000000000000000000001661190e8184611d7a565b5060646040518095819363eb3155b560e01b83523360048401523060248401528660448401525af18015610593576119a9575b6119639150611951600554611c7a565b600555610b3b604051610acc81611b87565b507fb9df3f9071df626a8827d1d21d947890a9b9c432da0ebf6ab7eb8348746984ae60406005548151904282526020820152a260015f5160206125275f395f51905f5255005b6020823d6020116119d4575b816119c260209383611bb7565b810103126101c3576119639150611941565b3d91506119b5565b346101c3575f3660031901126101c3576020600554604051908152f35b346101c3575f3660031901126101c3576020600354604051908152f35b346101c3575f3660031901126101c35760206040516001600160a01b037f0000000000000000000000000000000000000000000000000000000000000000168152f35b346101c3575f3660031901126101c357611a71611d20565b335f52600d6020525f6020611aac6040832054611a8c61234e565b338552600d84526040852055338452600d83526104b56040852054611d58565b03925af1801561059357611ace575b60015f5160206125275f395f51905f5255005b611aef9060203d602011611af6575b611ae78183611bb7565b810190611bd9565b5080611abb565b503d611add565b346101c3575f3660031901126101c3576020906002548152f35b9181601f840112156101c35782359167ffffffffffffffff83116101c357602083818601950101116101c357565b60409060031901126101c3576004359060243590565b604435906001600160a01b03821682036101c357565b600435906001600160a01b03821682036101c357565b6080810190811067ffffffffffffffff821117611ba357604052565b634e487b7160e01b5f52604160045260245ffd5b90601f8019910116810190811067ffffffffffffffff821117611ba357604052565b908160209103126101c3575190565b15611bef57565b60405162461bcd60e51b815260206004820152601160248201527f436f6d6d69746d656e74206578697374730000000000000000000000000000006044820152606490fd5b92919267ffffffffffffffff8211611ba35760405191611c5e601f8201601f191660200184611bb7565b8294818452818301116101c3578281602093845f960137010152565b5f1981146108715760010190565b15611c8f57565b60405162461bcd60e51b815260206004820152600e60248201527f4e6f7465206e6f7420666f756e640000000000000000000000000000000000006044820152606490fd5b15611cdb57565b60405162461bcd60e51b815260206004820152600e60248201527f496e76616c6964206275636b65740000000000000000000000000000000000006044820152606490fd5b60025f5160206125275f395f51905f525414611d495760025f5160206125275f395f51905f5255565b633ee5aeb560e01b5f5260045ffd5b8015611d6c575b611d6930826123ea565b90565b50611d7561234e565b611d5f565b908115611e00575b6001600160a01b037f9e7b61f58c47dc699ac88507c4f5bb9f121c03808c5676a8078fe583e46497005416803b156101c357604051630f8e573b60e21b8152600481018490526001600160a01b0390921660248301525f908290818381604481015b03925af1801561059357611df6575090565b5f611d6991611bb7565b9050611e0a61234e565b90611d82565b60ff5f5416611e1b57565b63d93c066560e01b5f5260045ffd5b916001600160a01b03906040519260208401948552604084015216606082015260608152611e59608082611bb7565b51902090565b815190919015611f7a5760206001600160a01b035f5160206125075f395f51905f525416916040519363045fc19560e11b855260048501523360248501526080604485015280519182918260848701520160a485015e5f83820160a40152602091835f60a482809560056064830152601f801991011681010301925af1908115610593575f91611f48575b506001600160a01b037f9e7b61f58c47dc699ac88507c4f5bb9f121c03808c5676a8078fe583e46497005416803b156101c357604051630f8e573b60e21b815260048101839052336024820152905f90829081838160448101611de4565b90506020813d602011611f72575b81611f6360209383611bb7565b810103126101c357515f611eea565b3d9150611f56565b508015611fa957611f8b3382612467565b15611f935790565b630276b5d960e01b5f526004523360245260445ffd5b50611d6961234e565b6001600160a01b035f5460081c16330361142157565b46600103611fd557600190565b4662aa36a703611fe55761271190565b617a694614611ff2575f90565b5f1990565b67ffffffffffffffff916020918015612090575b6064905f6001600160a01b035f5160206125075f395f51905f5254166040519687958694630afe14ad60e31b86526004860152166024840152600160f81b60448401525af1908115610593575f91612061575090565b90506020813d602011612088575b8161207c60209383611bb7565b810103126101c3575190565b3d915061206f565b50606461209b61234e565b905061200b565b8015612107575b5f5160206125075f395f51905f5254604051635a53accb60e01b815260048101929092526127106024830152600160f81b6044830152602090829060649082905f906001600160a01b03165af1908115610593575f91612061575090565b505f602061211361234e565b9150506120a9565b908115612190575b801561217e575b60209060646001600160a01b035f5160206125075f395f51905f525416935f60405195869485936303056db360e31b8552600485015260248401528160448401525af1908115610593575f91612061575090565b50602061218961234e565b905061212a565b905061219a61234e565b90612123565b8151909190156122885760206001600160a01b035f5160206125075f395f51905f525416916040519363045fc19560e11b855260048501523360248501526080604485015280519182918260848701520160a485015e5f83820160a40152602091835f60a482809560076064830152601f801991011681010301925af1908115610593575f91611f4857506001600160a01b037f9e7b61f58c47dc699ac88507c4f5bb9f121c03808c5676a8078fe583e46497005416803b156101c357604051630f8e573b60e21b815260048101839052336024820152905f90829081838160448101611de4565b50801561229957611f8b3382612467565b50611d6961239c565b908115612317575b8015612305575b60209060646001600160a01b035f5160206125075f395f51905f525416935f604051958694859363022f65e760e31b8552600485015260248401528160448401525af1908115610593575f91612061575090565b50602061231061234e565b90506122b1565b905061232161234e565b906122aa565b908115612339575b611d6990826123ea565b9050611d6961234661234e565b91905061232f565b5f5160206125075f395f51905f5254604051639cd07acb60e01b81525f6004820152906001600160a01b0316816044815f602094600560248401525af1908115610593575f91612061575090565b5f5160206125075f395f51905f5254604051639cd07acb60e01b81525f6004820152906001600160a01b0316816044815f602094600760248401525af1908115610593575f91612061575090565b6001600160a01b037f9e7b61f58c47dc699ac88507c4f5bb9f121c03808c5676a8078fe583e4649700541691823b156101c357604051635ca4b5b160e11b815260048101929092526001600160a01b03166024820152905f908290604490829084905af180156105935761245b5750565b5f61246591611bb7565b565b7f9e7b61f58c47dc699ac88507c4f5bb9f121c03808c5676a8078fe583e4649700546040516382027b6d60e01b815260048101929092526001600160a01b039283166024830152909160209183916044918391165afa908115610593575f916124ce575090565b90506020813d6020116124fe575b816124e960209383611bb7565b810103126101c3575180151581036101c35790565b3d91506124dc56fe9e7b61f58c47dc699ac88507c4f5bb9f121c03808c5676a8078fe583e46497019b779b17422d0df92223018b32b4d1fa46e071723d6817e2486d003becc55f00a164736f6c634300081b000a",
  "devdoc": {
    "errors": {
      "EnforcedPause()": [
        {
          "details": "The operation failed because the contract is paused."
        }
      ],
      "ExpectedPause()": [
        {
          "details": "The operation failed because the contract is not paused."
        }
      ],
      "OwnableInvalidOwner(address)": [
        {
          "details": "The owner is not a valid owner account. (eg. `address(0)`)"
        }
      ],
      "OwnableUnauthorizedAccount(address)": [
        {
          "details": "The caller account is not authorized to perform an operation."
        }
      ],
      "ReentrancyGuardReentrantCall()": [
        {
          "details": "Unauthorized reentrant call."
        }
      ],
      "SafeERC20FailedOperation(address)": [
        {
          "details": "An operation with an ERC-20 token failed."
        }
      ]
    },
    "events": {
      "Paused(address)": {
        "details": "Emitted when the pause is triggered by `account`."
      },
      "Unpaused(address)": {
        "details": "Emitted when the pause is lifted by `account`."
      }
    },
    "kind": "dev",
    "methods": {
      "acceptOwnership()": {
        "details": "The new owner accepts the ownership transfer."
      },
      "claim(uint256,uint256)": {
        "params": {
          "bucketId": "The bucket where you registered",
          "slotIndex": "Your slot index in the bucket"
        }
      },
      "deposit(bytes32,bytes32,uint256)": {
        "params": {
          "amount": "USDC amount (public at deposit time, encrypted internally)",
          "nullifier": "Unique per note (prevents double-spend)",
          "secret": "The secret for the commitment"
        }
      },
      "depositConfidential(bytes32,bytes32,bytes32,bytes)": {
        "details": "User must call cusdc.setOperator(vault, expiration) first",
        "params": {
          "encryptedAmount": "Encrypted deposit amount",
          "inputProof": "Proof for the encrypted input",
          "nullifier": "Unique per note",
          "secret": "The secret for the commitment"
        }
      },
      "grantViewingKey(bytes32,address)": {
        "details": "Only the depositor can grant viewing keys"
      },
      "owner()": {
        "details": "Returns the address of the current owner."
      },
      "paused()": {
        "details": "Returns true if the contract is paused, and false otherwise."
      },
      "pendingOwner()": {
        "details": "Returns the address of the pending owner."
      },
      "register(bytes32,bytes,uint256)": {
        "params": {
          "bucketId": "Which bucket to join (for gas optimization)",
          "encAddr": "Your address, encrypted with FHE",
          "inputProof": "Proof for the encrypted input"
        }
      },
      "renounceOwnership()": {
        "details": "Override renounceOwnership to prevent accidental lockout"
      },
      "transferOwnership(address)": {
        "details": "Starts the ownership transfer of the contract to a new account. Replaces the pending transfer if there is one. Can only be called by the current owner. Setting `newOwner` to the zero address is allowed; this can be used to cancel an initiated ownership transfer."
      },
      "withdrawToVault(bytes32,bytes32,address,bytes32,bytes,uint256,address,uint256)": {
        "params": {
          "bucketId": "Target bucket containing the recipient",
          "depositor": "The original depositor address (part of commitment)",
          "encRecipient": "Encrypted recipient address (eaddress)",
          "inputProof": "Proof for the encrypted address",
          "nullifier": "The nullifier for the note",
          "relayer": "Address of the relayer submitting this tx (or msg.sender)",
          "relayerFeeBps": "Relayer fee in basis points (max 100 = 1%)",
          "secret": "The secret for the note"
        }
      }
    },
    "stateVariables": {
      "MAX_BUCKET_SIZE": {
        "details": "Max users per bucket for gas-bounded oblivious updates"
      },
      "_slots": {
        "details": "Buckets of vault slots — withdrawals update all slots in a bucket bucketId => slotIndex => VaultSlot"
      },
      "isRegistered": {
        "details": "Prevent duplicate registrations"
      }
    },
    "title": "ConfidentialVault — Privacy Vault with Untraceable Withdrawals",
    "version": 1
  },
  "userdoc": {
    "errors": {
      "SenderNotAllowedToUseHandle(bytes32,address)": [
        {
          "notice": "Returned if the sender is not allowed to use the handle."
        }
      ],
      "ZamaProtocolUnsupported()": [
        {
          "notice": "Returned if the Zama protocol is not supported on the current chain"
        }
      ]
    },
    "kind": "user",
    "methods": {
      "claim(uint256,uint256)": {
        "notice": "Claim your vault balance as cUSDC (stays confidential)"
      },
      "claimProtocolFees()": {
        "notice": "Owner withdraws accrued protocol fees as cUSDC"
      },
      "claimRelayerFees()": {
        "notice": "Claim relayer fees"
      },
      "deposit(bytes32,bytes32,uint256)": {
        "notice": "Deposit USDC into the privacy vault"
      },
      "depositConfidential(bytes32,bytes32,bytes32,bytes)": {
        "notice": "Deposit cUSDC (amount fully hidden end-to-end)"
      },
      "grantViewingKey(bytes32,address)": {
        "notice": "Grant viewing access to an auditor for a note"
      },
      "register(bytes32,bytes,uint256)": {
        "notice": "Register an encrypted address in a vault bucket.         The eaddress hides which slot belongs to you."
      },
      "withdrawToVault(bytes32,bytes32,address,bytes32,bytes,uint256,address,uint256)": {
        "notice": "Withdraw to an encrypted address in the vault.         The contract updates ALL slots in the target bucket,         making it impossible to know which slot received the funds."
      }
    },
    "notice": "A privacy pool where withdrawals go to encrypted addresses (eaddress).         The contract updates ALL registered balances on every withdrawal using         FHE select operations, making it impossible to determine which balance         was actually credited (Oblivious RAM pattern). Flow:   1. Users register with an encrypted address (eaddress) — nobody knows which      slot belongs to whom   2. Deposits create encrypted notes (commitment/nullifier scheme)   3. Withdrawals credit an eaddress — the contract touches EVERY balance,      making it impossible to trace the recipient   4. Users claim their balance via their real address (linked at registration) Privacy properties:   - Deposit amounts: encrypted (FHE euint64)   - Withdrawal recipient: encrypted (eaddress) — UNTRACEABLE   - All balances updated on every withdrawal (oblivious pattern)   - Claim reveals only that \"someone withdrew something\" — not linked to any deposit Security fixes over ShadowPool:   - Withdrawal amount verified against stored FHE note   - Depositor address bound in commitment   - Viewing key access restricted to depositor   - Notes invalidated after withdrawal   - Ownable2Step to prevent accidental ownership loss",
    "version": 1
  },
  "storageLayout": {
    "storage": [
      {
        "astId": 43051,
        "contract": "contracts/shadow/ConfidentialVault.sol:ConfidentialVault",
        "label": "_paused",
        "offset": 0,
        "slot": "0",
        "type": "t_bool"
      },
      {
        "astId": 42164,
        "contract": "contracts/shadow/ConfidentialVault.sol:ConfidentialVault",
        "label": "_owner",
        "offset": 1,
        "slot": "0",
        "type": "t_address"
      },
      {
        "astId": 42312,
        "contract": "contracts/shadow/ConfidentialVault.sol:ConfidentialVault",
        "label": "_pendingOwner",
        "offset": 0,
        "slot": "1",
        "type": "t_address"
      },
      {
        "astId": 47006,
        "contract": "contracts/shadow/ConfidentialVault.sol:ConfidentialVault",
        "label": "withdrawDelay",
        "offset": 0,
        "slot": "2",
        "type": "t_uint256"
      },
      {
        "astId": 47008,
        "contract": "contracts/shadow/ConfidentialVault.sol:ConfidentialVault",
        "label": "feeBps",
        "offset": 0,
        "slot": "3",
        "type": "t_uint256"
      },
      {
        "astId": 47010,
        "contract": "contracts/shadow/ConfidentialVault.sol:ConfidentialVault",
        "label": "treasury",
        "offset": 0,
        "slot": "4",
        "type": "t_address"
      },
      {
        "astId": 47012,
        "contract": "contracts/shadow/ConfidentialVault.sol:ConfidentialVault",
        "label": "depositCount",
        "offset": 0,
        "slot": "5",
        "type": "t_uint256"
      },
      {
        "astId": 47031,
        "contract": "contracts/shadow/ConfidentialVault.sol:ConfidentialVault",
        "label": "_notes",
        "offset": 0,
        "slot": "6",
        "type": "t_mapping(t_bytes32,t_struct(Note)47026_storage)"
      },
      {
        "astId": 47035,
        "contract": "contracts/shadow/ConfidentialVault.sol:ConfidentialVault",
        "label": "nullifierSpent",
        "offset": 0,
        "slot": "7",
        "type": "t_mapping(t_bytes32,t_bool)"
      },
      {
        "astId": 47055,
        "contract": "contracts/shadow/ConfidentialVault.sol:ConfidentialVault",
        "label": "_slots",
        "offset": 0,
        "slot": "8",
        "type": "t_mapping(t_uint256,t_mapping(t_uint256,t_struct(VaultSlot)47047_storage))"
      },
      {
        "astId": 47059,
        "contract": "contracts/shadow/ConfidentialVault.sol:ConfidentialVault",
        "label": "bucketSize",
        "offset": 0,
        "slot": "9",
        "type": "t_mapping(t_uint256,t_uint256)"
      },
      {
        "astId": 47061,
        "contract": "contracts/shadow/ConfidentialVault.sol:ConfidentialVault",
        "label": "bucketCount",
        "offset": 0,
        "slot": "10",
        "type": "t_uint256"
      },
      {
        "astId": 47066,
        "contract": "contracts/shadow/ConfidentialVault.sol:ConfidentialVault",
        "label": "isRegistered",
        "offset": 0,
        "slot": "11",
        "type": "t_mapping(t_address,t_bool)"
      },
      {
        "astId": 48165,
        "contract": "contracts/shadow/ConfidentialVault.sol:ConfidentialVault",
        "label": "_accruedFees",
        "offset": 0,
        "slot": "12",
        "type": "t_userDefinedValueType(euint64)49716"
      },
      {
        "astId": 48170,
        "contract": "contracts/shadow/ConfidentialVault.sol:ConfidentialVault",
        "label": "_accruedRelayerFees",
        "offset": 0,
        "slot": "13",
        "type": "t_mapping(t_address,t_userDefinedValueType(euint64)49716)"
      }
    ],
    "types": {
      "t_address": {
        "encoding": "inplace",
        "label": "address",
        "numberOfBytes": "20"
      },
      "t_bool": {
        "encoding": "inplace",
        "label": "bool",
        "numberOfBytes": "1"
      },
      "t_bytes32": {
        "encoding": "inplace",
        "label": "bytes32",
        "numberOfBytes": "32"
      },
      "t_mapping(t_address,t_bool)": {
        "encoding": "mapping",
        "key": "t_address",
        "label": "mapping(address => bool)",
        "numberOfBytes": "32",
        "value": "t_bool"
      },
      "t_mapping(t_address,t_userDefinedValueType(euint64)49716)": {
        "encoding": "mapping",
        "key": "t_address",
        "label": "mapping(address => euint64)",
        "numberOfBytes": "32",
        "value": "t_userDefinedValueType(euint64)49716"
      },
      "t_mapping(t_bytes32,t_bool)": {
        "encoding": "mapping",
        "key": "t_bytes32",
        "label": "mapping(bytes32 => bool)",
        "numberOfBytes": "32",
        "value": "t_bool"
      },
      "t_mapping(t_bytes32,t_struct(Note)47026_storage)": {
        "encoding": "mapping",
        "key": "t_bytes32",
        "label": "mapping(bytes32 => struct ConfidentialVault.Note)",
        "numberOfBytes": "32",
        "value": "t_struct(Note)47026_storage"
      },
      "t_mapping(t_uint256,t_mapping(t_uint256,t_struct(VaultSlot)47047_storage))": {
        "encoding": "mapping",
        "key": "t_uint256",
        "label": "mapping(uint256 => mapping(uint256 => struct ConfidentialVault.VaultSlot))",
        "numberOfBytes": "32",
        "value": "t_mapping(t_uint256,t_struct(VaultSlot)47047_storage)"
      },
      "t_mapping(t_uint256,t_struct(VaultSlot)47047_storage)": {
        "encoding": "mapping",
        "key": "t_uint256",
        "label": "mapping(uint256 => struct ConfidentialVault.VaultSlot)",
        "numberOfBytes": "32",
        "value": "t_struct(VaultSlot)47047_storage"
      },
      "t_mapping(t_uint256,t_uint256)": {
        "encoding": "mapping",
        "key": "t_uint256",
        "label": "mapping(uint256 => uint256)",
        "numberOfBytes": "32",
        "value": "t_uint256"
      },
      "t_struct(Note)47026_storage": {
        "encoding": "inplace",
        "label": "struct ConfidentialVault.Note",
        "members": [
          {
            "astId": 47019,
            "contract": "contracts/shadow/ConfidentialVault.sol:ConfidentialVault",
            "label": "amount",
            "offset": 0,
            "slot": "0",
            "type": "t_userDefinedValueType(euint64)49716"
          },
          {
            "astId": 47021,
            "contract": "contracts/shadow/ConfidentialVault.sol:ConfidentialVault",
            "label": "depositor",
            "offset": 0,
            "slot": "1",
            "type": "t_address"
          },
          {
            "astId": 47023,
            "contract": "contracts/shadow/ConfidentialVault.sol:ConfidentialVault",
            "label": "depositTime",
            "offset": 0,
            "slot": "2",
            "type": "t_uint256"
          },
          {
            "astId": 47025,
            "contract": "contracts/shadow/ConfidentialVault.sol:ConfidentialVault",
            "label": "exists",
            "offset": 0,
            "slot": "3",
            "type": "t_bool"
          }
        ],
        "numberOfBytes": "128"
      },
      "t_struct(VaultSlot)47047_storage": {
        "encoding": "inplace",
        "label": "struct ConfidentialVault.VaultSlot",
        "members": [
          {
            "astId": 47039,
            "contract": "contracts/shadow/ConfidentialVault.sol:ConfidentialVault",
            "label": "encAddress",
            "offset": 0,
            "slot": "0",
            "type": "t_userDefinedValueType(eaddress)49830"
          },
          {
            "astId": 47042,
            "contract": "contracts/shadow/ConfidentialVault.sol:ConfidentialVault",
            "label": "balance",
            "offset": 0,
            "slot": "1",
            "type": "t_userDefinedValueType(euint64)49716"
          },
          {
            "astId": 47044,
            "contract": "contracts/shadow/ConfidentialVault.sol:ConfidentialVault",
            "label": "claimAddress",
            "offset": 0,
            "slot": "2",
            "type": "t_address"
          },
          {
            "astId": 47046,
            "contract": "contracts/shadow/ConfidentialVault.sol:ConfidentialVault",
            "label": "active",
            "offset": 20,
            "slot": "2",
            "type": "t_bool"
          }
        ],
        "numberOfBytes": "96"
      },
      "t_uint256": {
        "encoding": "inplace",
        "label": "uint256",
        "numberOfBytes": "32"
      },
      "t_userDefinedValueType(eaddress)49830": {
        "encoding": "inplace",
        "label": "eaddress",
        "numberOfBytes": "32"
      },
      "t_userDefinedValueType(euint64)49716": {
        "encoding": "inplace",
        "label": "euint64",
        "numberOfBytes": "32"
      }
    }
  }
}