{
  "address": "0x956C324Cbe4dE851f94c85C48ac1b347F87Ea4db",
  "abi": [
    {
      "inputs": [
        {
          "internalType": "uint256",
          "name": "_feeBps",
          "type": "uint256"
        }
      ],
      "stateMutability": "nonpayable",
      "type": "constructor"
    },
    {
      "inputs": [
        {
          "internalType": "address",
          "name": "owner",
          "type": "address"
        }
      ],
      "name": "OwnableInvalidOwner",
      "type": "error"
    },
    {
      "inputs": [
        {
          "internalType": "address",
          "name": "account",
          "type": "address"
        }
      ],
      "name": "OwnableUnauthorizedAccount",
      "type": "error"
    },
    {
      "inputs": [],
      "name": "ReentrancyGuardReentrantCall",
      "type": "error"
    },
    {
      "inputs": [
        {
          "internalType": "bytes32",
          "name": "handle",
          "type": "bytes32"
        },
        {
          "internalType": "address",
          "name": "sender",
          "type": "address"
        }
      ],
      "name": "SenderNotAllowedToUseHandle",
      "type": "error"
    },
    {
      "inputs": [],
      "name": "ZamaProtocolUnsupported",
      "type": "error"
    },
    {
      "anonymous": false,
      "inputs": [
        {
          "indexed": true,
          "internalType": "uint256",
          "name": "poolId",
          "type": "uint256"
        },
        {
          "indexed": true,
          "internalType": "address",
          "name": "provider",
          "type": "address"
        }
      ],
      "name": "LiquidityAdded",
      "type": "event"
    },
    {
      "anonymous": false,
      "inputs": [
        {
          "indexed": true,
          "internalType": "uint256",
          "name": "poolId",
          "type": "uint256"
        },
        {
          "indexed": true,
          "internalType": "address",
          "name": "provider",
          "type": "address"
        }
      ],
      "name": "LiquidityRemoved",
      "type": "event"
    },
    {
      "anonymous": false,
      "inputs": [
        {
          "indexed": true,
          "internalType": "address",
          "name": "previousOwner",
          "type": "address"
        },
        {
          "indexed": true,
          "internalType": "address",
          "name": "newOwner",
          "type": "address"
        }
      ],
      "name": "OwnershipTransferred",
      "type": "event"
    },
    {
      "anonymous": false,
      "inputs": [
        {
          "indexed": true,
          "internalType": "uint256",
          "name": "poolId",
          "type": "uint256"
        },
        {
          "indexed": false,
          "internalType": "address",
          "name": "tokenA",
          "type": "address"
        },
        {
          "indexed": false,
          "internalType": "address",
          "name": "tokenB",
          "type": "address"
        }
      ],
      "name": "PoolCreated",
      "type": "event"
    },
    {
      "anonymous": false,
      "inputs": [
        {
          "indexed": true,
          "internalType": "uint256",
          "name": "poolId",
          "type": "uint256"
        },
        {
          "indexed": true,
          "internalType": "address",
          "name": "trader",
          "type": "address"
        },
        {
          "indexed": false,
          "internalType": "bool",
          "name": "aToB",
          "type": "bool"
        }
      ],
      "name": "Swapped",
      "type": "event"
    },
    {
      "inputs": [
        {
          "internalType": "uint256",
          "name": "poolId",
          "type": "uint256"
        },
        {
          "internalType": "externalEuint64",
          "name": "encAmountA",
          "type": "bytes32"
        },
        {
          "internalType": "externalEuint64",
          "name": "encAmountB",
          "type": "bytes32"
        },
        {
          "internalType": "externalEuint64",
          "name": "encDesiredLP",
          "type": "bytes32"
        },
        {
          "internalType": "bytes",
          "name": "inputProof",
          "type": "bytes"
        }
      ],
      "name": "addLiquidity",
      "outputs": [],
      "stateMutability": "nonpayable",
      "type": "function"
    },
    {
      "inputs": [],
      "name": "confidentialProtocolId",
      "outputs": [
        {
          "internalType": "uint256",
          "name": "",
          "type": "uint256"
        }
      ],
      "stateMutability": "view",
      "type": "function"
    },
    {
      "inputs": [
        {
          "internalType": "address",
          "name": "tokenA",
          "type": "address"
        },
        {
          "internalType": "address",
          "name": "tokenB",
          "type": "address"
        },
        {
          "internalType": "externalEuint64",
          "name": "encAmountA",
          "type": "bytes32"
        },
        {
          "internalType": "externalEuint64",
          "name": "encAmountB",
          "type": "bytes32"
        },
        {
          "internalType": "bytes",
          "name": "inputProof",
          "type": "bytes"
        }
      ],
      "name": "createPool",
      "outputs": [
        {
          "internalType": "uint256",
          "name": "poolId",
          "type": "uint256"
        }
      ],
      "stateMutability": "nonpayable",
      "type": "function"
    },
    {
      "inputs": [],
      "name": "feeBps",
      "outputs": [
        {
          "internalType": "uint256",
          "name": "",
          "type": "uint256"
        }
      ],
      "stateMutability": "view",
      "type": "function"
    },
    {
      "inputs": [
        {
          "internalType": "uint256",
          "name": "poolId",
          "type": "uint256"
        },
        {
          "internalType": "address",
          "name": "user",
          "type": "address"
        }
      ],
      "name": "getEncryptedLP",
      "outputs": [
        {
          "internalType": "euint64",
          "name": "",
          "type": "bytes32"
        }
      ],
      "stateMutability": "view",
      "type": "function"
    },
    {
      "inputs": [
        {
          "internalType": "uint256",
          "name": "poolId",
          "type": "uint256"
        }
      ],
      "name": "getEncryptedReserves",
      "outputs": [
        {
          "internalType": "euint64",
          "name": "reserveA",
          "type": "bytes32"
        },
        {
          "internalType": "euint64",
          "name": "reserveB",
          "type": "bytes32"
        }
      ],
      "stateMutability": "view",
      "type": "function"
    },
    {
      "inputs": [
        {
          "internalType": "uint256",
          "name": "poolId",
          "type": "uint256"
        }
      ],
      "name": "getPool",
      "outputs": [
        {
          "internalType": "address",
          "name": "tokenA",
          "type": "address"
        },
        {
          "internalType": "address",
          "name": "tokenB",
          "type": "address"
        },
        {
          "internalType": "bool",
          "name": "exists",
          "type": "bool"
        }
      ],
      "stateMutability": "view",
      "type": "function"
    },
    {
      "inputs": [],
      "name": "owner",
      "outputs": [
        {
          "internalType": "address",
          "name": "",
          "type": "address"
        }
      ],
      "stateMutability": "view",
      "type": "function"
    },
    {
      "inputs": [],
      "name": "poolCount",
      "outputs": [
        {
          "internalType": "uint256",
          "name": "",
          "type": "uint256"
        }
      ],
      "stateMutability": "view",
      "type": "function"
    },
    {
      "inputs": [
        {
          "internalType": "uint256",
          "name": "poolId",
          "type": "uint256"
        },
        {
          "internalType": "externalEuint64",
          "name": "encLpAmount",
          "type": "bytes32"
        },
        {
          "internalType": "externalEuint64",
          "name": "encExpectedA",
          "type": "bytes32"
        },
        {
          "internalType": "externalEuint64",
          "name": "encExpectedB",
          "type": "bytes32"
        },
        {
          "internalType": "bytes",
          "name": "inputProof",
          "type": "bytes"
        }
      ],
      "name": "removeLiquidity",
      "outputs": [],
      "stateMutability": "nonpayable",
      "type": "function"
    },
    {
      "inputs": [],
      "name": "renounceOwnership",
      "outputs": [],
      "stateMutability": "nonpayable",
      "type": "function"
    },
    {
      "inputs": [
        {
          "internalType": "uint256",
          "name": "_feeBps",
          "type": "uint256"
        }
      ],
      "name": "setFeeBps",
      "outputs": [],
      "stateMutability": "nonpayable",
      "type": "function"
    },
    {
      "inputs": [
        {
          "internalType": "uint256",
          "name": "poolId",
          "type": "uint256"
        },
        {
          "internalType": "bool",
          "name": "aToB",
          "type": "bool"
        },
        {
          "internalType": "externalEuint64",
          "name": "encAmountIn",
          "type": "bytes32"
        },
        {
          "internalType": "externalEuint64",
          "name": "encExpectedOut",
          "type": "bytes32"
        },
        {
          "internalType": "bytes",
          "name": "inputProof",
          "type": "bytes"
        }
      ],
      "name": "swap",
      "outputs": [],
      "stateMutability": "nonpayable",
      "type": "function"
    },
    {
      "inputs": [
        {
          "internalType": "address",
          "name": "newOwner",
          "type": "address"
        }
      ],
      "name": "transferOwnership",
      "outputs": [],
      "stateMutability": "nonpayable",
      "type": "function"
    }
  ],
  "transactionHash": "0xda9472e83ecaa5cf0fc924f29be00685119ddf47f17377fe96cb705d86e7d922",
  "args": [
    30
  ],
  "numDeployments": 1,
  "solcInputHash": "7fedb94330c0b34888fcd936530c0f49",
  "bytecode": "0x60806040523461030b57604051601f61253738819003918201601f19168301916001600160401b0383118484101761030f5780849260209460405283398101031261030b575160017f9b779b17422d0df92223018b32b4d1fa46e071723d6817e2486d003becc55f005533156102f8575f8054336001600160a01b0319821681178355916001600160a01b03909116907f8be0079c531659141344cd1fd0a4f28419497f9722a3daafe3b4186f6b6457e09080a36100bb610342565b5046600103610214576100cc610342565b506100d5610323565b73ca2e8f1f656cd25c01f05d0b243ab1ecd4a8ffb6815273d82385dada1ae3e969447f20a3164f6213100e7560208201527377627828a55156b04ac0dc0eb30467f1a552bb0360408201525b80517f9e7b61f58c47dc699ac88507c4f5bb9f121c03808c5676a8078fe583e464970080546001600160a01b03199081166001600160a01b039384161790915560208301517f9e7b61f58c47dc699ac88507c4f5bb9f121c03808c5676a8078fe583e4649701805483169184169190911790556040909201517f9e7b61f58c47dc699ac88507c4f5bb9f121c03808c5676a8078fe583e4649702805490931691161790556103e881116101e0576002556040516121da908161035d8239f35b60405162461bcd60e51b815260206004820152600c60248201526b08ccaca40e8dede40d0d2ced60a31b6044820152606490fd5b4662aa36a70361027f57610226610342565b5061022f610323565b73f0ffdc93b7e186bc2f8cb3daa75d86d1930a433d81527392c920834ec8941d2c77d188936e1f7a6f49c127602082015273be0e383937d564d7ff0bc3b46c51f0bf8d5c311a6040820152610121565b46617a69036102e957610290610342565b50610299610323565b7350157cffd6bbfa2dece204a89ec419c23ef5755d815273e3a9105a3a932253a70f126eb1e3b589c643dd24602082015273901f8942346f7ab3a01f6d7613119bca447bb0306040820152610121565b6373cac13b60e01b5f5260045ffd5b631e4fbdf760e01b5f525f60045260245ffd5b5f80fd5b634e487b7160e01b5f52604160045260245ffd5b60405190606082016001600160401b0381118382101761030f57604052565b61034a610323565b905f82525f60208301525f604083015256fe6080806040526004361015610012575f80fd5b5f3560e01c908163068bcd8d146116cb575080631dc8e5631461116c57806324a9d8531461114f57806348ba88d61461110a578063506e751314610d79578063715018a614610d2257806372c27b6214610cb35780638927b03014610c915780638da5cb5b14610c6c5780639fe88da514610c26578063cc17e3eb146107dd578063e345b1f11461015a578063f2fde38b146100d75763f525cb68146100b6575f80fd5b346100d3575f3660031901126100d3576020600154604051908152f35b5f80fd5b346100d35760203660031901126100d3576001600160a01b036100f86117a3565b61010061203f565b168015610147576001600160a01b035f54826001600160a01b03198216175f55167f8be0079c531659141344cd1fd0a4f28419497f9722a3daafe3b4186f6b6457e05f80a3005b631e4fbdf760e01b5f525f60045260245ffd5b346100d35760a03660031901126100d35760043560243590811515918281036100d35760843567ffffffffffffffff81116100d35761019d903690600401611720565b90916101a7611931565b835f52600360205260405f206101c360ff6005830154166117b9565b81156107ca576001600160a01b038154165b82156107b9576001600160a01b03600183015416915b83156107ae576002810154935b801561079b576001600160a01b036003830154935b604051635b1b1e7960e11b8152336004820152306024820152911697906020816044818c5afa9081156105ab575f9161076c575b50156107275761026c6102749161026461025c368b846118eb565b60443561198f565b9836916118eb565b60643561198f565b9261027f8888611b71565b5060405163eb3155b560e01b8152336004820152306024820152604481018890526020816064815f8d5af180156105ab576106f8575b506002546127100361271081116106e4578788156106d0575b5f5160206121ae5f395f51905f5254604051630afe14ad60e31b8152600481019290925267ffffffffffffffff9092166024820152600160f81b6044820181905291602090829060649082905f906001600160a01b03165af19081156105ab575f9161069e575b505f9160209190811561068e575b6001600160a01b035f5160206121ae5f395f51905f52541690604051948580948193635a53accb60e01b8352604060048401606081019381526127108a820152015203925af180156105ab575f9061065a575b6103a09150611bef565b956103d86103ad86611bef565b6103d26103b984611bef565b996103cc6103c687611bef565b82611c97565b9a611eef565b90611c97565b871561064a575b8015610638575b60209060646001600160a01b035f5160206121ae5f395f51905f525416995f6040519b8c948593631391547f60e01b8552600485015260248401528160448401525af19687156105ab5788905f986105f6575b50946104a460036104ec965f99968b61047e6001600160a01b039861046d8961046760209f6104b49c611eef565b85611e50565b926104788983611fba565b90611e50565b918c146105e8576002830155828201555b61049c6002820154611f74565b500154611f74565b506104ad612094565b9088611e50565b9116906104c18282611b71565b50604051632df5f6bf60e11b8152336004820152602481019190915293849283919082906044820190565b03925af180156105ab576105b6575b505f9261051060209361051a93610478612094565b6104c18282611b71565b03925af180156105ab5761057c575b506040519182527fecfd2ee56615c4ebd622c951700026c7389ccd292da991a9648cc23a2edea54260203393a360017f9b779b17422d0df92223018b32b4d1fa46e071723d6817e2486d003becc55f0055005b6020813d6020116105a3575b8161059560209383611805565b810103126100d35751610529565b3d9150610588565b6040513d5f823e3d90fd5b926020843d6020116105e0575b816105d060209383611805565b810103126100d35792505f6104fb565b3d91506105c3565b83830155600282015561048f565b9192949693959750506020813d602011610630575b8161061860209383611805565b810103126100d357879051969492959391908c610439565b3d915061060b565b506020610643612094565b90506103e6565b9650610654612094565b966103df565b506020813d602011610686575b8161067460209383611805565b810103126100d3576103a09051610396565b3d9150610667565b9050610698612094565b90610343565b90506020813d6020116106c8575b816106b960209383611805565b810103126100d357515f610335565b3d91506106ac565b505f60206106dc612094565b9150506102ce565b634e487b7160e01b5f52601160045260245ffd5b6020813d60201161071f575b8161071160209383611805565b810103126100d357516102b5565b3d9150610704565b60405162461bcd60e51b815260206004820152601b60248201527f536574206f70657261746f72206f6e20696e70757420746f6b656e00000000006044820152606490fd5b61078e915060203d602011610794575b6107868183611805565b81019061183b565b8b610241565b503d61077c565b6001600160a01b0360028301549361020d565b6003810154936101f8565b6001600160a01b03825416916101eb565b6001600160a01b036001820154166101d5565b346100d35760a03660031901126100d3576107f66117a3565b6107fe61178d565b60843567ffffffffffffffff81116100d35761081e903690600401611720565b91610827611931565b6001600160a01b038116906001600160a01b03851692828414610be15783151580610bd8575b15610b9357604051635b1b1e7960e11b8152336004820152306024820152602081604481885afa80156105ab5761088b915f91610b74575b50611853565b604051635b1b1e7960e11b815233600482015230602482015290602082604481875afa9081156105ab576108cd61026c926108e3945f91610b55575b5061189f565b6108db61025c3689846118eb565b9636916118eb565b946108ee8186611b71565b5060405163eb3155b560e01b8152336004820152306024820152604481018690526020816064815f895af180156105ab57610b26575b5061092f8287611b71565b5060405163eb3155b560e01b8152336004820152306024820152604481018790526020816064815f885af180156105ab57610af7575b50600154945f1986146106e457610a1a8695610a136020997f1a7a1d16c3ec9167827a7be3534be26288720a0bdd3de56d290f415db3d3e0a69760018a01600155895f5260038c526001600160a01b0360405f2094166001600160a01b03198554161784556001600160a01b036001850191166001600160a01b0319825416179055846002840155600383019081556005600484019386855501600160ff19825416179055610a1385611f74565b5054611f74565b50845f526004875260405f206001600160a01b0333165f52875260405f2055835f526004865260405f206001600160a01b0333165f528652610a5f60405f2054611f74565b50835f526004865260405f206001600160a01b0333165f528652610a8860405f20339054611f93565b50604080516001600160a01b03928316815292909116602083015290a26040519033817f71e08e60a6135c7d231e95d525019e0473070c375b5449a8a4aa5d50040a947c5f80a360017f9b779b17422d0df92223018b32b4d1fa46e071723d6817e2486d003becc55f00558152f35b6020813d602011610b1e575b81610b1060209383611805565b810103126100d35751610965565b3d9150610b03565b6020813d602011610b4d575b81610b3f60209383611805565b810103126100d35751610924565b3d9150610b32565b610b6e915060203d602011610794576107868183611805565b8a6108c7565b610b8d915060203d602011610794576107868183611805565b88610885565b60405162461bcd60e51b815260206004820152600c60248201527f5a65726f206164647265737300000000000000000000000000000000000000006044820152606490fd5b5082151561084d565b60405162461bcd60e51b815260206004820152600a60248201527f53616d6520746f6b656e000000000000000000000000000000000000000000006044820152606490fd5b346100d35760203660031901126100d3576004355f5260036020526040805f20610c5660ff6005830154166117b9565b6003600282015491015482519182526020820152f35b346100d3575f3660031901126100d35760206001600160a01b035f5416604051908152f35b346100d3575f3660031901126100d3576020610cab612065565b604051908152f35b346100d35760203660031901126100d357600435610ccf61203f565b6103e88111610cdd57600255005b60405162461bcd60e51b815260206004820152600c60248201527f46656520746f6f206869676800000000000000000000000000000000000000006044820152606490fd5b346100d3575f3660031901126100d357610d3a61203f565b5f6001600160a01b0381546001600160a01b031981168355167f8be0079c531659141344cd1fd0a4f28419497f9722a3daafe3b4186f6b6457e08280a3005b346100d357610d873661174e565b93929190610d93611931565b855f52600360205260405f2093600585015460ff16610db1906117b9565b610dbc3687846118eb565b610dc59161198f565b92610dd13687846118eb565b610dda9161198f565b943690610de6926118eb565b610def9161198f565b92610df981611bef565b610e0285611bef565b60048501918254610e1290611bef565b60028701918254610e2290611bef565b6003890194838654610e3390611bef565b92610e3d8b611bef565b948592610e4991611c97565b91610e5391611c97565b610e5c91611d44565b93610e6691611c97565b91610e7091611c97565b610e7991611d44565b610e8291611dc9565b94610e8b612094565b610e96908288611e50565b895f52600460205260405f20336001600160a01b03165f5260205260405f205490610ec091611fba565b5f8a81526004602090815260408083203384529091529020819055610ee490611f74565b50885f52600460205260405f20336001600160a01b03165f5260205260405f2033905490610f1191611f93565b5084825490610f1f91611fba565b8254610f2b9188611e50565b825587835490610f3a91611fba565b8354610f469188611e50565b8355835490610f5491611fba565b8354610f609187611e50565b835554610f6c90611f74565b5054610f7790611f74565b5054610f8290611f74565b50610f8b612094565b610f959183611e50565b92610f9e612094565b90610fa892611e50565b9181546001600160a01b0316610fbe9082611b71565b508154604051632df5f6bf60e11b815233600482015260248101929092526001600160a01b0316816044815a6020945f91f180156105ab576110d8575b5061104d5f926001600160a01b0360016020940161101c8282541684611b71565b5054604051632df5f6bf60e11b81523360048201526024810193909352919485939190921691839182906044820190565b03925af180156105ab576110a9575b5033907f17a63db1a9a8665c388fd097b279eb78a8145c270157a550a610252132edbebe5f80a360017f9b779b17422d0df92223018b32b4d1fa46e071723d6817e2486d003becc55f0055005b6020813d6020116110d0575b816110c260209383611805565b810103126100d3575161105c565b3d91506110b5565b6020813d602011611102575b816110f160209383611805565b810103126100d3575061104d610ffb565b3d91506110e4565b346100d35760403660031901126100d35761112361178d565b6004355f5260046020526001600160a01b0360405f2091165f52602052602060405f2054604051908152f35b346100d3575f3660031901126100d3576020600254604051908152f35b346100d35761117a3661174e565b9190611187949394611931565b855f52600360205260405f20916111a460ff6005850154166117b9565b8254604051635b1b1e7960e11b815233600482015230602482015290602090829060449082906001600160a01b03165afa80156105ab576111eb915f916116ac5750611853565b600183018054604051635b1b1e7960e11b81523360048201523060248201529196919390602090859060449082906001600160a01b03165afa9384156105ab5761125a6112549361124961126e97611266945f9161168d575061189f565b611254368a866118eb565b9061198f565b986112543689856118eb565b9536916118eb565b6112826001600160a01b0383541686611b71565b50815460405163eb3155b560e01b81523360048201523060248201526044810187905290602090829060649082905f906001600160a01b03165af180156105ab5761165e575b506112dd6001600160a01b0385541684611b71565b50835460405163eb3155b560e01b81523360048201523060248201526044810185905290602090829060649082905f906001600160a01b03165af180156105ab5761162f575b5061132d81611bef565b6002830190815461133d90611bef565b916003850191825461134e90611bef565b906113588a611bef565b9061136289611bef565b906004890196875461137390611bef565b9361137f859284611c97565b9161138991611c97565b61139291611d44565b9361139c91611c97565b916113a691611c97565b6113af91611d44565b6113b891611dc9565b936113c1612094565b6113cb9186611e50565b93886113d5612094565b906113e09183611e50565b96806113ea612094565b906113f59184611e50565b9983549061140291611eef565b835461140e9184611e50565b835583549061141c91611eef565b83546114289183611e50565b83558484549061143791611eef565b84549061144392611e50565b83555461144f90611f74565b505461145a90611f74565b505461146590611f74565b50855f52600460205260405f20336001600160a01b03165f5260205260405f205415155f14926001600160a01b03602093611527935f96611613576114c0908a88526004875260408820843316895287526040882054611eef565b89875260048652604087208333168852865260408720555b8886526004855260408620823316875285526114f76040872054611f74565b5088865260048552604086208233168752855261151960408720339054611f93565b5061101c8282541684611b71565b03925af180156105ab576115df575b506115545f926001600160a01b038361101c82602096541684611b71565b03925af180156105ab576115b0575b5033907f71e08e60a6135c7d231e95d525019e0473070c375b5449a8a4aa5d50040a947c5f80a360017f9b779b17422d0df92223018b32b4d1fa46e071723d6817e2486d003becc55f0055005b6020813d6020116115d7575b816115c960209383611805565b810103126100d35751611563565b3d91506115bc565b906020823d60201161160b575b816115f960209383611805565b810103126100d3579050611554611536565b3d91506115ec565b89875260048652604087208333168852865260408720556114d8565b6020813d602011611656575b8161164860209383611805565b810103126100d35751611323565b3d915061163b565b6020813d602011611685575b8161167760209383611805565b810103126100d357516112c8565b3d915061166a565b6116a6915060203d602011610794576107868183611805565b8e6108c7565b6116c5915060203d602011610794576107868183611805565b89610885565b346100d35760203660031901126100d3576060906004355f52600360205260405f206001600160a01b038154169060ff60056001600160a01b0360018401541692015416918352602083015215156040820152f35b9181601f840112156100d35782359167ffffffffffffffff83116100d357602083818601950101116100d357565b60a06003198201126100d357600435916024359160443591606435916084359067ffffffffffffffff82116100d35761178991600401611720565b9091565b602435906001600160a01b03821682036100d357565b600435906001600160a01b03821682036100d357565b156117c057565b60405162461bcd60e51b815260206004820152600e60248201527f506f6f6c206e6f7420666f756e640000000000000000000000000000000000006044820152606490fd5b90601f8019910116810190811067ffffffffffffffff82111761182757604052565b634e487b7160e01b5f52604160045260245ffd5b908160209103126100d3575180151581036100d35790565b1561185a57565b60405162461bcd60e51b815260206004820152601660248201527f536574206f70657261746f72206f6e20746f6b656e41000000000000000000006044820152606490fd5b156118a657565b60405162461bcd60e51b815260206004820152601660248201527f536574206f70657261746f72206f6e20746f6b656e42000000000000000000006044820152606490fd5b92919267ffffffffffffffff82116118275760405191611915601f8201601f191660200184611805565b8294818452818301116100d3578281602093845f960137010152565b60027f9b779b17422d0df92223018b32b4d1fa46e071723d6817e2486d003becc55f0054146119805760027f9b779b17422d0df92223018b32b4d1fa46e071723d6817e2486d003becc55f0055565b633ee5aeb560e01b5f5260045ffd5b815115611ac25760209182916001600160a01b035f5160206121ae5f395f51905f525416905f60a460405180978196829563045fc19560e11b84526004840152336024840152608060448401528051918291826084860152018484015e818101830184905260056064830152601f01601f191681010301925af19081156105ab575f91611a90575b506001600160a01b037f9e7b61f58c47dc699ac88507c4f5bb9f121c03808c5676a8078fe583e46497005416803b156100d357604051630f8e573b60e21b815260048101839052336024820152905f908290818381604481015b03925af180156105ab57611a83575090565b5f611a8d91611805565b90565b90506020813d602011611aba575b81611aab60209383611805565b810103126100d357515f611a17565b3d9150611a9e565b80915015611b68577f9e7b61f58c47dc699ac88507c4f5bb9f121c03808c5676a8078fe583e4649700546040516382027b6d60e01b81526004810183905233602482015290602090829060449082906001600160a01b03165afa9081156105ab575f91611b49575b5015611b335790565b630276b5d960e01b5f526004523360245260445ffd5b611b62915060203d602011610794576107868183611805565b5f611b2a565b50611a8d612094565b908115611bdf575b6001600160a01b037f9e7b61f58c47dc699ac88507c4f5bb9f121c03808c5676a8078fe583e46497005416803b156100d357604051630f8e573b60e21b8152600481018490526001600160a01b0390921660248301525f90829081838160448101611a71565b9050611be9612094565b90611b79565b8015611c83575b5f5160206121ae5f395f51905f5254604051635a53accb60e01b815260048101929092526103e86024830152600160f81b6044830152602090829060649082905f906001600160a01b03165af19081156105ab575f91611c54575090565b90506020813d602011611c7b575b81611c6f60209383611805565b810103126100d3575190565b3d9150611c62565b505f6020611c8f612094565b915050611bf6565b6020905f928115611d34575b8015611d26575b5f5160206121ae5f395f51905f5254604051630afe14ad60e31b8152600480820194909452848101909301919091527fff00000000000000000000000000000000000000000000000000000000000000841660448301529092839160649183916001600160a01b03165af19081156105ab575f91611c54575090565b50611d2f612094565b611caa565b9050611d3e612094565b90611ca3565b908115611db9575b8015611da7575b60209060646001600160a01b035f5160206121ae5f395f51905f525416935f6040519586948593631d44e90160e21b8552600485015260248401528160448401525af19081156105ab575f91611c54575090565b506020611db2612094565b9050611d53565b9050611dc3612094565b90611d4c565b908115611e3f575b8015611e2c575b60209060646001600160a01b035f5160206121ae5f395f51905f525416935f604051958694859363d99882d560e01b8552600485015260248401528160448401525af19081156105ab575f91611c54575090565b506020611e385f6120e2565b9050611dd8565b9050611e4a5f6120e2565b90611dd1565b91908215611ede575b8015611ed0575b8115611eba575b6064602092935f6001600160a01b035f5160206121ae5f395f51905f5254166040519687958694637702dcff60e01b86526004860152602485015260448401525af19081156105ab575f91611c54575090565b602091506064611ec8612094565b925050611e67565b50611ed9612094565b611e60565b9150611ee95f6120e2565b91611e59565b908115611f64575b8015611f52575b60209060646001600160a01b035f5160206121ae5f395f51905f525416935f604051958694859363022f65e760e31b8552600485015260248401528160448401525af19081156105ab575f91611c54575090565b506020611f5d612094565b9050611efe565b9050611f6e612094565b90611ef7565b8015611f85575b611a8d3082612130565b50611f8e612094565b611f7b565b908115611fa5575b611a8d9082612130565b9050611a8d611fb2612094565b919050611f9b565b90811561202f575b801561201d575b60209060646001600160a01b035f5160206121ae5f395f51905f525416935f60405195869485936303056db360e31b8552600485015260248401528160448401525af19081156105ab575f91611c54575090565b506020612028612094565b9050611fc9565b9050612039612094565b90611fc2565b6001600160a01b035f5416330361205257565b63118cdaa760e01b5f523360045260245ffd5b4660010361207257600190565b4662aa36a7036120825761271190565b617a69461461208f575f90565b5f1990565b5f5160206121ae5f395f51905f5254604051639cd07acb60e01b81525f6004820152906001600160a01b0316816044815f602094600560248401525af19081156105ab575f91611c54575090565b5f5160206121ae5f395f51905f5254604051639cd07acb60e01b815260048101929092526001600160a01b0316816044815f6020948160248401525af19081156105ab575f91611c54575090565b6001600160a01b037f9e7b61f58c47dc699ac88507c4f5bb9f121c03808c5676a8078fe583e4649700541691823b156100d357604051635ca4b5b160e11b815260048101929092526001600160a01b03166024820152905f908290604490829084905af180156105ab576121a15750565b5f6121ab91611805565b56fe9e7b61f58c47dc699ac88507c4f5bb9f121c03808c5676a8078fe583e4649701a164736f6c634300081b000a",
  "devdoc": {
    "errors": {
      "OwnableInvalidOwner(address)": [
        {
          "details": "The owner is not a valid owner account. (eg. `address(0)`)"
        }
      ],
      "OwnableUnauthorizedAccount(address)": [
        {
          "details": "The caller account is not authorized to perform an operation."
        }
      ],
      "ReentrancyGuardReentrantCall()": [
        {
          "details": "Unauthorized reentrant call."
        }
      ]
    },
    "kind": "dev",
    "methods": {
      "addLiquidity(uint256,bytes32,bytes32,bytes32,bytes)": {
        "details": "User submits amountA, amountB, and desiredLP (all encrypted).      Contract verifies proportionality via cross-multiplication:        desiredLP * reserveA <= amountA * totalLP        desiredLP * reserveB <= amountB * totalLP      If invalid, the user is refunded and gets 0 LP shares."
      },
      "createPool(address,address,bytes32,bytes32,bytes)": {
        "details": "Both tokens must have setOperator(darkdex, expiration) called by msg.sender.      First LP receives LP shares = amountA (arbitrary but deterministic).",
        "params": {
          "encAmountA": "Encrypted amount of tokenA to deposit",
          "encAmountB": "Encrypted amount of tokenB to deposit",
          "inputProof": "Shared proof for both encrypted inputs",
          "tokenA": "Address of the first confidential token (ERC-7984)",
          "tokenB": "Address of the second confidential token (ERC-7984)"
        }
      },
      "owner()": {
        "details": "Returns the address of the current owner."
      },
      "removeLiquidity(uint256,bytes32,bytes32,bytes32,bytes)": {
        "details": "User submits lpAmount, expectedA, expectedB (all encrypted).      Contract verifies: expectedA * totalLP <= reserveA * lpAmount (scaled)      If valid, tokens are sent. If invalid, LP shares are returned."
      },
      "renounceOwnership()": {
        "details": "Leaves the contract without owner. It will not be possible to call `onlyOwner` functions. Can only be called by the current owner. NOTE: Renouncing ownership will leave the contract without an owner, thereby disabling any functionality that is only available to the owner."
      },
      "swap(uint256,bool,bytes32,bytes32,bytes)": {
        "details": "User submits amountIn and expectedAmountOut (encrypted).      Contract verifies constant product invariant (rearranged, scaled):        amountInAfterFee * reserveOut >= amountOut * (reserveIn + amountInAfterFee)      If invalid, input is refunded and no output is sent.",
        "params": {
          "aToB": "True = sell tokenA for tokenB, false = sell tokenB for tokenA",
          "encAmountIn": "Encrypted input amount",
          "encExpectedOut": "Encrypted expected output amount",
          "inputProof": "Shared proof for both encrypted inputs",
          "poolId": "The pool to swap in"
        }
      },
      "transferOwnership(address)": {
        "details": "Transfers ownership of the contract to a new account (`newOwner`). Can only be called by the current owner."
      }
    },
    "stateVariables": {
      "SCALE": {
        "details": "Scale factor for invariant checks to prevent euint64 overflow.      With SCALE=1e3 and 6-decimal tokens, products stay under ~1e18."
      }
    },
    "title": "DarkDEX — Encrypted AMM with FHE",
    "version": 1
  },
  "userdoc": {
    "errors": {
      "SenderNotAllowedToUseHandle(bytes32,address)": [
        {
          "notice": "Returned if the sender is not allowed to use the handle."
        }
      ],
      "ZamaProtocolUnsupported()": [
        {
          "notice": "Returned if the Zama protocol is not supported on the current chain"
        }
      ]
    },
    "kind": "user",
    "methods": {
      "addLiquidity(uint256,bytes32,bytes32,bytes32,bytes)": {
        "notice": "Add liquidity to an existing pool."
      },
      "createPool(address,address,bytes32,bytes32,bytes)": {
        "notice": "Create a new liquidity pool. First LP sets the initial price ratio."
      },
      "removeLiquidity(uint256,bytes32,bytes32,bytes32,bytes)": {
        "notice": "Remove liquidity from a pool."
      },
      "swap(uint256,bool,bytes32,bytes32,bytes)": {
        "notice": "Swap tokens in a pool."
      }
    },
    "notice": "A constant-product AMM where all amounts (reserves, swaps, LP shares)         are encrypted via FHE. Nobody can see pool sizes, swap amounts, or LP positions. Design:   - Uses ERC-7984 confidential tokens (cUSDC, cWETH, etc.)   - Constant product invariant verified via multiplication (no division)   - All values scaled by SCALE before invariant checks to prevent euint64 overflow   - Self-settling: no keeper needed, any interaction triggers pending settlements Limitations (v1):   - euint64 overflow limits practical pool size to ~4M tokens per side (6 decimals)   - SCALE=1e3 gives 0.001 token precision for invariant checks   - Invalid swaps are silently refunded (user checks balance to confirm)",
    "version": 1
  },
  "storageLayout": {
    "storage": [
      {
        "astId": 42164,
        "contract": "contracts/dex/DarkDEX.sol:DarkDEX",
        "label": "_owner",
        "offset": 0,
        "slot": "0",
        "type": "t_address"
      },
      {
        "astId": 45243,
        "contract": "contracts/dex/DarkDEX.sol:DarkDEX",
        "label": "poolCount",
        "offset": 0,
        "slot": "1",
        "type": "t_uint256"
      },
      {
        "astId": 45245,
        "contract": "contracts/dex/DarkDEX.sol:DarkDEX",
        "label": "feeBps",
        "offset": 0,
        "slot": "2",
        "type": "t_uint256"
      },
      {
        "astId": 45250,
        "contract": "contracts/dex/DarkDEX.sol:DarkDEX",
        "label": "_pools",
        "offset": 0,
        "slot": "3",
        "type": "t_mapping(t_uint256,t_struct(Pool)45241_storage)"
      },
      {
        "astId": 45257,
        "contract": "contracts/dex/DarkDEX.sol:DarkDEX",
        "label": "_lpBalances",
        "offset": 0,
        "slot": "4",
        "type": "t_mapping(t_uint256,t_mapping(t_address,t_userDefinedValueType(euint64)48221))"
      }
    ],
    "types": {
      "t_address": {
        "encoding": "inplace",
        "label": "address",
        "numberOfBytes": "20"
      },
      "t_bool": {
        "encoding": "inplace",
        "label": "bool",
        "numberOfBytes": "1"
      },
      "t_contract(IERC7984)45212": {
        "encoding": "inplace",
        "label": "contract IERC7984",
        "numberOfBytes": "20"
      },
      "t_mapping(t_address,t_userDefinedValueType(euint64)48221)": {
        "encoding": "mapping",
        "key": "t_address",
        "label": "mapping(address => euint64)",
        "numberOfBytes": "32",
        "value": "t_userDefinedValueType(euint64)48221"
      },
      "t_mapping(t_uint256,t_mapping(t_address,t_userDefinedValueType(euint64)48221))": {
        "encoding": "mapping",
        "key": "t_uint256",
        "label": "mapping(uint256 => mapping(address => euint64))",
        "numberOfBytes": "32",
        "value": "t_mapping(t_address,t_userDefinedValueType(euint64)48221)"
      },
      "t_mapping(t_uint256,t_struct(Pool)45241_storage)": {
        "encoding": "mapping",
        "key": "t_uint256",
        "label": "mapping(uint256 => struct DarkDEX.Pool)",
        "numberOfBytes": "32",
        "value": "t_struct(Pool)45241_storage"
      },
      "t_struct(Pool)45241_storage": {
        "encoding": "inplace",
        "label": "struct DarkDEX.Pool",
        "members": [
          {
            "astId": 45226,
            "contract": "contracts/dex/DarkDEX.sol:DarkDEX",
            "label": "tokenA",
            "offset": 0,
            "slot": "0",
            "type": "t_contract(IERC7984)45212"
          },
          {
            "astId": 45229,
            "contract": "contracts/dex/DarkDEX.sol:DarkDEX",
            "label": "tokenB",
            "offset": 0,
            "slot": "1",
            "type": "t_contract(IERC7984)45212"
          },
          {
            "astId": 45232,
            "contract": "contracts/dex/DarkDEX.sol:DarkDEX",
            "label": "reserveA",
            "offset": 0,
            "slot": "2",
            "type": "t_userDefinedValueType(euint64)48221"
          },
          {
            "astId": 45235,
            "contract": "contracts/dex/DarkDEX.sol:DarkDEX",
            "label": "reserveB",
            "offset": 0,
            "slot": "3",
            "type": "t_userDefinedValueType(euint64)48221"
          },
          {
            "astId": 45238,
            "contract": "contracts/dex/DarkDEX.sol:DarkDEX",
            "label": "totalLP",
            "offset": 0,
            "slot": "4",
            "type": "t_userDefinedValueType(euint64)48221"
          },
          {
            "astId": 45240,
            "contract": "contracts/dex/DarkDEX.sol:DarkDEX",
            "label": "exists",
            "offset": 0,
            "slot": "5",
            "type": "t_bool"
          }
        ],
        "numberOfBytes": "192"
      },
      "t_uint256": {
        "encoding": "inplace",
        "label": "uint256",
        "numberOfBytes": "32"
      },
      "t_userDefinedValueType(euint64)48221": {
        "encoding": "inplace",
        "label": "euint64",
        "numberOfBytes": "32"
      }
    }
  }
}