{
  "address": "0x4D596798c89751464f1506982d21cA88a31F59D6",
  "abi": [
    {
      "inputs": [
        {
          "internalType": "address",
          "name": "_router",
          "type": "address"
        },
        {
          "internalType": "address",
          "name": "_cToken",
          "type": "address"
        },
        {
          "internalType": "address",
          "name": "_treasury",
          "type": "address"
        },
        {
          "internalType": "uint256",
          "name": "_feeBps",
          "type": "uint256"
        },
        {
          "internalType": "bytes32",
          "name": "_donId",
          "type": "bytes32"
        },
        {
          "internalType": "uint64",
          "name": "_subscriptionId",
          "type": "uint64"
        }
      ],
      "stateMutability": "nonpayable",
      "type": "constructor"
    },
    {
      "inputs": [],
      "name": "EmptyArgs",
      "type": "error"
    },
    {
      "inputs": [],
      "name": "EmptySource",
      "type": "error"
    },
    {
      "inputs": [],
      "name": "EnforcedPause",
      "type": "error"
    },
    {
      "inputs": [],
      "name": "ExpectedPause",
      "type": "error"
    },
    {
      "inputs": [],
      "name": "NoInlineSecrets",
      "type": "error"
    },
    {
      "inputs": [],
      "name": "OnlyRouterCanFulfill",
      "type": "error"
    },
    {
      "inputs": [
        {
          "internalType": "address",
          "name": "owner",
          "type": "address"
        }
      ],
      "name": "OwnableInvalidOwner",
      "type": "error"
    },
    {
      "inputs": [
        {
          "internalType": "address",
          "name": "account",
          "type": "address"
        }
      ],
      "name": "OwnableUnauthorizedAccount",
      "type": "error"
    },
    {
      "inputs": [],
      "name": "ReentrancyGuardReentrantCall",
      "type": "error"
    },
    {
      "inputs": [
        {
          "internalType": "bytes32",
          "name": "handle",
          "type": "bytes32"
        },
        {
          "internalType": "address",
          "name": "sender",
          "type": "address"
        }
      ],
      "name": "SenderNotAllowedToUseHandle",
      "type": "error"
    },
    {
      "inputs": [],
      "name": "ZamaProtocolUnsupported",
      "type": "error"
    },
    {
      "anonymous": false,
      "inputs": [
        {
          "indexed": true,
          "internalType": "uint256",
          "name": "bountyId",
          "type": "uint256"
        },
        {
          "indexed": false,
          "internalType": "uint256",
          "name": "timestamp",
          "type": "uint256"
        }
      ],
      "name": "BountyCancelled",
      "type": "event"
    },
    {
      "anonymous": false,
      "inputs": [
        {
          "indexed": true,
          "internalType": "uint256",
          "name": "bountyId",
          "type": "uint256"
        },
        {
          "indexed": false,
          "internalType": "string",
          "name": "repoOwner",
          "type": "string"
        },
        {
          "indexed": false,
          "internalType": "string",
          "name": "repoName",
          "type": "string"
        },
        {
          "indexed": false,
          "internalType": "uint64",
          "name": "issueNumber",
          "type": "uint64"
        },
        {
          "indexed": false,
          "internalType": "uint256",
          "name": "timestamp",
          "type": "uint256"
        }
      ],
      "name": "BountyCreated",
      "type": "event"
    },
    {
      "anonymous": false,
      "inputs": [
        {
          "indexed": true,
          "internalType": "uint256",
          "name": "bountyId",
          "type": "uint256"
        },
        {
          "indexed": true,
          "internalType": "address",
          "name": "developer",
          "type": "address"
        },
        {
          "indexed": false,
          "internalType": "uint256",
          "name": "timestamp",
          "type": "uint256"
        }
      ],
      "name": "BountyPaid",
      "type": "event"
    },
    {
      "anonymous": false,
      "inputs": [
        {
          "indexed": true,
          "internalType": "uint256",
          "name": "bountyId",
          "type": "uint256"
        },
        {
          "indexed": true,
          "internalType": "address",
          "name": "developer",
          "type": "address"
        },
        {
          "indexed": false,
          "internalType": "uint256",
          "name": "timestamp",
          "type": "uint256"
        }
      ],
      "name": "BountyVerified",
      "type": "event"
    },
    {
      "anonymous": false,
      "inputs": [
        {
          "indexed": true,
          "internalType": "uint256",
          "name": "bountyId",
          "type": "uint256"
        },
        {
          "indexed": true,
          "internalType": "bytes32",
          "name": "requestId",
          "type": "bytes32"
        },
        {
          "indexed": false,
          "internalType": "string",
          "name": "reason",
          "type": "string"
        }
      ],
      "name": "ClaimFailed",
      "type": "event"
    },
    {
      "anonymous": false,
      "inputs": [
        {
          "indexed": true,
          "internalType": "uint256",
          "name": "bountyId",
          "type": "uint256"
        },
        {
          "indexed": true,
          "internalType": "bytes32",
          "name": "requestId",
          "type": "bytes32"
        },
        {
          "indexed": false,
          "internalType": "uint64",
          "name": "prNumber",
          "type": "uint64"
        },
        {
          "indexed": false,
          "internalType": "uint256",
          "name": "timestamp",
          "type": "uint256"
        }
      ],
      "name": "ClaimRequested",
      "type": "event"
    },
    {
      "anonymous": false,
      "inputs": [
        {
          "indexed": true,
          "internalType": "address",
          "name": "dev",
          "type": "address"
        },
        {
          "indexed": false,
          "internalType": "string",
          "name": "githubUsername",
          "type": "string"
        }
      ],
      "name": "DevRegistered",
      "type": "event"
    },
    {
      "anonymous": false,
      "inputs": [
        {
          "indexed": true,
          "internalType": "address",
          "name": "dev",
          "type": "address"
        },
        {
          "indexed": true,
          "internalType": "bytes32",
          "name": "requestId",
          "type": "bytes32"
        },
        {
          "indexed": false,
          "internalType": "string",
          "name": "reason",
          "type": "string"
        }
      ],
      "name": "DevRegistrationFailed",
      "type": "event"
    },
    {
      "anonymous": false,
      "inputs": [
        {
          "indexed": true,
          "internalType": "address",
          "name": "dev",
          "type": "address"
        },
        {
          "indexed": false,
          "internalType": "string",
          "name": "githubUsername",
          "type": "string"
        },
        {
          "indexed": true,
          "internalType": "bytes32",
          "name": "requestId",
          "type": "bytes32"
        }
      ],
      "name": "DevRegistrationRequested",
      "type": "event"
    },
    {
      "anonymous": false,
      "inputs": [
        {
          "indexed": false,
          "internalType": "uint256",
          "name": "newFeeBps",
          "type": "uint256"
        }
      ],
      "name": "FeeChangeExecuted",
      "type": "event"
    },
    {
      "anonymous": false,
      "inputs": [
        {
          "indexed": false,
          "internalType": "uint256",
          "name": "newFeeBps",
          "type": "uint256"
        },
        {
          "indexed": false,
          "internalType": "uint256",
          "name": "executeAfter",
          "type": "uint256"
        }
      ],
      "name": "FeeChangeProposed",
      "type": "event"
    },
    {
      "anonymous": false,
      "inputs": [
        {
          "indexed": true,
          "internalType": "address",
          "name": "treasury",
          "type": "address"
        }
      ],
      "name": "FeesCollected",
      "type": "event"
    },
    {
      "anonymous": false,
      "inputs": [
        {
          "indexed": true,
          "internalType": "address",
          "name": "previousOwner",
          "type": "address"
        },
        {
          "indexed": true,
          "internalType": "address",
          "name": "newOwner",
          "type": "address"
        }
      ],
      "name": "OwnershipTransferStarted",
      "type": "event"
    },
    {
      "anonymous": false,
      "inputs": [
        {
          "indexed": true,
          "internalType": "address",
          "name": "previousOwner",
          "type": "address"
        },
        {
          "indexed": true,
          "internalType": "address",
          "name": "newOwner",
          "type": "address"
        }
      ],
      "name": "OwnershipTransferred",
      "type": "event"
    },
    {
      "anonymous": false,
      "inputs": [
        {
          "indexed": false,
          "internalType": "address",
          "name": "account",
          "type": "address"
        }
      ],
      "name": "Paused",
      "type": "event"
    },
    {
      "anonymous": false,
      "inputs": [
        {
          "indexed": true,
          "internalType": "bytes32",
          "name": "id",
          "type": "bytes32"
        }
      ],
      "name": "RequestFulfilled",
      "type": "event"
    },
    {
      "anonymous": false,
      "inputs": [
        {
          "indexed": true,
          "internalType": "bytes32",
          "name": "id",
          "type": "bytes32"
        }
      ],
      "name": "RequestSent",
      "type": "event"
    },
    {
      "anonymous": false,
      "inputs": [
        {
          "indexed": false,
          "internalType": "uint8",
          "name": "slotId",
          "type": "uint8"
        },
        {
          "indexed": false,
          "internalType": "uint64",
          "name": "version",
          "type": "uint64"
        },
        {
          "indexed": false,
          "internalType": "uint256",
          "name": "expiration",
          "type": "uint256"
        }
      ],
      "name": "SecretsUpdated",
      "type": "event"
    },
    {
      "anonymous": false,
      "inputs": [
        {
          "indexed": false,
          "internalType": "string",
          "name": "sourceType",
          "type": "string"
        }
      ],
      "name": "SourceChangeCancelled",
      "type": "event"
    },
    {
      "anonymous": false,
      "inputs": [
        {
          "indexed": false,
          "internalType": "string",
          "name": "sourceType",
          "type": "string"
        },
        {
          "indexed": false,
          "internalType": "uint256",
          "name": "timestamp",
          "type": "uint256"
        }
      ],
      "name": "SourceChangeExecuted",
      "type": "event"
    },
    {
      "anonymous": false,
      "inputs": [
        {
          "indexed": false,
          "internalType": "string",
          "name": "sourceType",
          "type": "string"
        },
        {
          "indexed": true,
          "internalType": "bytes32",
          "name": "sourceHash",
          "type": "bytes32"
        },
        {
          "indexed": false,
          "internalType": "uint256",
          "name": "executeAfter",
          "type": "uint256"
        }
      ],
      "name": "SourceChangeProposed",
      "type": "event"
    },
    {
      "anonymous": false,
      "inputs": [
        {
          "indexed": false,
          "internalType": "address",
          "name": "newTreasury",
          "type": "address"
        }
      ],
      "name": "TreasuryChangeExecuted",
      "type": "event"
    },
    {
      "anonymous": false,
      "inputs": [
        {
          "indexed": false,
          "internalType": "address",
          "name": "newTreasury",
          "type": "address"
        },
        {
          "indexed": false,
          "internalType": "uint256",
          "name": "executeAfter",
          "type": "uint256"
        }
      ],
      "name": "TreasuryChangeProposed",
      "type": "event"
    },
    {
      "anonymous": false,
      "inputs": [
        {
          "indexed": false,
          "internalType": "address",
          "name": "account",
          "type": "address"
        }
      ],
      "name": "Unpaused",
      "type": "event"
    },
    {
      "inputs": [],
      "name": "ADMIN_TIMELOCK",
      "outputs": [
        {
          "internalType": "uint256",
          "name": "",
          "type": "uint256"
        }
      ],
      "stateMutability": "view",
      "type": "function"
    },
    {
      "inputs": [],
      "name": "MAX_FEE_BPS",
      "outputs": [
        {
          "internalType": "uint256",
          "name": "",
          "type": "uint256"
        }
      ],
      "stateMutability": "view",
      "type": "function"
    },
    {
      "inputs": [],
      "name": "MAX_REPO_LENGTH",
      "outputs": [
        {
          "internalType": "uint256",
          "name": "",
          "type": "uint256"
        }
      ],
      "stateMutability": "view",
      "type": "function"
    },
    {
      "inputs": [],
      "name": "MAX_USERNAME_LENGTH",
      "outputs": [
        {
          "internalType": "uint256",
          "name": "",
          "type": "uint256"
        }
      ],
      "stateMutability": "view",
      "type": "function"
    },
    {
      "inputs": [],
      "name": "SOURCE_TIMELOCK",
      "outputs": [
        {
          "internalType": "uint256",
          "name": "",
          "type": "uint256"
        }
      ],
      "stateMutability": "view",
      "type": "function"
    },
    {
      "inputs": [],
      "name": "acceptOwnership",
      "outputs": [],
      "stateMutability": "nonpayable",
      "type": "function"
    },
    {
      "inputs": [],
      "name": "bountyCount",
      "outputs": [
        {
          "internalType": "uint256",
          "name": "",
          "type": "uint256"
        }
      ],
      "stateMutability": "view",
      "type": "function"
    },
    {
      "inputs": [],
      "name": "cToken",
      "outputs": [
        {
          "internalType": "contract IConfidentialToken",
          "name": "",
          "type": "address"
        }
      ],
      "stateMutability": "view",
      "type": "function"
    },
    {
      "inputs": [],
      "name": "callbackGasLimit",
      "outputs": [
        {
          "internalType": "uint32",
          "name": "",
          "type": "uint32"
        }
      ],
      "stateMutability": "view",
      "type": "function"
    },
    {
      "inputs": [
        {
          "internalType": "uint256",
          "name": "bountyId",
          "type": "uint256"
        }
      ],
      "name": "cancelBounty",
      "outputs": [],
      "stateMutability": "nonpayable",
      "type": "function"
    },
    {
      "inputs": [],
      "name": "cancelClaimSource",
      "outputs": [],
      "stateMutability": "nonpayable",
      "type": "function"
    },
    {
      "inputs": [],
      "name": "cancelGistSource",
      "outputs": [],
      "stateMutability": "nonpayable",
      "type": "function"
    },
    {
      "inputs": [
        {
          "internalType": "uint256",
          "name": "bountyId",
          "type": "uint256"
        },
        {
          "internalType": "uint64",
          "name": "prNumber",
          "type": "uint64"
        }
      ],
      "name": "claimBounty",
      "outputs": [
        {
          "internalType": "bytes32",
          "name": "requestId",
          "type": "bytes32"
        }
      ],
      "stateMutability": "nonpayable",
      "type": "function"
    },
    {
      "inputs": [],
      "name": "claimProtocolFees",
      "outputs": [],
      "stateMutability": "nonpayable",
      "type": "function"
    },
    {
      "inputs": [],
      "name": "claimVerificationSource",
      "outputs": [
        {
          "internalType": "string",
          "name": "",
          "type": "string"
        }
      ],
      "stateMutability": "view",
      "type": "function"
    },
    {
      "inputs": [],
      "name": "confidentialProtocolId",
      "outputs": [
        {
          "internalType": "uint256",
          "name": "",
          "type": "uint256"
        }
      ],
      "stateMutability": "view",
      "type": "function"
    },
    {
      "inputs": [
        {
          "internalType": "string",
          "name": "repoOwner",
          "type": "string"
        },
        {
          "internalType": "string",
          "name": "repoName",
          "type": "string"
        },
        {
          "internalType": "uint64",
          "name": "issueNumber",
          "type": "uint64"
        },
        {
          "internalType": "externalEuint64",
          "name": "encryptedAmount",
          "type": "bytes32"
        },
        {
          "internalType": "bytes",
          "name": "inputProof",
          "type": "bytes"
        }
      ],
      "name": "createBounty",
      "outputs": [
        {
          "internalType": "uint256",
          "name": "bountyId",
          "type": "uint256"
        }
      ],
      "stateMutability": "nonpayable",
      "type": "function"
    },
    {
      "inputs": [
        {
          "internalType": "address",
          "name": "",
          "type": "address"
        }
      ],
      "name": "devGithub",
      "outputs": [
        {
          "internalType": "string",
          "name": "",
          "type": "string"
        }
      ],
      "stateMutability": "view",
      "type": "function"
    },
    {
      "inputs": [
        {
          "internalType": "string",
          "name": "",
          "type": "string"
        }
      ],
      "name": "devRegistry",
      "outputs": [
        {
          "internalType": "address",
          "name": "",
          "type": "address"
        }
      ],
      "stateMutability": "view",
      "type": "function"
    },
    {
      "inputs": [
        {
          "internalType": "address",
          "name": "",
          "type": "address"
        }
      ],
      "name": "devVerificationPending",
      "outputs": [
        {
          "internalType": "bool",
          "name": "",
          "type": "bool"
        }
      ],
      "stateMutability": "view",
      "type": "function"
    },
    {
      "inputs": [],
      "name": "donId",
      "outputs": [
        {
          "internalType": "bytes32",
          "name": "",
          "type": "bytes32"
        }
      ],
      "stateMutability": "view",
      "type": "function"
    },
    {
      "inputs": [
        {
          "internalType": "uint256",
          "name": "bountyId",
          "type": "uint256"
        }
      ],
      "name": "executeClaim",
      "outputs": [],
      "stateMutability": "nonpayable",
      "type": "function"
    },
    {
      "inputs": [],
      "name": "executeClaimSource",
      "outputs": [],
      "stateMutability": "nonpayable",
      "type": "function"
    },
    {
      "inputs": [],
      "name": "executeFeeBps",
      "outputs": [],
      "stateMutability": "nonpayable",
      "type": "function"
    },
    {
      "inputs": [],
      "name": "executeGistSource",
      "outputs": [],
      "stateMutability": "nonpayable",
      "type": "function"
    },
    {
      "inputs": [],
      "name": "executeTreasury",
      "outputs": [],
      "stateMutability": "nonpayable",
      "type": "function"
    },
    {
      "inputs": [],
      "name": "feeBps",
      "outputs": [
        {
          "internalType": "uint256",
          "name": "",
          "type": "uint256"
        }
      ],
      "stateMutability": "view",
      "type": "function"
    },
    {
      "inputs": [
        {
          "internalType": "uint256",
          "name": "bountyId",
          "type": "uint256"
        }
      ],
      "name": "getBounty",
      "outputs": [
        {
          "internalType": "address",
          "name": "creator",
          "type": "address"
        },
        {
          "internalType": "string",
          "name": "repoOwner",
          "type": "string"
        },
        {
          "internalType": "string",
          "name": "repoName",
          "type": "string"
        },
        {
          "internalType": "uint64",
          "name": "issueNumber",
          "type": "uint64"
        },
        {
          "internalType": "enum GhostBounty.BountyStatus",
          "name": "status",
          "type": "uint8"
        },
        {
          "internalType": "address",
          "name": "claimedBy",
          "type": "address"
        },
        {
          "internalType": "uint256",
          "name": "createdAt",
          "type": "uint256"
        }
      ],
      "stateMutability": "view",
      "type": "function"
    },
    {
      "inputs": [
        {
          "internalType": "uint256",
          "name": "bountyId",
          "type": "uint256"
        }
      ],
      "name": "getBountyAmount",
      "outputs": [
        {
          "internalType": "euint64",
          "name": "",
          "type": "bytes32"
        }
      ],
      "stateMutability": "view",
      "type": "function"
    },
    {
      "inputs": [],
      "name": "gistVerificationSource",
      "outputs": [
        {
          "internalType": "string",
          "name": "",
          "type": "string"
        }
      ],
      "stateMutability": "view",
      "type": "function"
    },
    {
      "inputs": [
        {
          "internalType": "bytes32",
          "name": "requestId",
          "type": "bytes32"
        },
        {
          "internalType": "bytes",
          "name": "response",
          "type": "bytes"
        },
        {
          "internalType": "bytes",
          "name": "err",
          "type": "bytes"
        }
      ],
      "name": "handleOracleFulfillment",
      "outputs": [],
      "stateMutability": "nonpayable",
      "type": "function"
    },
    {
      "inputs": [
        {
          "internalType": "bytes32",
          "name": "",
          "type": "bytes32"
        }
      ],
      "name": "issueBountyId",
      "outputs": [
        {
          "internalType": "uint256",
          "name": "",
          "type": "uint256"
        }
      ],
      "stateMutability": "view",
      "type": "function"
    },
    {
      "inputs": [],
      "name": "owner",
      "outputs": [
        {
          "internalType": "address",
          "name": "",
          "type": "address"
        }
      ],
      "stateMutability": "view",
      "type": "function"
    },
    {
      "inputs": [],
      "name": "pause",
      "outputs": [],
      "stateMutability": "nonpayable",
      "type": "function"
    },
    {
      "inputs": [],
      "name": "paused",
      "outputs": [
        {
          "internalType": "bool",
          "name": "",
          "type": "bool"
        }
      ],
      "stateMutability": "view",
      "type": "function"
    },
    {
      "inputs": [],
      "name": "pendingClaimSource",
      "outputs": [
        {
          "internalType": "string",
          "name": "",
          "type": "string"
        }
      ],
      "stateMutability": "view",
      "type": "function"
    },
    {
      "inputs": [],
      "name": "pendingClaimSourceTimestamp",
      "outputs": [
        {
          "internalType": "uint256",
          "name": "",
          "type": "uint256"
        }
      ],
      "stateMutability": "view",
      "type": "function"
    },
    {
      "inputs": [],
      "name": "pendingFeeBps",
      "outputs": [
        {
          "internalType": "uint256",
          "name": "",
          "type": "uint256"
        }
      ],
      "stateMutability": "view",
      "type": "function"
    },
    {
      "inputs": [],
      "name": "pendingFeeTimestamp",
      "outputs": [
        {
          "internalType": "uint256",
          "name": "",
          "type": "uint256"
        }
      ],
      "stateMutability": "view",
      "type": "function"
    },
    {
      "inputs": [],
      "name": "pendingGistSource",
      "outputs": [
        {
          "internalType": "string",
          "name": "",
          "type": "string"
        }
      ],
      "stateMutability": "view",
      "type": "function"
    },
    {
      "inputs": [],
      "name": "pendingGistSourceTimestamp",
      "outputs": [
        {
          "internalType": "uint256",
          "name": "",
          "type": "uint256"
        }
      ],
      "stateMutability": "view",
      "type": "function"
    },
    {
      "inputs": [],
      "name": "pendingOwner",
      "outputs": [
        {
          "internalType": "address",
          "name": "",
          "type": "address"
        }
      ],
      "stateMutability": "view",
      "type": "function"
    },
    {
      "inputs": [],
      "name": "pendingTreasury",
      "outputs": [
        {
          "internalType": "address",
          "name": "",
          "type": "address"
        }
      ],
      "stateMutability": "view",
      "type": "function"
    },
    {
      "inputs": [],
      "name": "pendingTreasuryTimestamp",
      "outputs": [
        {
          "internalType": "uint256",
          "name": "",
          "type": "uint256"
        }
      ],
      "stateMutability": "view",
      "type": "function"
    },
    {
      "inputs": [
        {
          "internalType": "string",
          "name": "_source",
          "type": "string"
        }
      ],
      "name": "proposeClaimSource",
      "outputs": [],
      "stateMutability": "nonpayable",
      "type": "function"
    },
    {
      "inputs": [
        {
          "internalType": "uint256",
          "name": "_feeBps",
          "type": "uint256"
        }
      ],
      "name": "proposeFeeBps",
      "outputs": [],
      "stateMutability": "nonpayable",
      "type": "function"
    },
    {
      "inputs": [
        {
          "internalType": "string",
          "name": "_source",
          "type": "string"
        }
      ],
      "name": "proposeGistSource",
      "outputs": [],
      "stateMutability": "nonpayable",
      "type": "function"
    },
    {
      "inputs": [
        {
          "internalType": "address",
          "name": "_treasury",
          "type": "address"
        }
      ],
      "name": "proposeTreasury",
      "outputs": [],
      "stateMutability": "nonpayable",
      "type": "function"
    },
    {
      "inputs": [
        {
          "internalType": "string",
          "name": "githubUsername",
          "type": "string"
        },
        {
          "internalType": "string",
          "name": "gistId",
          "type": "string"
        }
      ],
      "name": "registerDev",
      "outputs": [
        {
          "internalType": "bytes32",
          "name": "requestId",
          "type": "bytes32"
        }
      ],
      "stateMutability": "nonpayable",
      "type": "function"
    },
    {
      "inputs": [],
      "name": "renounceOwnership",
      "outputs": [],
      "stateMutability": "pure",
      "type": "function"
    },
    {
      "inputs": [],
      "name": "secretsExpiration",
      "outputs": [
        {
          "internalType": "uint256",
          "name": "",
          "type": "uint256"
        }
      ],
      "stateMutability": "view",
      "type": "function"
    },
    {
      "inputs": [],
      "name": "secretsSlotId",
      "outputs": [
        {
          "internalType": "uint8",
          "name": "",
          "type": "uint8"
        }
      ],
      "stateMutability": "view",
      "type": "function"
    },
    {
      "inputs": [],
      "name": "secretsValid",
      "outputs": [
        {
          "internalType": "bool",
          "name": "",
          "type": "bool"
        }
      ],
      "stateMutability": "view",
      "type": "function"
    },
    {
      "inputs": [],
      "name": "secretsVersion",
      "outputs": [
        {
          "internalType": "uint64",
          "name": "",
          "type": "uint64"
        }
      ],
      "stateMutability": "view",
      "type": "function"
    },
    {
      "inputs": [
        {
          "internalType": "uint32",
          "name": "_limit",
          "type": "uint32"
        }
      ],
      "name": "setCallbackGasLimit",
      "outputs": [],
      "stateMutability": "nonpayable",
      "type": "function"
    },
    {
      "inputs": [
        {
          "internalType": "bytes32",
          "name": "_donId",
          "type": "bytes32"
        }
      ],
      "name": "setDonId",
      "outputs": [],
      "stateMutability": "nonpayable",
      "type": "function"
    },
    {
      "inputs": [
        {
          "internalType": "uint8",
          "name": "_slotId",
          "type": "uint8"
        },
        {
          "internalType": "uint64",
          "name": "_version",
          "type": "uint64"
        },
        {
          "internalType": "uint256",
          "name": "_expiration",
          "type": "uint256"
        }
      ],
      "name": "setSecretsConfig",
      "outputs": [],
      "stateMutability": "nonpayable",
      "type": "function"
    },
    {
      "inputs": [
        {
          "internalType": "uint64",
          "name": "_subId",
          "type": "uint64"
        }
      ],
      "name": "setSubscriptionId",
      "outputs": [],
      "stateMutability": "nonpayable",
      "type": "function"
    },
    {
      "inputs": [],
      "name": "subscriptionId",
      "outputs": [
        {
          "internalType": "uint64",
          "name": "",
          "type": "uint64"
        }
      ],
      "stateMutability": "view",
      "type": "function"
    },
    {
      "inputs": [
        {
          "internalType": "address",
          "name": "newOwner",
          "type": "address"
        }
      ],
      "name": "transferOwnership",
      "outputs": [],
      "stateMutability": "nonpayable",
      "type": "function"
    },
    {
      "inputs": [],
      "name": "treasury",
      "outputs": [
        {
          "internalType": "address",
          "name": "",
          "type": "address"
        }
      ],
      "stateMutability": "view",
      "type": "function"
    },
    {
      "inputs": [],
      "name": "unpause",
      "outputs": [],
      "stateMutability": "nonpayable",
      "type": "function"
    }
  ],
  "transactionHash": "0xb3d2585b7e599b8596793c6f48ede7d1988f0db8e9ab17607f4d7b5f000b10ee",
  "args": [
    "0xb83E47C2bC239B3bf370bc41e1459A34b41238D0",
    "0x4f73E1F80De6E614FBB5F4B66B6C802CD087A5CC",
    "0x590891F269720001435004A1089cAB5b2c20029A",
    200,
    "0x66756e2d657468657265756d2d7365706f6c69612d3100000000000000000000",
    "6375"
  ],
  "numDeployments": 1,
  "solcInputHash": "2b129599da9da9bbd3e9b47ba23234de",
  "bytecode": "0x60c080604052346103145760c0816160d8803803809161001f82856104f0565b8339810103126103145761003281610513565b61003e60208301610513565b61004a60408401610513565b92606081015160a060808301519201519360018060401b038516809503610314576001600160a01b031660805260017f9b779b17422d0df92223018b32b4d1fa46e071723d6817e2486d003becc55f005533156104ae57600180546001600160a01b03191690555f8054610100600160a81b0319811633600881811b610100600160a81b03169290921784559291901c6001600160a01b0316907f8be0079c531659141344cd1fd0a4f28419497f9722a3daafe3b4186f6b6457e09080a36101106105a9565b50466001036103c2576101216105a9565b5060405161012e816104c1565b73ca2e8f1f656cd25c01f05d0b243ab1ecd4a8ffb6815273d82385dada1ae3e969447f20a3164f6213100e7560208201527377627828a55156b04ac0dc0eb30467f1a552bb0360408201525b80515f5160206160b85f395f51905f5280546001600160a01b03199081166001600160a01b039384161790915560208301515f5160206160985f395f51905f52805483169184169190911790556040909201517f9e7b61f58c47dc699ac88507c4f5bb9f121c03808c5676a8078fe583e4649702805490931690821617909155600354931694851561038f576001600160a01b0316801561035a576101f48211610326576a0493e000000000000000009560a05260018060a01b0319600554161760055560045560025560018060601b031916171760035561025a610527565b80601b558015610318575b5f5160206160b85f395f51905f52546001600160a01b031690813b15610314575f91604483926040519485938492635ca4b5b160e11b845260048401523060248401525af18015610309576102f9575b604051615ad090816105c8823960805181818161076801526144e4015260a051818181610d110152818161136f01528181611e200152818161246b01526132f90152f35b5f610303916104f0565b5f6102b5565b6040513d5f823e3d90fd5b5f80fd5b50610321610527565b610265565b60405162461bcd60e51b815260206004820152600c60248201526b08ccaca40e8dede40d0d2ced60a31b6044820152606490fd5b60405162461bcd60e51b815260206004820152600d60248201526c5a65726f20747265617375727960981b6044820152606490fd5b60405162461bcd60e51b815260206004820152600b60248201526a2d32b9379031aa37b5b2b760a91b6044820152606490fd5b4662aa36a703610431576103d46105a9565b506040516103e1816104c1565b73f0ffdc93b7e186bc2f8cb3daa75d86d1930a433d81527392c920834ec8941d2c77d188936e1f7a6f49c127602082015273be0e383937d564d7ff0bc3b46c51f0bf8d5c311a604082015261017a565b46617a690361049f576104426105a9565b5060405161044f816104c1565b7350157cffd6bbfa2dece204a89ec419c23ef5755d815273e3a9105a3a932253a70f126eb1e3b589c643dd24602082015273901f8942346f7ab3a01f6d7613119bca447bb030604082015261017a565b6373cac13b60e01b5f5260045ffd5b631e4fbdf760e01b5f525f60045260245ffd5b606081019081106001600160401b038211176104dc57604052565b634e487b7160e01b5f52604160045260245ffd5b601f909101601f19168101906001600160401b038211908210176104dc57604052565b51906001600160a01b038216820361031457565b5f5160206160985f395f51905f5254604051639cd07acb60e01b81525f60048201819052600560248301529091602091839160449183916001600160a01b03165af1908115610309575f9161057a575090565b90506020813d6020116105a1575b81610595602093836104f0565b81010312610314575190565b3d9150610588565b604051906105b6826104c1565b5f604083828152826020820152015256fe60806040526004361015610011575f80fd5b5f3560e01c806302756ddf146103f4578063058a6a87146103ef578063082b0484146103ea57806309c1ba2e146103e55780630ca76175146103e05780631cd896c1146103db5780631e3ff5cf146103d65780631eddeeb9146103d157806324a9d853146103cc57806324cda6bf146103c757806324f74697146103c25780632ed6b75d146103bd5780633e362c96146103b85780633f4ba83a146103b35780634a7d0369146103ae5780634b7c199b146103a95780634c618e68146103a4578063506c6a491461039f5780635c975abb1461039a57806361d027b31461039557806361f0949d146103905780636394bffe1461038b57806369e527da14610386578063715018a61461038157806375b1d1951461037c57806378ca5de71461037757806379ba50971461037257806381020cad1461036d5780638416a883146103685780638456cb59146103635780638927b0301461035e5780638ce907a9146103595780638da5cb5b146103545780638dbe7b9d1461034f5780638feb55031461034a5780639c5c0634146103455780639cb481ea14610340578063a4eb718c1461033b578063a60c4b7b14610336578063a985a2a814610331578063ae03bb791461032c578063b13d69f314610327578063b4c3606714610322578063b7c16ce81461031d578063bb2a46d914610318578063c6c4c96514610313578063d55be8c61461030e578063d67132a314610309578063dd5de2c514610304578063e30c3978146102ff578063e5e5dff1146102fa578063ea7b4f77146102f5578063ee8c4bbf146102f0578063eefc799c146102eb578063f110ed67146102e6578063f2fde38b146102e1578063f99b1e97146102dc578063fc58b54a146102d7578063fca4a528146102d2578063fdbea496146102cd578063fdcf33d1146102c85763ff36a2f5146102c3575f80fd5b61268f565b6125ea565b6125cb565b6125ae565b6123b7565b61239c565b612337565b612264565b612058565b611fd9565b611f09565b611ce1565b611cbb565b611c9b565b611c6e565b611c52565b611bd2565b611b17565b611afa565b611a77565b6119dc565b61193f565b611915565b6118f8565b6118a2565b6117fd565b6117de565b611781565b611764565b61173c565b611721565b6116ff565b6116a8565b611501565b6114e4565b611432565b611411565b6113e8565b611393565b611350565b6110a6565b61100c565b610fe6565b610fc5565b610f0b565b610eee565b610e52565b610cc3565b610c5f565b610c42565b610c1c565b610bf6565b610bc4565b610b85565b610aab565b610822565b610807565b61070c565b6105f7565b610441565b610424565b610407565b5f91031261040357565b5f80fd5b34610403575f366003190112610403576020604051620151808152f35b34610403575f366003190112610403576020600d54604051908152f35b34610403575f36600319011261040357610459613c67565b600d546104678115156126ac565b6202a30081018091116105f25761048090421015612771565b61048b600c54610856565b6001600160401b0381116105ed576104af816104a8600754610856565b600761284e565b5f90601f811160011461054b57806104db925f9161053f575b508160011b915f199060031b1c19161790565b6007555b6104e761289c565b5f600d557f10cb9add32e01b62b489374cdf443ef9e9efa95721256bda1f48a4c7feb5e9ad6040518061053a428260408082526004908201526319da5cdd60e21b60608201529190602060808401930152565b0390a1005b9050600c01545f6104c8565b60075f9081527fdf6966c971051c3d54ec59162606531493a51404a002842f56009d7e5cf4a8c7927fa66cc928b5edb82af9bd49922954155ab7b0942694bea4ce44661d9a8736c68891601f198416905b8181106105d557509383600195106105bd575b505050811b016007556104df565b01545f1960f88460031b161c191690555f80806105af565b9192600180602092868901548155019401920161059c565b61061d565b6126f8565b34610403575f3660031901126104035760206001600160401b0360035416604051908152f35b634e487b7160e01b5f52604160045260245ffd5b604081019081106001600160401b038211176105ed57604052565b90601f801991011681019081106001600160401b038211176105ed57604052565b6040519061067c60408361064c565b565b6040519061067c6101008361064c565b6040519061067c60608361064c565b6001600160401b0381116105ed57601f01601f191660200190565b9291926106c48261069d565b916106d2604051938461064c565b829481845281830111610403578281602093845f960137010152565b9080601f8301121561040357816020610709933591016106b8565b90565b34610403576060366003190112610403576004356024356001600160401b0381116104035761073f9036906004016106ee565b6044356001600160401b0381116104035761075e9036906004016106ee565b6001600160a01b037f00000000000000000000000000000000000000000000000000000000000000001633036107f8575f838152601860205260409020805460ff19811690915560019060ff166107b481612d07565b036107e9576107c39183614e4a565b7f85e1543bf2f84fe80c6badbce3648c8539ad1df4d2b3d822938ca0538be727e65f80a2005b6107f39183614b4b565b6107c3565b63c6829f8360e01b5f5260045ffd5b34610403575f36600319011261040357602060405160278152f35b34610403575f366003190112610403576020600954801590811561084c575b506040519015158152f35b905042105f610841565b90600182811c92168015610884575b602083101461087057565b634e487b7160e01b5f52602260045260245ffd5b91607f1691610865565b604051905f82600754916108a183610856565b808352926001811690811561092457506001146108c5575b61067c9250038361064c565b5060075f90815290917fa66cc928b5edb82af9bd49922954155ab7b0942694bea4ce44661d9a8736c6885b81831061090857505090602061067c928201016108b9565b60209193508060019154838589010152019101909184926108f0565b6020925061067c94915060ff191682840152151560051b8201016108b9565b604051905f826006549161095683610856565b808352926001811690811561092457506001146109795761067c9250038361064c565b5060065f90815290917ff652222313e28459528d920b65115c16c04f3efc82aaedc97be59f3f377c0d3f5b8183106109bc57505090602061067c928201016108b9565b60209193508060019154838589010152019101909184926109a4565b9060405191825f8254926109eb84610856565b8084529360018116908115610a545750600114610a10575b5061067c9250038361064c565b90505f9291925260205f20905f915b818310610a3857505090602061067c928201015f610a03565b6020919350806001915483858901015201910190918492610a1f565b90506020925061067c94915060ff191682840152151560051b8201015f610a03565b805180835260209291819084018484015e5f828201840152601f01601f1916010190565b906020610709928181520190610a76565b34610403575f366003190112610403576040515f600c54610acb81610856565b8084529060018116908115610b615750600114610b03575b610aff83610af38185038261064c565b60405191829182610a9a565b0390f35b600c5f9081527fdf6966c971051c3d54ec59162606531493a51404a002842f56009d7e5cf4a8c7939250905b808210610b4757509091508101602001610af3610ae3565b919260018160209254838588010152019101909291610b2f565b60ff191660208086019190915291151560051b84019091019150610af39050610ae3565b34610403575f366003190112610403576020600454604051908152f35b6020906003190112610403576004356001600160a01b03811681036104035790565b34610403576001600160a01b03610bda36610ba2565b165f526017602052602060ff60405f2054166040519015158152f35b34610403575f36600319011261040357602063ffffffff60035460401c16604051908152f35b34610403575f3660031901126104035760206001600160a01b0360105416604051908152f35b34610403575f366003190112610403576020601254604051908152f35b34610403575f36600319011261040357610c77613c67565b5f5460ff811615610cb45760ff19165f557f5db9ee0a495bf2e6ff9c91a7834c1ba4fdd244a5e8aa4e537bd38aeae4b073aa6020604051338152a1005b638dfc202b60e01b5f5260045ffd5b34610403575f36600319011261040357610cdb613c67565b610ce3613c7d565b610d7b6020601b54610cfb610cf6613cdb565b601b55565b610d06601b54613d55565b506001600160a01b037f000000000000000000000000000000000000000000000000000000000000000016610d3b8183613d74565b506005546001600160a01b03165f604051809681958294632df5f6bf60e11b845260048401602090939291936001600160a01b0360408201951681520152565b03925af18015610e2157610df4575b6001600160a01b03610da46005546001600160a01b031690565b167f31882bd4aa8fafe9dbdea62ad7f2daa1fcf5f08134b70f68ff6cd8f78d6b33245f80a2610df260017f9b779b17422d0df92223018b32b4d1fa46e071723d6817e2486d003becc55f0055565b005b610e159060203d602011610e1a575b610e0d818361064c565b810190612a4d565b610d8a565b503d610e03565b612a5c565b602435906001600160401b038216820361040357565b604435906001600160401b038216820361040357565b346104035760603660031901126104035760043560ff81168091036104035760607fc3233c7e7fb2de84d2ae7ec9217dc992bf99bb1d9d568efe63a33fe1ec97c55191610e9d610e26565b6001600160401b0360443591610eb1613c67565b6008548468ffffffffffffffff008360081b169168ffffffffffffffffff19161717600855826009556040519384521660208301526040820152a1005b34610403575f366003190112610403576020600e54604051908152f35b3461040357602036600319011261040357600435610f27613c67565b6101f48111610f805780600e5542600f556201518042018042116105f2576040805192835260208301919091527fa7f5d2ab44bf05730cdc4bbcac853dcb248b08dde217076250444c1b6706006191908190810161053a565b60405162461bcd60e51b815260206004820152600c60248201527f46656520746f6f206869676800000000000000000000000000000000000000006044820152606490fd5b34610403575f36600319011261040357602060ff5f54166040519015158152f35b34610403575f3660031901126104035760206001600160a01b0360055416604051908152f35b34610403575f36600319011261040357611024613c67565b61102c612945565b5f600b557fb9f6911e6ee4c80bddda0b2dfbe4b1d2831f4cfc3a6d314d87e773630e9dc201604051602081528061053a602082016040906005815264636c61696d60d81b60208201520190565b9181601f84011215610403578235916001600160401b038311610403576020838186019501011161040357565b34610403576040366003190112610403576004356001600160401b038111610403576110d6903690600401611079565b90602435916001600160401b0383116104035761124d6112749161122061112061111b6111096020983690600401611079565b979094611114613e08565b36916106b8565b613e55565b9461113686518015159081611344575b50612a67565b80151580611339575b61114890612ab3565b61117c61117761117361116c336001600160a01b03165f52601760205260405f2090565b5460ff1690565b1590565b612aff565b61119161118a600754610856565b1515612b4b565b6111a7600954801590811561132f575b50612b97565b6111e96111b2612be3565b936111c46111be61088e565b8661519c565b6111cc612c29565b92886111d785612cb1565b526111e184612cb1565b5036916106b8565b6111f282612cc3565b526111fc81612cc3565b5061120633613f88565b61120f82612cd3565b5261121981612cd3565b5082614056565b600854611237816001600160401b039060081c1690565b6001600160401b03811661131b575b50506142bc565b60035461126a6001600160401b0382169160401c63ffffffff1690565b9060025492614485565b809161129861128b835f52601860205260405f2090565b805460ff19166001179055565b6112c26112a361066d565b33815282868201526112bd845f52601a60205260405f2090565b612ddc565b6112e061128b336001600160a01b03165f52601760205260405f2090565b7f993293998257baa27aeb0a8610b55db2ccf3594249d108f282a4cf5d405503ad60405180611310339482610a9a565b0390a3604051908152f35b6113289160ff168361407c565b5f80611246565b905042105f6111a1565b50602881111561113f565b6027915011155f611130565b34610403575f3660031901126104035760206040516001600160a01b037f0000000000000000000000000000000000000000000000000000000000000000168152f35b34610403575f3660031901126104035760405162461bcd60e51b815260206004820152600860248201527f44697361626c65640000000000000000000000000000000000000000000000006044820152606490fd5b34610403575f3660031901126104035760206001600160401b0360085460081c16604051908152f35b346104035760203660031901126104035760043561142d613c67565b600255005b34610403575f36600319011261040357600154336001600160a01b038216036114d1576001600160a01b0319166001556001600160a01b035f5460081c165f5474ffffffffffffffffffffffffffffffffffffffff001974ffffffffffffffffffffffffffffffffffffffff003360081b169116175f5533907f8be0079c531659141344cd1fd0a4f28419497f9722a3daafe3b4186f6b6457e05f80a3005b63118cdaa760e01b5f523360045260245ffd5b34610403575f366003190112610403576020600b54604051908152f35b34610403575f36600319011261040357611519613c67565b600b546115278115156126ac565b6202a30081018091116105f25761154090421015612771565b61154b600a54610856565b6001600160401b0381116105ed5761156f81611568600654610856565b600661284e565b5f90601f8111600114611606578061159a925f916115fa57508160011b915f199060031b1c19161790565b6006555b6115a6612945565b5f600b557f10cb9add32e01b62b489374cdf443ef9e9efa95721256bda1f48a4c7feb5e9ad6040518061053a4282604080825260059082015264636c61696d60d81b60608201529190602060808401930152565b9050600a01545f6104c8565b60065f9081527fc65a7bb8d6351c1cf70c95a316cc6a92839c986682d98bc35f958f4883f9d2a8927ff652222313e28459528d920b65115c16c04f3efc82aaedc97be59f3f377c0d3f91601f198416905b8181106116905750938360019510611678575b505050811b0160065561159e565b01545f1960f88460031b161c191690555f808061166a565b91926001806020928689015481550194019201611657565b34610403575f366003190112610403576116c0613c67565b6116c8613e08565b600160ff195f5416175f557f62e78cea01bee320cd4e420270b5ea74000d11b0c9f74754ebdbfc544b05a2586020604051338152a1005b34610403575f36600319011261040357602061171961455c565b604051908152f35b34610403575f36600319011261040357602060405160648152f35b34610403575f3660031901126104035760206001600160a01b035f5460081c16604051908152f35b34610403575f366003190112610403576020600254604051908152f35b34610403575f36600319011261040357610aff61179c61088e565b604051918291602083526020830190610a76565b602060031982011261040357600435906001600160401b038211610403576117da91600401611079565b9091565b3461040357610df26117ef366117b0565b906117f8613c67565b613061565b34610403576020366003190112610403576004355f52601360205260405f206001600160a01b0381541633148015611889575b156118445760040154604051908152602090f35b60405162461bcd60e51b815260206004820152600e60248201527f4e6f7420617574686f72697a65640000000000000000000000000000000000006044820152606490fd5b506001600160a01b03600582015460081c163314611830565b346104035760203660031901126104035760043563ffffffff81168103610403576118cb613c67565b6bffffffff00000000000000006003549160401b16906bffffffff00000000000000001916176003555f80f35b34610403575f3660031901126104035760206040516202a3008152f35b34610403576020366003190112610403576004355f526014602052602060405f2054604051908152f35b346104035760a0366003190112610403576004356001600160401b0381116104035761196f903690600401611079565b6024356001600160401b0381116104035761198e903690600401611079565b919092611999610e3c565b60643590608435946001600160401b03861161040357610aff966119c46119cc973690600401611079565b96909561321a565b6040519081529081906020820190565b34610403575f366003190112610403576119f4613c67565b6119fc61289c565b5f600d557fb9f6911e6ee4c80bddda0b2dfbe4b1d2831f4cfc3a6d314d87e773630e9dc201604051602081528061053a60208201604090600481526319da5cdd60e21b60208201520190565b805191908290602001825e015f815290565b6020611a6c9160405192838092611a48565b601581520301902090565b34610403576020366003190112610403576004356001600160401b0381116104035736602382011215610403576001600160a01b03611ad46020611ac8610aff9436906024816004013591016106b8565b60405192838092611a48565b60158152030190205416604051918291829190916001600160a01b036020820193169052565b34610403575f366003190112610403576020600f54604051908152f35b34610403575f36600319011261040357611b2f613c67565b601154611b3d8115156126ac565b6201518081018091116105f257611b5690421015612771565b6001600160a01b03196010546001600160a01b03811682600554161760055516601055611b825f601155565b7f5990b9f3f1244cb62e9aa3198468cb0e1cb0bc55586fe61ee9095d42f317646d61053a611bb86005546001600160a01b031690565b6040516001600160a01b0390911681529081906020820190565b34610403575f36600319011261040357611bea613c67565b600f54611bf88115156126ac565b6201518081018091116105f257611c1190421015612771565b7fa1837568bc6aa9f8022c0dc7c2e193f84fc45d689e170e294c4db205eab6faef600e54806004555f600e555f600f556040518091602082019082520390a1005b34610403575f3660031901126104035760206040516101f48152f35b34610403576001600160a01b03611c8436610ba2565b165f526016602052610aff61179c60405f206109d8565b34610403575f36600319011261040357602060ff60085416604051908152f35b34610403575f3660031901126104035760206001600160a01b0360015416604051908152f35b3461040357602036600319011261040357600435611cfd613c7d565b611d05613e08565b5f6020611e736004611d1f855f52601360205260405f2090565b611d43611d3382546001600160a01b031690565b6001600160a01b03163314613802565b611d7e60058201611d71611d58825460ff1690565b611d6181611f5f565b8015908115611ef5575b5061384e565b805460ff19166004179055565b84611e0e6001611def611dfd611da6611da160038801546001600160401b031690565b6146b5565b604051928391611de9611ddc611dd3611dc68f8d9088019a8b910161389a565b602f60f81b815260010190565b60028c0161389a565b602360f81b815260010190565b90611a48565b03601f19810183528261064c565b5190205f52601460205260405f2090565b5501805490611e476001600160a01b037f0000000000000000000000000000000000000000000000000000000000000000168093613d74565b5054604051632df5f6bf60e11b8152336004820152602481019190915293849283919082906044820190565b03925af18015610e2157611ed8575b506040514281527f4fe522caf12f0adba1b0532093b34bea60fc859fb838ae075b44bcd15fcde9ff90602090a2610df260017f9b779b17422d0df92223018b32b4d1fa46e071723d6817e2486d003becc55f0055565b611ef09060203d602011610e1a57610e0d818361064c565b611e82565b60019150611f0281611f5f565b145f611d6b565b34610403576020366003190112610403576004356001600160401b03811680910361040357611f36613c67565b6001600160401b031960035416176003555f80f35b634e487b7160e01b5f52602160045260245ffd5b60051115611f6957565b611f4b565b939796959492611fa06001600160401b03936001600160a01b03611fae9416875260e0602088015260e0870190610a76565b908582036040870152610a76565b961660608301526005811015611f695760c0926001600160a01b039160808401521660a08201520152565b34610403576020366003190112610403576004355f52601360205260405f206001600160a01b0381541690610aff6001600160401b036003830154169260058301546006840154916120396002612032600188016109d8565b96016109d8565b9560405196879660ff6001600160a01b038660081c1695169388611f6e565b34610403576040366003190112610403576020612238600435612079610e26565b90612082613c7d565b61208a613e08565b7f3de6590673cc48f483e00057f68ad38f0df34fc235384dabdee37d99803ac1716121bd61124d6120c3845f52601360205260405f2090565b612111600582016120e76120d8825460ff1690565b6120e181611f5f565b15613904565b6120fc6120f5600654610856565b1515613950565b61128b600954801590811561132f5750612b97565b61122061211c612be3565b9161212e612128610943565b8461519c565b6121aa611da1600361213e612c63565b9361214b600182016109d8565b61215486612cb1565b5261215e85612cb1565b5061216b600282016109d8565b61217486612cc3565b5261217e85612cc3565b506121888c6146b5565b61219186612cd3565b5261219b85612cd3565b5001546001600160401b031690565b6121b382612ce3565b5261121981612ce3565b9384936121df6121d5865f52601860205260405f2090565b805460ff19169055565b6122186121ea61068e565b8581526001600160401b03831689820152336040820152612213875f52601960205260405f2090565b61399c565b604080516001600160401b03909216825242602083015290918291820190565b0390a361171960017f9b779b17422d0df92223018b32b4d1fa46e071723d6817e2486d003becc55f0055565b346104035761227236610ba2565b61227a613c67565b6001600160a01b0381169081156122f2577f2fdb8aa18e3708b0dfed4acb0de7452e85e7f833b1b055880cef38e8bee690b5916001600160a01b031960105416176010556122c742601155565b6122d04261270c565b604080516001600160a01b03909316835260208301919091528190810161053a565b60405162461bcd60e51b815260206004820152600c60248201527f5a65726f206164647265737300000000000000000000000000000000000000006044820152606490fd5b34610403576001600160a01b0361234d36610ba2565b612355613c67565b16806001600160a01b031960015416176001556001600160a01b035f5460081c167f38d16b8cac22d99fc7c124b9cd0de2d3fa1faef420bfe791d8c362d765e227005f80a3005b34610403575f36600319011261040357610aff61179c610943565b34610403576020366003190112610403576004356123d3613c7d565b6123db613e08565b6123ed815f52601360205260405f2090565b905f600583019260046124288554612419600261240a8360ff1690565b61241381611f5f565b14613a22565b60081c6001600160a01b031690565b9161244f6001600160a01b03841696612442881515613a6e565b805460ff19166003179055565b0160206124ca825460045480612558575b506001600160a01b037f000000000000000000000000000000000000000000000000000000000000000016906124968282613d74565b50604051632df5f6bf60e11b81526001600160a01b0387166004820152602481019190915295869283919082906044820190565b03925af1928315610e21576124e59361253b575b5054614868565b506040514281527f07e339a02227d9329089b11d9cdeea1af6caea87244864b70935aca91d7dc7fd90602090a3610df260017f9b779b17422d0df92223018b32b4d1fa46e071723d6817e2486d003becc55f0055565b6125539060203d602011610e1a57610e0d818361064c565b6124de565b61258661257f61257a6125746125a7946001600160401b031690565b8561488f565b614926565b80936149b2565b91612596610cf682601b54614a65565b6125a1601b54613d55565b50613d55565b505f612460565b34610403575f366003190112610403576020601154604051908152f35b3461040357610df26125dc366117b0565b906125e5613c67565b613aba565b34610403575f366003190112610403576040515f600a5461260a81610856565b8084529060018116908115610b61575060011461263157610aff83610af38185038261064c565b600a5f9081527fc65a7bb8d6351c1cf70c95a316cc6a92839c986682d98bc35f958f4883f9d2a8939250905b80821061267557509091508101602001610af3610ae3565b91926001816020925483858801015201910190929161265d565b34610403575f366003190112610403576020600954604051908152f35b156126b357565b60405162461bcd60e51b815260206004820152601160248201527f4e6f2070656e64696e67206368616e67650000000000000000000000000000006044820152606490fd5b634e487b7160e01b5f52601160045260245ffd5b906201518082018092116105f257565b906202a30082018092116105f257565b90600182018092116105f257565b60020190816002116105f257565b60030190816003116105f257565b90602082018092116105f257565b919082018092116105f257565b1561277857565b60405162461bcd60e51b815260206004820152600f60248201527f54696d656c6f636b2061637469766500000000000000000000000000000000006044820152606490fd5b8181106127c8575050565b5f81556001016127bd565b90601f82116127e0575050565b61067c9160065f5260205f20906020601f840160051c8301931061280c575b601f0160051c01906127bd565b90915081906127ff565b90601f8211612823575050565b61067c9160075f5260205f20906020601f840160051c8301931061280c57601f0160051c01906127bd565b9190601f811161285d57505050565b61067c925f5260205f20906020601f840160051c8301931061280c57601f0160051c01906127bd565b908160011b91808304600214901517156105f257565b6128a7600c54610856565b806128af5750565b601f81116001146128c157505f600c55565b600c5f5261291790601f0160051c7fdf6966c971051c3d54ec59162606531493a51404a002842f56009d7e5cf4a8c7017fdf6966c971051c3d54ec59162606531493a51404a002842f56009d7e5cf4a8c86127bd565b600c5f818152908190557fdf6966c971051c3d54ec59162606531493a51404a002842f56009d7e5cf4a8c755565b612950600a54610856565b806129585750565b601f811160011461296a57505f600a55565b600a5f526129c090601f0160051c7fc65a7bb8d6351c1cf70c95a316cc6a92839c986682d98bc35f958f4883f9d2a8017fc65a7bb8d6351c1cf70c95a316cc6a92839c986682d98bc35f958f4883f9d2a96127bd565b600a5f818152908190557fc65a7bb8d6351c1cf70c95a316cc6a92839c986682d98bc35f958f4883f9d2a855565b6129f88154610856565b9081612a02575050565b81601f5f9311600114612a13575055565b81835260208320612a2f91601f0160051c8101906001016127bd565b808252602082209081548360011b9084198560031b1c191617905555565b90816020910312610403575190565b6040513d5f823e3d90fd5b15612a6e57565b60405162461bcd60e51b815260206004820152601060248201527f496e76616c696420757365726e616d65000000000000000000000000000000006044820152606490fd5b15612aba57565b60405162461bcd60e51b815260206004820152600f60248201527f496e76616c6964206769737420494400000000000000000000000000000000006044820152606490fd5b15612b0657565b60405162461bcd60e51b815260206004820152601c60248201527f566572696669636174696f6e20616c72656164792070656e64696e67000000006044820152606490fd5b15612b5257565b60405162461bcd60e51b815260206004820152601360248201527f4769737420736f75726365206e6f7420736574000000000000000000000000006044820152606490fd5b15612b9e57565b60405162461bcd60e51b815260206004820152600f60248201527f53656372657473206578706972656400000000000000000000000000000000006044820152606490fd5b6040519060e082018281106001600160401b038211176105ed57604052606060c0835f81525f60208201525f604082015282808201528260808201528260a08201520152565b60405160809190612c3a838261064c565b6003815291601f1901825f5b828110612c5257505050565b806060602080938501015201612c46565b60405160a09190612c74838261064c565b6004815291601f1901825f5b828110612c8c57505050565b806060602080938501015201612c80565b634e487b7160e01b5f52603260045260245ffd5b805115612cbe5760200190565b612c9d565b805160011015612cbe5760400190565b805160021015612cbe5760600190565b805160031015612cbe5760800190565b8051821015612cbe5760209160051b010190565b60021115611f6957565b91909182516001600160401b0381116105ed57612d3881612d328454610856565b8461284e565b6020601f8211600114612d77578190612d689394955f92612d6c575b50508160011b915f199060031b1c19161790565b9055565b015190505f80612d54565b601f19821690612d8a845f5260205f2090565b915f5b818110612dc457509583600195969710612dac575b505050811b019055565b01515f1960f88460031b161c191690555f8080612da2565b9192602060018192868b015181550194019201612d8d565b6001602091939293612e0e6001600160a01b0386511682906001600160a01b03166001600160a01b0319825416179055565b019201519182516001600160401b0381116105ed57612e3181612d328454610856565b6020601f8211600114612e60578190612d689394955f92612d6c5750508160011b915f199060031b1c19161790565b601f19821690612e73845f5260205f2090565b915f5b818110612e9457509583600195969710612dac57505050811b019055565b9192602060018192868b015181550194019201612e76565b91906001600160401b0381116105ed57612ed281612ecb600a54610856565b600a61284e565b5f601f8211600114612f0f578190612eff93945f92612f045750508160011b915f199060031b1c19161790565b600a55565b013590505f80612d54565b600a5f52601f198216937fc65a7bb8d6351c1cf70c95a316cc6a92839c986682d98bc35f958f4883f9d2a8915f5b868110612f745750836001959610612f5b575b505050811b01600a55565b01355f19600384901b60f8161c191690555f8080612f50565b90926020600181928686013581550194019101612f3d565b91906001600160401b0381116105ed57612fb281612fab600c54610856565b600c61284e565b5f601f8211600114612fe4578190612fdf93945f92612f045750508160011b915f199060031b1c19161790565b600c55565b600c5f52601f198216937fdf6966c971051c3d54ec59162606531493a51404a002842f56009d7e5cf4a8c7915f5b8681106130495750836001959610613030575b505050811b01600c55565b01355f19600384901b60f8161c191690555f8080613025565b90926020600181928686013581550194019101613012565b919060065461306f81610856565b156130f45750918261308561308e939483612eac565b61111442600b55565b602081519101207fb535cf007f0a63a526e02347e59f21e0dd977daf5e1e11a27c43ba9023ce961b6130ef6130c24261271c565b60405191829182604080825260059082015264636c61696d60d81b60608201529190602060808401930152565b0390a2565b6001600160401b0382116105ed578161310f61311492610856565b6127d3565b5f601f821160011461319a57819061314193945f92612f045750508160011b915f199060031b1c19161790565b6006555b7f10cb9add32e01b62b489374cdf443ef9e9efa95721256bda1f48a4c7feb5e9ad604051806131954282604080825260059082015264636c61696d60d81b60608201529190602060808401930152565b0390a1565b60065f52601f198216937ff652222313e28459528d920b65115c16c04f3efc82aaedc97be59f3f377c0d3f915f5b86811061320257508360019596106131e9575b505050811b01600655613145565b01355f19600384901b60f8161c191690555f80806131db565b909260206001819286860135815501940191016131c8565b95946132e8859683611dc66132c88b611def89611de9611ddc6132ab8e9d9f899f6132926132ee9f9161328c61328761329794613255613c7d565b61325d613e08565b8015158061349f575b61326f906134aa565b83151580613494575b613281906134f6565b8c61458b565b613542565b8761458b565b61358e565b611da16001600160401b03821615156135da565b928d6132c2604051998a9860208a019c8d91613626565b91613626565b519020996111146132e18c5f52601460205260405f2090565b5415613633565b90614788565b946001600160a01b037f000000000000000000000000000000000000000000000000000000000000000016946133248688613d74565b5060405163eb3155b560e01b81523360048201523060248201526044810188905295602090879060649082905f905af1928315610e215761341f987f6dccabfd4b2c4cfbd22a068798c5ab2faaea35f48e81890edf122e79b281d07f9761344a95613477575b50601254998a996133a261339d8c61367f565b601255565b61340e6133ad61067e565b3381526133bb368b8a6106b8565b60208201526133cb36878d6106b8565b60408201526001600160401b03871660608201528260808201525f60a08201525f60c08201524260e08201526134098d5f52601360205260405f2090565b6136a5565b61341781613d55565b503390614868565b5061343b61342c8a61272c565b915f52601460205260405f2090565b556040519586954294876137c3565b0390a29061067c60017f9b779b17422d0df92223018b32b4d1fa46e071723d6817e2486d003becc55f0055565b61348f9060203d602011610e1a57610e0d818361064c565b61338a565b506064841115613278565b506064811115613266565b156134b157565b60405162461bcd60e51b815260206004820152601160248201527f496e76616c6964207265706f4f776e65720000000000000000000000000000006044820152606490fd5b156134fd57565b60405162461bcd60e51b815260206004820152601060248201527f496e76616c6964207265706f4e616d65000000000000000000000000000000006044820152606490fd5b1561354957565b60405162461bcd60e51b815260206004820152601660248201527f42616420636861727320696e207265706f4f776e6572000000000000000000006044820152606490fd5b1561359557565b60405162461bcd60e51b815260206004820152601560248201527f42616420636861727320696e207265706f4e616d6500000000000000000000006044820152606490fd5b156135e157565b60405162461bcd60e51b815260206004820152600d60248201527f496e76616c6964206973737565000000000000000000000000000000000000006044820152606490fd5b908092918237015f815290565b1561363a57565b60405162461bcd60e51b815260206004820152601c60248201527f426f756e74792065786973747320666f722074686973206973737565000000006044820152606490fd5b5f1981146105f25760010190565b906005811015611f695760ff80198354169116179055565b9060e06006916136db6136bf82516001600160a01b031690565b85906001600160a01b03166001600160a01b0319825416179055565b6136ec602082015160018601612d11565b6136fd604082015160028601612d11565b61373361371460608301516001600160401b031690565b60038601906001600160401b03166001600160401b0319825416179055565b6080810151600485015561379c6005850161375b60a084015161375581611f5f565b8261368d565b60c0830151815474ffffffffffffffffffffffffffffffffffffffff00191660089190911b74ffffffffffffffffffffffffffffffffffffffff0016179055565b0151910155565b908060209392818452848401375f828201840152601f01601f1916010190565b926060946137e96137f7936001600160401b03959a99989a6080885260808801916137a3565b9185830360208701526137a3565b951660408201520152565b1561380957565b60405162461bcd60e51b815260206004820152600b60248201527f4e6f742063726561746f720000000000000000000000000000000000000000006044820152606490fd5b1561385557565b60405162461bcd60e51b815260206004820152600d60248201527f43616e6e6f742063616e63656c000000000000000000000000000000000000006044820152606490fd5b5f92918154916138a983610856565b92600181169081156138f157506001146138c257505050565b90919293505f5260205f205f905b8382106138dd5750500190565b6001816020925484860152019101906138d0565b60ff191683525050811515909102019150565b1561390b57565b60405162461bcd60e51b815260206004820152600a60248201527f4e6f7420616374697665000000000000000000000000000000000000000000006044820152606490fd5b1561395757565b60405162461bcd60e51b815260206004820152600e60248201527f536f75726365206e6f74207365740000000000000000000000000000000000006044820152606490fd5b60016040918351815501916139d46001600160401b0360208301511684906001600160401b03166001600160401b0319825416179055565b01517fffffffff0000000000000000000000000000000000000000ffffffffffffffff7bffffffffffffffffffffffffffffffffffffffff000000000000000083549260401b169116179055565b15613a2957565b60405162461bcd60e51b815260206004820152600c60248201527f4e6f7420766572696669656400000000000000000000000000000000000000006044820152606490fd5b15613a7557565b60405162461bcd60e51b815260206004820152600c60248201527f4e6f20646576656c6f70657200000000000000000000000000000000000000006044820152606490fd5b9190600754613ac881610856565b15613b4757509182613ade613ae7939483612f8c565b61111442600d55565b602081519101207fb535cf007f0a63a526e02347e59f21e0dd977daf5e1e11a27c43ba9023ce961b6130ef613b1b4261271c565b6040519182918260408082526004908201526319da5cdd60e21b60608201529190602060808401930152565b6001600160401b0382116105ed5781613b62613b6792610856565b612816565b5f601f8211600114613be7578190613b9493945f92612f045750508160011b915f199060031b1c19161790565b6007555b7f10cb9add32e01b62b489374cdf443ef9e9efa95721256bda1f48a4c7feb5e9ad60405180613195428260408082526004908201526319da5cdd60e21b60608201529190602060808401930152565b60075f52601f198216937fa66cc928b5edb82af9bd49922954155ab7b0942694bea4ce44661d9a8736c688915f5b868110613c4f5750836001959610613c36575b505050811b01600755613b98565b01355f19600384901b60f8161c191690555f8080613c28565b90926020600181928686013581550194019101613c15565b6001600160a01b035f5460081c1633036114d157565b60027f9b779b17422d0df92223018b32b4d1fa46e071723d6817e2486d003becc55f005414613ccc5760027f9b779b17422d0df92223018b32b4d1fa46e071723d6817e2486d003becc55f0055565b633ee5aeb560e01b5f5260045ffd5b5f60206001600160a01b037f9e7b61f58c47dc699ac88507c4f5bb9f121c03808c5676a8078fe583e46497015416604460405180948193639cd07acb60e01b8352816004840152600560248401525af1908115610e21575f91613d3c575090565b610709915060203d602011610e1a57610e0d818361064c565b8015613d66575b6107093082615121565b50613d6f613cdb565b613d5c565b908115613df8575b6001600160a01b037f9e7b61f58c47dc699ac88507c4f5bb9f121c03808c5676a8078fe583e46497005416803b1561040357604051630f8e573b60e21b8152600481018490526001600160a01b039290921660248301525f908290604490829084905af18015610e2157613dee575090565b5f6107099161064c565b9050613e02613cdb565b90613d7c565b60ff5f5416613e1357565b63d93c066560e01b5f5260045ffd5b805160011015612cbe5760210190565b908151811015612cbe570160200190565b60ff60209116019060ff82116105f257565b5f5b8151811015613ef55780613e6d60019284613e32565b516001600160f81b031916604160f81b111580613ed1575b613e90575b01613e57565b613ebf613eaf613eaa613ea38487613e32565b5160f81c90565b613e43565b60f81b6001600160f81b03191690565b5f1a613ecb8285613e32565b53613e8a565b50613edc8184613e32565b51602d60f91b6001600160f81b03199091161115613e85565b5090565b60405190613f0860408361064c565b601082527f30313233343536373839616263646566000000000000000000000000000000006020830152565b60405160609190613f45838261064c565b602a815291601f1901366020840137565b90613f608261069d565b613f6d604051918261064c565b8281528092613f7e601f199161069d565b0190602036910137565b613f90613ef9565b9060601b6bffffffffffffffffffffffff1916613fab613f34565b916030613fb784612cb1565b536078613fc384613e22565b535f5b60148110613fd45750505090565b600190614031613ffd600f86841a61400b83613ff7600484901c85165b60ff1690565b89613e32565b516001600160f81b03191690565b61402961401f61401a88612886565b61273a565b915f1a918b613e32565b531685613e32565b61404f61404561404084612886565b612748565b915f1a9187613e32565b5301613fc6565b8151156140635760a00152565b63fe936cb760e01b5f5260045ffd5b60031115611f6957565b919061412060809261411a61408f6151da565b936140de60ff6040926140d784516140a7868261064c565b600681527f736c6f744944000000000000000000000000000000000000000000000000000060208201528961520a565b16866155c1565b6140ea8151918261064c565b600781527f76657273696f6e0000000000000000000000000000000000000000000000000060208201528461520a565b826155c1565b600260208401525151910152565b6040519061413d60408361064c565b600c82527f636f64654c6f636174696f6e00000000000000000000000000000000000000006020830152565b6040519061417860408361064c565b600882527f6c616e67756167650000000000000000000000000000000000000000000000006020830152565b60011115611f6957565b604051906141bd60408361064c565b600682527f736f7572636500000000000000000000000000000000000000000000000000006020830152565b604051906141f860408361064c565b60048252636172677360e01b6020830152565b6040519061421a60408361064c565b600f82527f736563726574734c6f636174696f6e00000000000000000000000000000000006020830152565b6040519061425560408361064c565b600782527f73656372657473000000000000000000000000000000000000000000000000006020830152565b6040519061429060408361064c565b600982527f62797465734172677300000000000000000000000000000000000000000000006020830152565b6142c46151da565b906142d66142d061412e565b8361520a565b6142f381516142e481614072565b6142ed81614072565b836152f1565b6142fe6142d0614169565b614318604082015161430f816141a4565b6142ed816141a4565b6143236142d06141ae565b61433160608201518361520a565b60a0810180515161442d575b5060808101908151516143b0575b60c091500180515161435e575b50515190565b9161436a6142d0614281565b6143738261531e565b5f5b8351805182101561439d579061439761439082600194612cf3565b518561537f565b01614375565b505091506143aa8161535d565b5f614358565b6020810180516143bf81614072565b6143c881614072565b1561441e5760c092614401614419926143e86143e261420b565b8861520a565b516143f281614072565b6143fb81614072565b866152f1565b61441261440c614246565b8661520a565b518461537f565b61434b565b63a80d31f760e01b5f5260045ffd5b9261443f6144396141e9565b8461520a565b6144488361531e565b5f5b84518051821015614472579061446c61446582600194612cf3565b518661520a565b0161444a565b5050925061447f8261535d565b5f61433d565b92906020926001600160401b039263ffffffff6144c4604051978896879663230e93b160e11b885216600487015260a0602487015260a4860190610a76565b9260016044860152166064840152608483015203815f6001600160a01b037f0000000000000000000000000000000000000000000000000000000000000000165af1908115610e21575f9161453d575b50807f1131472297a800fee664d1d89cfa8f7676ff07189ecc53f80bbb5f4969099db85f80a290565b614556915060203d602011610e1a57610e0d818361064c565b5f614514565b4660010361456957600190565b4662aa36a7036145795761271190565b617a694614614586575f90565b5f1990565b6145969136916106b8565b5f5b8151811015614685576145be6145b1613ffd8385613e32565b6001600160f81b03191690565b600360fc1b8110159081614676575b8115614652575b811561462e575b8115614620575b8115614612575b8115614604575b50156145fe57600101614598565b50505f90565b601760f91b1490505f6145f0565b605f60f81b811491506145e9565b602d60f81b811491506145e2565b9050606160f81b81101580614644575b906145db565b50603d60f91b81111561463e565b9050604160f81b81101580614668575b906145d4565b50602d60f91b811115614662565b603960f81b81111591506145cd565b5050600190565b80156105f2575f190190565b6001600160401b0316603001906001600160401b0382116105f257565b906001600160401b03821615614767575f825b6001600160401b03811661474057506146e081613f56565b905b6001600160401b0384166146f557509150565b61470161473a9161468c565b9361471d613eaf613ff1600a6001600160401b03851606614698565b5f1a6147298685613e32565b536001600160401b03600a91160490565b926146e2565b929061474e61475f9161367f565b936001600160401b03600a91160490565b9290926146c8565b905060405161477760408261064c565b60018152600360fc1b602082015290565b81519091901561479b5761070991615452565b50801561485f577f9e7b61f58c47dc699ac88507c4f5bb9f121c03808c5676a8078fe583e4649700546040516382027b6d60e01b81526004810183905233602482015290602090829060449082906001600160a01b03165afa8015610e21575f90614822575b1590505b61480c5790565b630276b5d960e01b5f526004523360245260445ffd5b506020813d602011614857575b8161483c6020938361064c565b81010312610403575180151581036104035761480590614801565b3d915061482f565b50610709613cdb565b90811561487a575b6107099082615121565b9050610709614887613cdb565b919050614870565b6020905f928115614916575b7f9e7b61f58c47dc699ac88507c4f5bb9f121c03808c5676a8078fe583e464970154604051630afe14ad60e31b81526004808201949094526001600160401b0390921684830190930192909252600160f81b604482015292839160649183916001600160a01b03165af1908115610e21575f91613d3c575090565b9050614920613cdb565b9061489b565b801561499e575b7f9e7b61f58c47dc699ac88507c4f5bb9f121c03808c5676a8078fe583e464970154604051635a53accb60e01b815260048101929092526127106024830152600160f81b6044830152602090829060649082905f906001600160a01b03165af1908115610e21575f91613d3c575090565b505f60206149aa613cdb565b91505061492d565b5f602091614a32938115614a55575b8015614a47575b7f9e7b61f58c47dc699ac88507c4f5bb9f121c03808c5676a8078fe583e4649701546040516303056db360e31b8152600481019390935260248301919091526001600160f81b031983166044830152909384926001600160a01b0390921691839182906064820190565b03925af1908115610e21575f91613d3c575090565b50614a50613cdb565b6149c8565b9050614a5f613cdb565b906149c1565b5f602091614a32938115614af3575b8015614ae5575b7f9e7b61f58c47dc699ac88507c4f5bb9f121c03808c5676a8078fe583e46497015460405163022f65e760e31b8152600481019390935260248301919091526001600160f81b031983166044830152909384926001600160a01b0390921691839182906064820190565b50614aee613cdb565b614a7b565b9050614afd613cdb565b90614a74565b90604051606081018181106001600160401b038211176105ed5760405260406001600160a01b03600183958054855201546001600160401b0381166020850152821c16910152565b91614b66614b61845f52601960205260405f2090565b614b03565b91614b87614b7c855f52601960205260405f2090565b60015f918281550155565b6001600160a01b03614ba360408501516001600160a01b031690565b1615614de7576005614bbe84515f52601360205260405f2090565b01916001614bcd845460ff1690565b614bd681611f5f565b03614d82575115801590614d79575b614d0e57614bfd614bf8614c0a92613e55565b611a5a565b546001600160a01b031690565b906001600160a01b038216938415614c9b575080547fffffffffffffffffffffff0000000000000000000000000000000000000000001660089290921b74ffffffffffffffffffffffffffffffffffffffff0016919091176002179055516040514281527f962f40a88d80b64dcac7b22c651abc60c383bfe35297a732d5fa093a486d1fc99080602081015b0390a3565b9350614cac915060ff198154169055565b517fb83b8ea8a1f7f95f875ac803c195014151ec50bcb4d12a6543f2f72010f43fce60405180614c968160609060208152601260208201527f446576206e6f742072656769737465726564000000000000000000000000000060408201520190565b50805460ff19169055517fb83b8ea8a1f7f95f875ac803c195014151ec50bcb4d12a6543f2f72010f43fce60405180614c968160609060208152601360208201527f566572696669636174696f6e206661696c65640000000000000000000000000060408201520190565b50805115614be5565b505050517fb83b8ea8a1f7f95f875ac803c195014151ec50bcb4d12a6543f2f72010f43fce60405180614c968160609060208152601860208201527f426f756e7479206e6f206c6f6e6765722070656e64696e67000000000000000060408201520190565b50505050565b90604051614dfa81610631565b6020614e16600183956001600160a01b038154168552016109d8565b910152565b600161067c915f8155016129ee565b60405190614e3960408361064c565b60028252614f4b60f01b6020830152565b90614e65614e60835f52601a60205260405f2090565b614ded565b92614e80614e7b845f52601a60205260405f2090565b614e1b565b83516001600160a01b0316801561511a576121d5614eaf916001600160a01b03165f52601760205260405f2090565b5115801590615111575b6150a15780516020820120614ecc614e2a565b6020815191012003615054575050614f0d614f08614ef183516001600160a01b031690565b6001600160a01b03165f52601660205260405f2090565b6109d8565b8051615032575b507f3aba431bb4cb7a523a1bbc4a8c56eef5c43f1911fdd33c86f0cb5806eb265bd66001600160a01b03614fcb6020840193614f53614bfd8651611a5a565b8381168015159081615008575b50614fdf575b50614fa0614f7b82516001600160a01b031690565b614f858751611a5a565b906001600160a01b03166001600160a01b0319825416179055565b614fbe8551614fb9614ef184516001600160a01b031690565b612d11565b516001600160a01b031690565b9251926130ef604051928392169482610a9a565b614ffd615002916001600160a01b03165f52601660205260405f2090565b6129ee565b5f614f66565b905061502a61501e84516001600160a01b031690565b6001600160a01b031690565b14155f614f60565b61503e61504e91611a5a565b6001600160a01b03198154169055565b5f614f14565b9091614c966001600160a01b036150937f61124f035e13c0339d6f581d7ea76efd308ddd94cfc9b64348fe8a9e4cd67c9593516001600160a01b031690565b169260405191829182610a9a565b5090516001600160a01b03908116167f61124f035e13c0339d6f581d7ea76efd308ddd94cfc9b64348fe8a9e4cd67c9560405180614c968160609060208152601360208201527f566572696669636174696f6e206661696c65640000000000000000000000000060408201520190565b50805115614eb9565b5050505050565b6001600160a01b037f9e7b61f58c47dc699ac88507c4f5bb9f121c03808c5676a8078fe583e4649700541691823b1561040357604051635ca4b5b160e11b815260048101929092526001600160a01b03166024820152905f908290604490829084905af18015610e21576151925750565b5f61067c9161064c565b8151156151b2575f808252604082015260600152565b6322ce3edd60e01b5f5260045ffd5b604051906151ce82610631565b5f602083606081520152565b6040516151e681610631565b5f6151ef6151c1565b8083526152056101006020850192848452615570565b505290565b81516152599291906001600160401b03166017811161525c5781516152449161523e906152376060613ff1565b1760ff1690565b9061579d565b505b51906152506151c1565b50805191615a07565b50565b60ff8111615289578151615283919061527b90601860605b179061579d565b508251615987565b50615246565b61ffff81116152ae57815161528391906152a69060196060615274565b50825161590e565b63ffffffff81116152d557815161528391906152cd90601a6060615274565b508251615895565b815161528391906152e990601b6060615274565b508251615817565b9061067c91615300815161572d565b506040519160208301526020825261531960408361064c565b61537f565b60209061532d609f825161579d565b5001805190600182018092116105f25752565b601f198101919082116105f257565b5f198101919082116105f257565b60209061536c60ff825161579d565b500180515f198101919082116105f25752565b81516152599291906001600160401b0316601781116153ac5781516152449161523e906152376040613ff1565b60ff81116153c8578151615283919061527b9060186040615274565b61ffff81116153e557815161528391906152a69060196040615274565b63ffffffff811161540457815161528391906152cd90601a6040615274565b815161528391906152e990601b6040615274565b94939290615442926001600160a01b03918752166020860152608060408601526080850190610a76565b926054821015611f695760600152565b60056020916154b494935f61549461501e61501e7f9e7b61f58c47dc699ac88507c4f5bb9f121c03808c5676a8078fe583e4649701546001600160a01b031690565b926040519788958694859363045fc19560e11b8552339060048601615418565b03925af1918215610e21575f9261554f575b50816154ff61501e61501e7f9e7b61f58c47dc699ac88507c4f5bb9f121c03808c5676a8078fe583e4649700546001600160a01b031690565b803b1561040357604051630f8e573b60e21b815260048101929092523360248301525f908290604490829084905af18015610e215761553b5750565b806155495f61067c9361064c565b806103f9565b61556991925060203d602011610e1a57610e0d818361064c565b905f6154c6565b906155796151c1565b50601f8116806155a7575b50806020830152604051908183525f825281016020019081106104035760405290565b602003602081116105f25781018091116105f2575f615584565b906001600160401b038116601781116155e8575090516152599161523e906152375f613ff1565b905060ff811161560c57815161525992906156059060185f615274565b5051615987565b61ffff811161562f57815161525992906156289060195f615274565b505161590e565b63ffffffff8111615654578151615259929061564d90601a5f615274565b5051615895565b8151615259929061566790601b5f615274565b5051615817565b906156776151c1565b5080516156826151c1565b506156908251821115615a00565b8251519161569e8284612764565b9060208501518211615716575b60209185518381519682010195821161570e575b505001905b60208110156156e8575f19906020036101000a019081199051169082511617905290565b90916157036156fd6157099285518152612756565b93612756565b91615340565b6156c4565b525f806156bf565b61572861572283612886565b86615aac565b6156ab565b6157356151c1565b5080515160018101908181116105f257602083015181101561576e575b60c26020845192830101538051821161576a57505090565b5290565b8160011b828104600214831517156105f2576157979061579085519186615570565b508461566e565b50615752565b906157a66151c1565b5081515160018101918282116105f25760208401518210156157d9575b6020845192830101538051821161576a57505090565b8260011b838104600214841517156105f257615802906157fb86519187615570565b508561566e565b506157c3565b601f81116105f2576101000a90565b906158206151c1565b508151518060080191826008116105f2576020840151831161586d575b61584f61584a6008615808565b61534f565b90600885519384010191198251161790528051821161576a57505090565b8260011b838104600214841517156105f25761588f906157fb86519187615570565b5061583d565b9061589e6151c1565b508151518060040191826004116105f257602084015183116158e6575b6158c861584a6004615808565b90600485519384010191198251161790528051821161576a57505090565b8260011b838104600214841517156105f257615908906157fb86519187615570565b506158bb565b906159176151c1565b508151518060020191826002116105f2576020840151831161595f575b61594161584a6002615808565b90600285519384010191198251161790528051821161576a57505090565b8260011b838104600214841517156105f257615981906157fb86519187615570565b50615934565b906159906151c1565b508151518060010191826001116105f257602084015183116159d8575b6159ba61584a6001615808565b90600185519384010191198251161790528051821161576a57505090565b8260011b838104600214841517156105f2576159fa906157fb86519187615570565b506159ad565b1561040357565b91615a106151c1565b50615a1e8251821115615a00565b602083515192615a2e8385612764565b828601518111615a95575b855183815196820101958211615a8d575b505001905b6020811015615a73575f19906020036101000a019081199051169082511617905290565b90916157036156fd615a889285518152612756565b615a4f565b525f80615a4a565b615aa7615aa182612886565b87615aac565b615a39565b9061525991615abd81519282615570565b5061566e56fea164736f6c634300081b000a9e7b61f58c47dc699ac88507c4f5bb9f121c03808c5676a8078fe583e46497019e7b61f58c47dc699ac88507c4f5bb9f121c03808c5676a8078fe583e4649700",
  "devdoc": {
    "details": "Owner SHOULD be a multisig (e.g. Gnosis Safe) for production deployments.",
    "errors": {
      "EnforcedPause()": [
        {
          "details": "The operation failed because the contract is paused."
        }
      ],
      "ExpectedPause()": [
        {
          "details": "The operation failed because the contract is not paused."
        }
      ],
      "OwnableInvalidOwner(address)": [
        {
          "details": "The owner is not a valid owner account. (eg. `address(0)`)"
        }
      ],
      "OwnableUnauthorizedAccount(address)": [
        {
          "details": "The caller account is not authorized to perform an operation."
        }
      ],
      "ReentrancyGuardReentrantCall()": [
        {
          "details": "Unauthorized reentrant call."
        }
      ]
    },
    "events": {
      "Paused(address)": {
        "details": "Emitted when the pause is triggered by `account`."
      },
      "Unpaused(address)": {
        "details": "Emitted when the pause is lifted by `account`."
      }
    },
    "kind": "dev",
    "methods": {
      "acceptOwnership()": {
        "details": "The new owner accepts the ownership transfer."
      },
      "handleOracleFulfillment(bytes32,bytes,bytes)": {
        "details": "Either response or error parameter will be set, but never both.",
        "params": {
          "err": "Aggregated error either from the request's source code or from the execution pipeline.",
          "requestId": "The requestId returned by FunctionsClient.sendRequest().",
          "response": "Aggregated response from the request's source code."
        }
      },
      "owner()": {
        "details": "Returns the address of the current owner."
      },
      "paused()": {
        "details": "Returns true if the contract is paused, and false otherwise."
      },
      "pendingOwner()": {
        "details": "Returns the address of the pending owner."
      },
      "registerDev(string,string)": {
        "params": {
          "gistId": "The ID of your public gist containing your ETH address",
          "githubUsername": "Your GitHub username"
        }
      },
      "renounceOwnership()": {
        "details": "Leaves the contract without owner. It will not be possible to call `onlyOwner` functions. Can only be called by the current owner. NOTE: Renouncing ownership will leave the contract without an owner, thereby disabling any functionality that is only available to the owner."
      },
      "transferOwnership(address)": {
        "details": "Starts the ownership transfer of the contract to a new account. Replaces the pending transfer if there is one. Can only be called by the current owner. Setting `newOwner` to the zero address is allowed; this can be used to cancel an initiated ownership transfer."
      }
    },
    "stateVariables": {
      "claimVerificationSource": {
        "details": "JS source for bounty claim verification"
      },
      "devGithub": {
        "details": "ETH address → lowercase GitHub username"
      },
      "devRegistry": {
        "details": "Lowercase GitHub username → ETH address"
      },
      "devVerificationPending": {
        "details": "Track pending verifications"
      },
      "gistVerificationSource": {
        "details": "JS source for GitHub gist identity verification"
      },
      "issueBountyId": {
        "details": "Prevent duplicate bounties per issue: keccak256(repoOwner/repoName#issue) → bountyId+1"
      },
      "secretsSlotId": {
        "details": "DON-hosted secrets"
      }
    },
    "title": "GhostBounty — Decentralized GitHub Bounty Protocol with Confidential Payments",
    "version": 1
  },
  "userdoc": {
    "errors": {
      "SenderNotAllowedToUseHandle(bytes32,address)": [
        {
          "notice": "Returned if the sender is not allowed to use the handle."
        }
      ],
      "ZamaProtocolUnsupported()": [
        {
          "notice": "Returned if the Zama protocol is not supported on the current chain"
        }
      ]
    },
    "kind": "user",
    "methods": {
      "cancelBounty(uint256)": {
        "notice": "Cancel a bounty and get the escrow back. Works for Active or Pending bounties."
      },
      "claimBounty(uint256,uint64)": {
        "notice": "Initiate a bounty claim. Sends a Chainlink Functions request to verify         the PR is merged and references the bounty's issue."
      },
      "createBounty(string,string,uint64,bytes32,bytes)": {
        "notice": "Create a bounty for a GitHub issue with an encrypted reward"
      },
      "executeClaim(uint256)": {
        "notice": "Execute the FHE payment for a verified bounty claim.         Anyone can call this after Chainlink verification succeeds."
      },
      "getBountyAmount(uint256)": {
        "notice": "Get encrypted bounty amount (only creator or claimed developer)"
      },
      "handleOracleFulfillment(bytes32,bytes,bytes)": {
        "notice": "Chainlink Functions response handler called by the Functions Router during fullilment from the designated transmitter node in an OCR round."
      },
      "proposeClaimSource(string)": {
        "notice": "Propose new claim verification JS source (48h timelock)"
      },
      "proposeGistSource(string)": {
        "notice": "Propose new gist verification JS source (48h timelock)"
      },
      "registerDev(string,string)": {
        "notice": "Register your GitHub username with proof via gist.         Create a public gist containing your ETH address, then call this."
      },
      "secretsValid()": {
        "notice": "Check if secrets are still valid"
      }
    },
    "notice": "Production-hardened version with:   - Chainlink-verified GitHub identity (gist verification)   - Bounty status machine (Active → Pending → Claimed/Cancelled)   - 48h timelock on JS source changes   - Input sanitization, case-insensitive usernames, string limits   - FHE-encrypted bounty amounts (nobody sees payment amounts)",
    "version": 1
  },
  "storageLayout": {
    "storage": [
      {
        "astId": 45119,
        "contract": "contracts/bounty/GhostBounty.sol:GhostBounty",
        "label": "_paused",
        "offset": 0,
        "slot": "0",
        "type": "t_bool"
      },
      {
        "astId": 44232,
        "contract": "contracts/bounty/GhostBounty.sol:GhostBounty",
        "label": "_owner",
        "offset": 1,
        "slot": "0",
        "type": "t_address"
      },
      {
        "astId": 44380,
        "contract": "contracts/bounty/GhostBounty.sol:GhostBounty",
        "label": "_pendingOwner",
        "offset": 0,
        "slot": "1",
        "type": "t_address"
      },
      {
        "astId": 46633,
        "contract": "contracts/bounty/GhostBounty.sol:GhostBounty",
        "label": "donId",
        "offset": 0,
        "slot": "2",
        "type": "t_bytes32"
      },
      {
        "astId": 46635,
        "contract": "contracts/bounty/GhostBounty.sol:GhostBounty",
        "label": "subscriptionId",
        "offset": 0,
        "slot": "3",
        "type": "t_uint64"
      },
      {
        "astId": 46638,
        "contract": "contracts/bounty/GhostBounty.sol:GhostBounty",
        "label": "callbackGasLimit",
        "offset": 8,
        "slot": "3",
        "type": "t_uint32"
      },
      {
        "astId": 46640,
        "contract": "contracts/bounty/GhostBounty.sol:GhostBounty",
        "label": "feeBps",
        "offset": 0,
        "slot": "4",
        "type": "t_uint256"
      },
      {
        "astId": 46642,
        "contract": "contracts/bounty/GhostBounty.sol:GhostBounty",
        "label": "treasury",
        "offset": 0,
        "slot": "5",
        "type": "t_address"
      },
      {
        "astId": 46645,
        "contract": "contracts/bounty/GhostBounty.sol:GhostBounty",
        "label": "claimVerificationSource",
        "offset": 0,
        "slot": "6",
        "type": "t_string_storage"
      },
      {
        "astId": 46648,
        "contract": "contracts/bounty/GhostBounty.sol:GhostBounty",
        "label": "gistVerificationSource",
        "offset": 0,
        "slot": "7",
        "type": "t_string_storage"
      },
      {
        "astId": 46651,
        "contract": "contracts/bounty/GhostBounty.sol:GhostBounty",
        "label": "secretsSlotId",
        "offset": 0,
        "slot": "8",
        "type": "t_uint8"
      },
      {
        "astId": 46653,
        "contract": "contracts/bounty/GhostBounty.sol:GhostBounty",
        "label": "secretsVersion",
        "offset": 1,
        "slot": "8",
        "type": "t_uint64"
      },
      {
        "astId": 46655,
        "contract": "contracts/bounty/GhostBounty.sol:GhostBounty",
        "label": "secretsExpiration",
        "offset": 0,
        "slot": "9",
        "type": "t_uint256"
      },
      {
        "astId": 46657,
        "contract": "contracts/bounty/GhostBounty.sol:GhostBounty",
        "label": "pendingClaimSource",
        "offset": 0,
        "slot": "10",
        "type": "t_string_storage"
      },
      {
        "astId": 46659,
        "contract": "contracts/bounty/GhostBounty.sol:GhostBounty",
        "label": "pendingClaimSourceTimestamp",
        "offset": 0,
        "slot": "11",
        "type": "t_uint256"
      },
      {
        "astId": 46661,
        "contract": "contracts/bounty/GhostBounty.sol:GhostBounty",
        "label": "pendingGistSource",
        "offset": 0,
        "slot": "12",
        "type": "t_string_storage"
      },
      {
        "astId": 46663,
        "contract": "contracts/bounty/GhostBounty.sol:GhostBounty",
        "label": "pendingGistSourceTimestamp",
        "offset": 0,
        "slot": "13",
        "type": "t_uint256"
      },
      {
        "astId": 46665,
        "contract": "contracts/bounty/GhostBounty.sol:GhostBounty",
        "label": "pendingFeeBps",
        "offset": 0,
        "slot": "14",
        "type": "t_uint256"
      },
      {
        "astId": 46667,
        "contract": "contracts/bounty/GhostBounty.sol:GhostBounty",
        "label": "pendingFeeTimestamp",
        "offset": 0,
        "slot": "15",
        "type": "t_uint256"
      },
      {
        "astId": 46669,
        "contract": "contracts/bounty/GhostBounty.sol:GhostBounty",
        "label": "pendingTreasury",
        "offset": 0,
        "slot": "16",
        "type": "t_address"
      },
      {
        "astId": 46671,
        "contract": "contracts/bounty/GhostBounty.sol:GhostBounty",
        "label": "pendingTreasuryTimestamp",
        "offset": 0,
        "slot": "17",
        "type": "t_uint256"
      },
      {
        "astId": 46698,
        "contract": "contracts/bounty/GhostBounty.sol:GhostBounty",
        "label": "bountyCount",
        "offset": 0,
        "slot": "18",
        "type": "t_uint256"
      },
      {
        "astId": 46703,
        "contract": "contracts/bounty/GhostBounty.sol:GhostBounty",
        "label": "_bounties",
        "offset": 0,
        "slot": "19",
        "type": "t_mapping(t_uint256,t_struct(Bounty)46696_storage)"
      },
      {
        "astId": 46708,
        "contract": "contracts/bounty/GhostBounty.sol:GhostBounty",
        "label": "issueBountyId",
        "offset": 0,
        "slot": "20",
        "type": "t_mapping(t_bytes32,t_uint256)"
      },
      {
        "astId": 46713,
        "contract": "contracts/bounty/GhostBounty.sol:GhostBounty",
        "label": "devRegistry",
        "offset": 0,
        "slot": "21",
        "type": "t_mapping(t_string_memory_ptr,t_address)"
      },
      {
        "astId": 46718,
        "contract": "contracts/bounty/GhostBounty.sol:GhostBounty",
        "label": "devGithub",
        "offset": 0,
        "slot": "22",
        "type": "t_mapping(t_address,t_string_storage)"
      },
      {
        "astId": 46723,
        "contract": "contracts/bounty/GhostBounty.sol:GhostBounty",
        "label": "devVerificationPending",
        "offset": 0,
        "slot": "23",
        "type": "t_mapping(t_address,t_bool)"
      },
      {
        "astId": 46743,
        "contract": "contracts/bounty/GhostBounty.sol:GhostBounty",
        "label": "_requestTypes",
        "offset": 0,
        "slot": "24",
        "type": "t_mapping(t_bytes32,t_enum(RequestType)46726)"
      },
      {
        "astId": 46748,
        "contract": "contracts/bounty/GhostBounty.sol:GhostBounty",
        "label": "_pendingClaims",
        "offset": 0,
        "slot": "25",
        "type": "t_mapping(t_bytes32,t_struct(PendingClaim)46733_storage)"
      },
      {
        "astId": 46753,
        "contract": "contracts/bounty/GhostBounty.sol:GhostBounty",
        "label": "_pendingRegistrations",
        "offset": 0,
        "slot": "26",
        "type": "t_mapping(t_bytes32,t_struct(PendingRegistration)46738_storage)"
      },
      {
        "astId": 46756,
        "contract": "contracts/bounty/GhostBounty.sol:GhostBounty",
        "label": "_accruedFees",
        "offset": 0,
        "slot": "27",
        "type": "t_userDefinedValueType(euint64)54232"
      }
    ],
    "types": {
      "t_address": {
        "encoding": "inplace",
        "label": "address",
        "numberOfBytes": "20"
      },
      "t_bool": {
        "encoding": "inplace",
        "label": "bool",
        "numberOfBytes": "1"
      },
      "t_bytes32": {
        "encoding": "inplace",
        "label": "bytes32",
        "numberOfBytes": "32"
      },
      "t_enum(BountyStatus)46677": {
        "encoding": "inplace",
        "label": "enum GhostBounty.BountyStatus",
        "numberOfBytes": "1"
      },
      "t_enum(RequestType)46726": {
        "encoding": "inplace",
        "label": "enum GhostBounty.RequestType",
        "numberOfBytes": "1"
      },
      "t_mapping(t_address,t_bool)": {
        "encoding": "mapping",
        "key": "t_address",
        "label": "mapping(address => bool)",
        "numberOfBytes": "32",
        "value": "t_bool"
      },
      "t_mapping(t_address,t_string_storage)": {
        "encoding": "mapping",
        "key": "t_address",
        "label": "mapping(address => string)",
        "numberOfBytes": "32",
        "value": "t_string_storage"
      },
      "t_mapping(t_bytes32,t_enum(RequestType)46726)": {
        "encoding": "mapping",
        "key": "t_bytes32",
        "label": "mapping(bytes32 => enum GhostBounty.RequestType)",
        "numberOfBytes": "32",
        "value": "t_enum(RequestType)46726"
      },
      "t_mapping(t_bytes32,t_struct(PendingClaim)46733_storage)": {
        "encoding": "mapping",
        "key": "t_bytes32",
        "label": "mapping(bytes32 => struct GhostBounty.PendingClaim)",
        "numberOfBytes": "32",
        "value": "t_struct(PendingClaim)46733_storage"
      },
      "t_mapping(t_bytes32,t_struct(PendingRegistration)46738_storage)": {
        "encoding": "mapping",
        "key": "t_bytes32",
        "label": "mapping(bytes32 => struct GhostBounty.PendingRegistration)",
        "numberOfBytes": "32",
        "value": "t_struct(PendingRegistration)46738_storage"
      },
      "t_mapping(t_bytes32,t_uint256)": {
        "encoding": "mapping",
        "key": "t_bytes32",
        "label": "mapping(bytes32 => uint256)",
        "numberOfBytes": "32",
        "value": "t_uint256"
      },
      "t_mapping(t_string_memory_ptr,t_address)": {
        "encoding": "mapping",
        "key": "t_string_memory_ptr",
        "label": "mapping(string => address)",
        "numberOfBytes": "32",
        "value": "t_address"
      },
      "t_mapping(t_uint256,t_struct(Bounty)46696_storage)": {
        "encoding": "mapping",
        "key": "t_uint256",
        "label": "mapping(uint256 => struct GhostBounty.Bounty)",
        "numberOfBytes": "32",
        "value": "t_struct(Bounty)46696_storage"
      },
      "t_string_memory_ptr": {
        "encoding": "bytes",
        "label": "string",
        "numberOfBytes": "32"
      },
      "t_string_storage": {
        "encoding": "bytes",
        "label": "string",
        "numberOfBytes": "32"
      },
      "t_struct(Bounty)46696_storage": {
        "encoding": "inplace",
        "label": "struct GhostBounty.Bounty",
        "members": [
          {
            "astId": 46679,
            "contract": "contracts/bounty/GhostBounty.sol:GhostBounty",
            "label": "creator",
            "offset": 0,
            "slot": "0",
            "type": "t_address"
          },
          {
            "astId": 46681,
            "contract": "contracts/bounty/GhostBounty.sol:GhostBounty",
            "label": "repoOwner",
            "offset": 0,
            "slot": "1",
            "type": "t_string_storage"
          },
          {
            "astId": 46683,
            "contract": "contracts/bounty/GhostBounty.sol:GhostBounty",
            "label": "repoName",
            "offset": 0,
            "slot": "2",
            "type": "t_string_storage"
          },
          {
            "astId": 46685,
            "contract": "contracts/bounty/GhostBounty.sol:GhostBounty",
            "label": "issueNumber",
            "offset": 0,
            "slot": "3",
            "type": "t_uint64"
          },
          {
            "astId": 46688,
            "contract": "contracts/bounty/GhostBounty.sol:GhostBounty",
            "label": "encryptedAmount",
            "offset": 0,
            "slot": "4",
            "type": "t_userDefinedValueType(euint64)54232"
          },
          {
            "astId": 46691,
            "contract": "contracts/bounty/GhostBounty.sol:GhostBounty",
            "label": "status",
            "offset": 0,
            "slot": "5",
            "type": "t_enum(BountyStatus)46677"
          },
          {
            "astId": 46693,
            "contract": "contracts/bounty/GhostBounty.sol:GhostBounty",
            "label": "claimedBy",
            "offset": 1,
            "slot": "5",
            "type": "t_address"
          },
          {
            "astId": 46695,
            "contract": "contracts/bounty/GhostBounty.sol:GhostBounty",
            "label": "createdAt",
            "offset": 0,
            "slot": "6",
            "type": "t_uint256"
          }
        ],
        "numberOfBytes": "224"
      },
      "t_struct(PendingClaim)46733_storage": {
        "encoding": "inplace",
        "label": "struct GhostBounty.PendingClaim",
        "members": [
          {
            "astId": 46728,
            "contract": "contracts/bounty/GhostBounty.sol:GhostBounty",
            "label": "bountyId",
            "offset": 0,
            "slot": "0",
            "type": "t_uint256"
          },
          {
            "astId": 46730,
            "contract": "contracts/bounty/GhostBounty.sol:GhostBounty",
            "label": "prNumber",
            "offset": 0,
            "slot": "1",
            "type": "t_uint64"
          },
          {
            "astId": 46732,
            "contract": "contracts/bounty/GhostBounty.sol:GhostBounty",
            "label": "claimer",
            "offset": 8,
            "slot": "1",
            "type": "t_address"
          }
        ],
        "numberOfBytes": "64"
      },
      "t_struct(PendingRegistration)46738_storage": {
        "encoding": "inplace",
        "label": "struct GhostBounty.PendingRegistration",
        "members": [
          {
            "astId": 46735,
            "contract": "contracts/bounty/GhostBounty.sol:GhostBounty",
            "label": "dev",
            "offset": 0,
            "slot": "0",
            "type": "t_address"
          },
          {
            "astId": 46737,
            "contract": "contracts/bounty/GhostBounty.sol:GhostBounty",
            "label": "githubUsername",
            "offset": 0,
            "slot": "1",
            "type": "t_string_storage"
          }
        ],
        "numberOfBytes": "64"
      },
      "t_uint256": {
        "encoding": "inplace",
        "label": "uint256",
        "numberOfBytes": "32"
      },
      "t_uint32": {
        "encoding": "inplace",
        "label": "uint32",
        "numberOfBytes": "4"
      },
      "t_uint64": {
        "encoding": "inplace",
        "label": "uint64",
        "numberOfBytes": "8"
      },
      "t_uint8": {
        "encoding": "inplace",
        "label": "uint8",
        "numberOfBytes": "1"
      },
      "t_userDefinedValueType(euint64)54232": {
        "encoding": "inplace",
        "label": "euint64",
        "numberOfBytes": "32"
      }
    }
  }
}