{
  "address": "0x15eF2AF4A8553f49c19C397788c4d5a7e2220a59",
  "abi": [
    {
      "inputs": [
        {
          "internalType": "address",
          "name": "_router",
          "type": "address"
        },
        {
          "internalType": "address",
          "name": "_cToken",
          "type": "address"
        },
        {
          "internalType": "address",
          "name": "_treasury",
          "type": "address"
        },
        {
          "internalType": "uint256",
          "name": "_feeBps",
          "type": "uint256"
        },
        {
          "internalType": "bytes32",
          "name": "_donId",
          "type": "bytes32"
        },
        {
          "internalType": "uint64",
          "name": "_subscriptionId",
          "type": "uint64"
        }
      ],
      "stateMutability": "nonpayable",
      "type": "constructor"
    },
    {
      "inputs": [],
      "name": "EmptyArgs",
      "type": "error"
    },
    {
      "inputs": [],
      "name": "EmptySource",
      "type": "error"
    },
    {
      "inputs": [],
      "name": "EnforcedPause",
      "type": "error"
    },
    {
      "inputs": [],
      "name": "ExpectedPause",
      "type": "error"
    },
    {
      "inputs": [],
      "name": "NoInlineSecrets",
      "type": "error"
    },
    {
      "inputs": [],
      "name": "OnlyRouterCanFulfill",
      "type": "error"
    },
    {
      "inputs": [
        {
          "internalType": "address",
          "name": "owner",
          "type": "address"
        }
      ],
      "name": "OwnableInvalidOwner",
      "type": "error"
    },
    {
      "inputs": [
        {
          "internalType": "address",
          "name": "account",
          "type": "address"
        }
      ],
      "name": "OwnableUnauthorizedAccount",
      "type": "error"
    },
    {
      "inputs": [],
      "name": "ReentrancyGuardReentrantCall",
      "type": "error"
    },
    {
      "inputs": [
        {
          "internalType": "bytes32",
          "name": "handle",
          "type": "bytes32"
        },
        {
          "internalType": "address",
          "name": "sender",
          "type": "address"
        }
      ],
      "name": "SenderNotAllowedToUseHandle",
      "type": "error"
    },
    {
      "inputs": [],
      "name": "ZamaProtocolUnsupported",
      "type": "error"
    },
    {
      "anonymous": false,
      "inputs": [
        {
          "indexed": true,
          "internalType": "uint256",
          "name": "bountyId",
          "type": "uint256"
        },
        {
          "indexed": false,
          "internalType": "uint256",
          "name": "timestamp",
          "type": "uint256"
        }
      ],
      "name": "BountyCancelled",
      "type": "event"
    },
    {
      "anonymous": false,
      "inputs": [
        {
          "indexed": true,
          "internalType": "uint256",
          "name": "bountyId",
          "type": "uint256"
        },
        {
          "indexed": false,
          "internalType": "string",
          "name": "repoOwner",
          "type": "string"
        },
        {
          "indexed": false,
          "internalType": "string",
          "name": "repoName",
          "type": "string"
        },
        {
          "indexed": false,
          "internalType": "uint64",
          "name": "issueNumber",
          "type": "uint64"
        },
        {
          "indexed": false,
          "internalType": "uint256",
          "name": "timestamp",
          "type": "uint256"
        }
      ],
      "name": "BountyCreated",
      "type": "event"
    },
    {
      "anonymous": false,
      "inputs": [
        {
          "indexed": true,
          "internalType": "uint256",
          "name": "bountyId",
          "type": "uint256"
        },
        {
          "indexed": true,
          "internalType": "address",
          "name": "developer",
          "type": "address"
        },
        {
          "indexed": false,
          "internalType": "uint256",
          "name": "timestamp",
          "type": "uint256"
        }
      ],
      "name": "BountyPaid",
      "type": "event"
    },
    {
      "anonymous": false,
      "inputs": [
        {
          "indexed": true,
          "internalType": "uint256",
          "name": "bountyId",
          "type": "uint256"
        },
        {
          "indexed": true,
          "internalType": "address",
          "name": "developer",
          "type": "address"
        },
        {
          "indexed": false,
          "internalType": "uint256",
          "name": "timestamp",
          "type": "uint256"
        }
      ],
      "name": "BountyVerified",
      "type": "event"
    },
    {
      "anonymous": false,
      "inputs": [
        {
          "indexed": false,
          "internalType": "uint32",
          "name": "newLimit",
          "type": "uint32"
        }
      ],
      "name": "CallbackGasLimitUpdated",
      "type": "event"
    },
    {
      "anonymous": false,
      "inputs": [
        {
          "indexed": true,
          "internalType": "uint256",
          "name": "bountyId",
          "type": "uint256"
        },
        {
          "indexed": true,
          "internalType": "bytes32",
          "name": "requestId",
          "type": "bytes32"
        },
        {
          "indexed": false,
          "internalType": "string",
          "name": "reason",
          "type": "string"
        }
      ],
      "name": "ClaimFailed",
      "type": "event"
    },
    {
      "anonymous": false,
      "inputs": [
        {
          "indexed": true,
          "internalType": "uint256",
          "name": "bountyId",
          "type": "uint256"
        },
        {
          "indexed": true,
          "internalType": "bytes32",
          "name": "requestId",
          "type": "bytes32"
        },
        {
          "indexed": false,
          "internalType": "uint64",
          "name": "prNumber",
          "type": "uint64"
        },
        {
          "indexed": false,
          "internalType": "uint256",
          "name": "timestamp",
          "type": "uint256"
        }
      ],
      "name": "ClaimRequested",
      "type": "event"
    },
    {
      "anonymous": false,
      "inputs": [
        {
          "indexed": true,
          "internalType": "address",
          "name": "dev",
          "type": "address"
        },
        {
          "indexed": false,
          "internalType": "string",
          "name": "githubUsername",
          "type": "string"
        }
      ],
      "name": "DevRegistered",
      "type": "event"
    },
    {
      "anonymous": false,
      "inputs": [
        {
          "indexed": true,
          "internalType": "address",
          "name": "dev",
          "type": "address"
        },
        {
          "indexed": true,
          "internalType": "bytes32",
          "name": "requestId",
          "type": "bytes32"
        },
        {
          "indexed": false,
          "internalType": "string",
          "name": "reason",
          "type": "string"
        }
      ],
      "name": "DevRegistrationFailed",
      "type": "event"
    },
    {
      "anonymous": false,
      "inputs": [
        {
          "indexed": true,
          "internalType": "address",
          "name": "dev",
          "type": "address"
        },
        {
          "indexed": false,
          "internalType": "string",
          "name": "githubUsername",
          "type": "string"
        },
        {
          "indexed": true,
          "internalType": "bytes32",
          "name": "requestId",
          "type": "bytes32"
        }
      ],
      "name": "DevRegistrationRequested",
      "type": "event"
    },
    {
      "anonymous": false,
      "inputs": [
        {
          "indexed": false,
          "internalType": "bytes32",
          "name": "newDonId",
          "type": "bytes32"
        }
      ],
      "name": "DonIdUpdated",
      "type": "event"
    },
    {
      "anonymous": false,
      "inputs": [
        {
          "indexed": false,
          "internalType": "uint256",
          "name": "newFeeBps",
          "type": "uint256"
        }
      ],
      "name": "FeeChangeExecuted",
      "type": "event"
    },
    {
      "anonymous": false,
      "inputs": [
        {
          "indexed": false,
          "internalType": "uint256",
          "name": "newFeeBps",
          "type": "uint256"
        },
        {
          "indexed": false,
          "internalType": "uint256",
          "name": "executeAfter",
          "type": "uint256"
        }
      ],
      "name": "FeeChangeProposed",
      "type": "event"
    },
    {
      "anonymous": false,
      "inputs": [
        {
          "indexed": true,
          "internalType": "address",
          "name": "treasury",
          "type": "address"
        }
      ],
      "name": "FeesCollected",
      "type": "event"
    },
    {
      "anonymous": false,
      "inputs": [
        {
          "indexed": true,
          "internalType": "address",
          "name": "previousOwner",
          "type": "address"
        },
        {
          "indexed": true,
          "internalType": "address",
          "name": "newOwner",
          "type": "address"
        }
      ],
      "name": "OwnershipTransferStarted",
      "type": "event"
    },
    {
      "anonymous": false,
      "inputs": [
        {
          "indexed": true,
          "internalType": "address",
          "name": "previousOwner",
          "type": "address"
        },
        {
          "indexed": true,
          "internalType": "address",
          "name": "newOwner",
          "type": "address"
        }
      ],
      "name": "OwnershipTransferred",
      "type": "event"
    },
    {
      "anonymous": false,
      "inputs": [
        {
          "indexed": false,
          "internalType": "address",
          "name": "account",
          "type": "address"
        }
      ],
      "name": "Paused",
      "type": "event"
    },
    {
      "anonymous": false,
      "inputs": [
        {
          "indexed": true,
          "internalType": "bytes32",
          "name": "id",
          "type": "bytes32"
        }
      ],
      "name": "RequestFulfilled",
      "type": "event"
    },
    {
      "anonymous": false,
      "inputs": [
        {
          "indexed": true,
          "internalType": "bytes32",
          "name": "id",
          "type": "bytes32"
        }
      ],
      "name": "RequestSent",
      "type": "event"
    },
    {
      "anonymous": false,
      "inputs": [
        {
          "indexed": false,
          "internalType": "uint8",
          "name": "slotId",
          "type": "uint8"
        },
        {
          "indexed": false,
          "internalType": "uint64",
          "name": "version",
          "type": "uint64"
        },
        {
          "indexed": false,
          "internalType": "uint256",
          "name": "expiration",
          "type": "uint256"
        }
      ],
      "name": "SecretsUpdated",
      "type": "event"
    },
    {
      "anonymous": false,
      "inputs": [
        {
          "indexed": false,
          "internalType": "string",
          "name": "sourceType",
          "type": "string"
        }
      ],
      "name": "SourceChangeCancelled",
      "type": "event"
    },
    {
      "anonymous": false,
      "inputs": [
        {
          "indexed": false,
          "internalType": "string",
          "name": "sourceType",
          "type": "string"
        },
        {
          "indexed": false,
          "internalType": "uint256",
          "name": "timestamp",
          "type": "uint256"
        }
      ],
      "name": "SourceChangeExecuted",
      "type": "event"
    },
    {
      "anonymous": false,
      "inputs": [
        {
          "indexed": false,
          "internalType": "string",
          "name": "sourceType",
          "type": "string"
        },
        {
          "indexed": true,
          "internalType": "bytes32",
          "name": "sourceHash",
          "type": "bytes32"
        },
        {
          "indexed": false,
          "internalType": "uint256",
          "name": "executeAfter",
          "type": "uint256"
        }
      ],
      "name": "SourceChangeProposed",
      "type": "event"
    },
    {
      "anonymous": false,
      "inputs": [
        {
          "indexed": false,
          "internalType": "uint64",
          "name": "newSubId",
          "type": "uint64"
        }
      ],
      "name": "SubscriptionIdUpdated",
      "type": "event"
    },
    {
      "anonymous": false,
      "inputs": [
        {
          "indexed": false,
          "internalType": "address",
          "name": "newTreasury",
          "type": "address"
        }
      ],
      "name": "TreasuryChangeExecuted",
      "type": "event"
    },
    {
      "anonymous": false,
      "inputs": [
        {
          "indexed": false,
          "internalType": "address",
          "name": "newTreasury",
          "type": "address"
        },
        {
          "indexed": false,
          "internalType": "uint256",
          "name": "executeAfter",
          "type": "uint256"
        }
      ],
      "name": "TreasuryChangeProposed",
      "type": "event"
    },
    {
      "anonymous": false,
      "inputs": [
        {
          "indexed": false,
          "internalType": "address",
          "name": "account",
          "type": "address"
        }
      ],
      "name": "Unpaused",
      "type": "event"
    },
    {
      "inputs": [],
      "name": "ADMIN_TIMELOCK",
      "outputs": [
        {
          "internalType": "uint256",
          "name": "",
          "type": "uint256"
        }
      ],
      "stateMutability": "view",
      "type": "function"
    },
    {
      "inputs": [],
      "name": "BOUNTY_CLAIM_COOLDOWN",
      "outputs": [
        {
          "internalType": "uint256",
          "name": "",
          "type": "uint256"
        }
      ],
      "stateMutability": "view",
      "type": "function"
    },
    {
      "inputs": [],
      "name": "CLAIM_COOLDOWN",
      "outputs": [
        {
          "internalType": "uint256",
          "name": "",
          "type": "uint256"
        }
      ],
      "stateMutability": "view",
      "type": "function"
    },
    {
      "inputs": [],
      "name": "MAX_FEE_BPS",
      "outputs": [
        {
          "internalType": "uint256",
          "name": "",
          "type": "uint256"
        }
      ],
      "stateMutability": "view",
      "type": "function"
    },
    {
      "inputs": [],
      "name": "MAX_REPO_LENGTH",
      "outputs": [
        {
          "internalType": "uint256",
          "name": "",
          "type": "uint256"
        }
      ],
      "stateMutability": "view",
      "type": "function"
    },
    {
      "inputs": [],
      "name": "MAX_USERNAME_LENGTH",
      "outputs": [
        {
          "internalType": "uint256",
          "name": "",
          "type": "uint256"
        }
      ],
      "stateMutability": "view",
      "type": "function"
    },
    {
      "inputs": [],
      "name": "PENDING_TIMEOUT",
      "outputs": [
        {
          "internalType": "uint256",
          "name": "",
          "type": "uint256"
        }
      ],
      "stateMutability": "view",
      "type": "function"
    },
    {
      "inputs": [],
      "name": "REGISTRATION_COOLDOWN",
      "outputs": [
        {
          "internalType": "uint256",
          "name": "",
          "type": "uint256"
        }
      ],
      "stateMutability": "view",
      "type": "function"
    },
    {
      "inputs": [],
      "name": "SOURCE_TIMELOCK",
      "outputs": [
        {
          "internalType": "uint256",
          "name": "",
          "type": "uint256"
        }
      ],
      "stateMutability": "view",
      "type": "function"
    },
    {
      "inputs": [],
      "name": "acceptOwnership",
      "outputs": [],
      "stateMutability": "nonpayable",
      "type": "function"
    },
    {
      "inputs": [],
      "name": "bountyCount",
      "outputs": [
        {
          "internalType": "uint256",
          "name": "",
          "type": "uint256"
        }
      ],
      "stateMutability": "view",
      "type": "function"
    },
    {
      "inputs": [],
      "name": "cToken",
      "outputs": [
        {
          "internalType": "contract IConfidentialToken",
          "name": "",
          "type": "address"
        }
      ],
      "stateMutability": "view",
      "type": "function"
    },
    {
      "inputs": [],
      "name": "callbackGasLimit",
      "outputs": [
        {
          "internalType": "uint32",
          "name": "",
          "type": "uint32"
        }
      ],
      "stateMutability": "view",
      "type": "function"
    },
    {
      "inputs": [
        {
          "internalType": "uint256",
          "name": "bountyId",
          "type": "uint256"
        }
      ],
      "name": "cancelBounty",
      "outputs": [],
      "stateMutability": "nonpayable",
      "type": "function"
    },
    {
      "inputs": [],
      "name": "cancelClaimSource",
      "outputs": [],
      "stateMutability": "nonpayable",
      "type": "function"
    },
    {
      "inputs": [],
      "name": "cancelGistSource",
      "outputs": [],
      "stateMutability": "nonpayable",
      "type": "function"
    },
    {
      "inputs": [
        {
          "internalType": "uint256",
          "name": "bountyId",
          "type": "uint256"
        },
        {
          "internalType": "uint64",
          "name": "prNumber",
          "type": "uint64"
        }
      ],
      "name": "claimBounty",
      "outputs": [
        {
          "internalType": "bytes32",
          "name": "requestId",
          "type": "bytes32"
        }
      ],
      "stateMutability": "nonpayable",
      "type": "function"
    },
    {
      "inputs": [],
      "name": "claimProtocolFees",
      "outputs": [],
      "stateMutability": "nonpayable",
      "type": "function"
    },
    {
      "inputs": [],
      "name": "claimVerificationSource",
      "outputs": [
        {
          "internalType": "string",
          "name": "",
          "type": "string"
        }
      ],
      "stateMutability": "view",
      "type": "function"
    },
    {
      "inputs": [],
      "name": "confidentialProtocolId",
      "outputs": [
        {
          "internalType": "uint256",
          "name": "",
          "type": "uint256"
        }
      ],
      "stateMutability": "view",
      "type": "function"
    },
    {
      "inputs": [
        {
          "internalType": "string",
          "name": "repoOwner",
          "type": "string"
        },
        {
          "internalType": "string",
          "name": "repoName",
          "type": "string"
        },
        {
          "internalType": "uint64",
          "name": "issueNumber",
          "type": "uint64"
        },
        {
          "internalType": "externalEuint64",
          "name": "encryptedAmount",
          "type": "bytes32"
        },
        {
          "internalType": "bytes",
          "name": "inputProof",
          "type": "bytes"
        }
      ],
      "name": "createBounty",
      "outputs": [
        {
          "internalType": "uint256",
          "name": "bountyId",
          "type": "uint256"
        }
      ],
      "stateMutability": "nonpayable",
      "type": "function"
    },
    {
      "inputs": [
        {
          "internalType": "address",
          "name": "",
          "type": "address"
        }
      ],
      "name": "devGithub",
      "outputs": [
        {
          "internalType": "string",
          "name": "",
          "type": "string"
        }
      ],
      "stateMutability": "view",
      "type": "function"
    },
    {
      "inputs": [
        {
          "internalType": "address",
          "name": "",
          "type": "address"
        }
      ],
      "name": "devRegisteredAt",
      "outputs": [
        {
          "internalType": "uint256",
          "name": "",
          "type": "uint256"
        }
      ],
      "stateMutability": "view",
      "type": "function"
    },
    {
      "inputs": [
        {
          "internalType": "string",
          "name": "",
          "type": "string"
        }
      ],
      "name": "devRegistry",
      "outputs": [
        {
          "internalType": "address",
          "name": "",
          "type": "address"
        }
      ],
      "stateMutability": "view",
      "type": "function"
    },
    {
      "inputs": [
        {
          "internalType": "address",
          "name": "",
          "type": "address"
        }
      ],
      "name": "devVerificationPending",
      "outputs": [
        {
          "internalType": "bool",
          "name": "",
          "type": "bool"
        }
      ],
      "stateMutability": "view",
      "type": "function"
    },
    {
      "inputs": [],
      "name": "donId",
      "outputs": [
        {
          "internalType": "bytes32",
          "name": "",
          "type": "bytes32"
        }
      ],
      "stateMutability": "view",
      "type": "function"
    },
    {
      "inputs": [
        {
          "internalType": "uint256",
          "name": "bountyId",
          "type": "uint256"
        }
      ],
      "name": "emergencyCancelBounty",
      "outputs": [],
      "stateMutability": "nonpayable",
      "type": "function"
    },
    {
      "inputs": [
        {
          "internalType": "uint256",
          "name": "bountyId",
          "type": "uint256"
        }
      ],
      "name": "executeClaim",
      "outputs": [],
      "stateMutability": "nonpayable",
      "type": "function"
    },
    {
      "inputs": [],
      "name": "executeClaimSource",
      "outputs": [],
      "stateMutability": "nonpayable",
      "type": "function"
    },
    {
      "inputs": [],
      "name": "executeFeeBps",
      "outputs": [],
      "stateMutability": "nonpayable",
      "type": "function"
    },
    {
      "inputs": [],
      "name": "executeGistSource",
      "outputs": [],
      "stateMutability": "nonpayable",
      "type": "function"
    },
    {
      "inputs": [],
      "name": "executeTreasury",
      "outputs": [],
      "stateMutability": "nonpayable",
      "type": "function"
    },
    {
      "inputs": [],
      "name": "feeBps",
      "outputs": [
        {
          "internalType": "uint256",
          "name": "",
          "type": "uint256"
        }
      ],
      "stateMutability": "view",
      "type": "function"
    },
    {
      "inputs": [
        {
          "internalType": "uint256",
          "name": "bountyId",
          "type": "uint256"
        }
      ],
      "name": "getBounty",
      "outputs": [
        {
          "internalType": "address",
          "name": "creator",
          "type": "address"
        },
        {
          "internalType": "string",
          "name": "repoOwner",
          "type": "string"
        },
        {
          "internalType": "string",
          "name": "repoName",
          "type": "string"
        },
        {
          "internalType": "uint64",
          "name": "issueNumber",
          "type": "uint64"
        },
        {
          "internalType": "enum GhostBounty.BountyStatus",
          "name": "status",
          "type": "uint8"
        },
        {
          "internalType": "address",
          "name": "claimedBy",
          "type": "address"
        },
        {
          "internalType": "uint256",
          "name": "createdAt",
          "type": "uint256"
        },
        {
          "internalType": "uint256",
          "name": "pendingSince",
          "type": "uint256"
        }
      ],
      "stateMutability": "view",
      "type": "function"
    },
    {
      "inputs": [
        {
          "internalType": "uint256",
          "name": "bountyId",
          "type": "uint256"
        }
      ],
      "name": "getBountyAmount",
      "outputs": [
        {
          "internalType": "euint64",
          "name": "",
          "type": "bytes32"
        }
      ],
      "stateMutability": "view",
      "type": "function"
    },
    {
      "inputs": [],
      "name": "gistVerificationSource",
      "outputs": [
        {
          "internalType": "string",
          "name": "",
          "type": "string"
        }
      ],
      "stateMutability": "view",
      "type": "function"
    },
    {
      "inputs": [
        {
          "internalType": "bytes32",
          "name": "requestId",
          "type": "bytes32"
        },
        {
          "internalType": "bytes",
          "name": "response",
          "type": "bytes"
        },
        {
          "internalType": "bytes",
          "name": "err",
          "type": "bytes"
        }
      ],
      "name": "handleOracleFulfillment",
      "outputs": [],
      "stateMutability": "nonpayable",
      "type": "function"
    },
    {
      "inputs": [
        {
          "internalType": "bytes32",
          "name": "",
          "type": "bytes32"
        }
      ],
      "name": "issueBountyId",
      "outputs": [
        {
          "internalType": "uint256",
          "name": "",
          "type": "uint256"
        }
      ],
      "stateMutability": "view",
      "type": "function"
    },
    {
      "inputs": [
        {
          "internalType": "uint256",
          "name": "",
          "type": "uint256"
        }
      ],
      "name": "lastBountyClaimAttempt",
      "outputs": [
        {
          "internalType": "uint256",
          "name": "",
          "type": "uint256"
        }
      ],
      "stateMutability": "view",
      "type": "function"
    },
    {
      "inputs": [
        {
          "internalType": "address",
          "name": "",
          "type": "address"
        }
      ],
      "name": "lastClaimAttempt",
      "outputs": [
        {
          "internalType": "uint256",
          "name": "",
          "type": "uint256"
        }
      ],
      "stateMutability": "view",
      "type": "function"
    },
    {
      "inputs": [],
      "name": "owner",
      "outputs": [
        {
          "internalType": "address",
          "name": "",
          "type": "address"
        }
      ],
      "stateMutability": "view",
      "type": "function"
    },
    {
      "inputs": [],
      "name": "pause",
      "outputs": [],
      "stateMutability": "nonpayable",
      "type": "function"
    },
    {
      "inputs": [],
      "name": "paused",
      "outputs": [
        {
          "internalType": "bool",
          "name": "",
          "type": "bool"
        }
      ],
      "stateMutability": "view",
      "type": "function"
    },
    {
      "inputs": [],
      "name": "pendingClaimSource",
      "outputs": [
        {
          "internalType": "string",
          "name": "",
          "type": "string"
        }
      ],
      "stateMutability": "view",
      "type": "function"
    },
    {
      "inputs": [],
      "name": "pendingClaimSourceTimestamp",
      "outputs": [
        {
          "internalType": "uint256",
          "name": "",
          "type": "uint256"
        }
      ],
      "stateMutability": "view",
      "type": "function"
    },
    {
      "inputs": [],
      "name": "pendingFeeBps",
      "outputs": [
        {
          "internalType": "uint256",
          "name": "",
          "type": "uint256"
        }
      ],
      "stateMutability": "view",
      "type": "function"
    },
    {
      "inputs": [],
      "name": "pendingFeeTimestamp",
      "outputs": [
        {
          "internalType": "uint256",
          "name": "",
          "type": "uint256"
        }
      ],
      "stateMutability": "view",
      "type": "function"
    },
    {
      "inputs": [],
      "name": "pendingGistSource",
      "outputs": [
        {
          "internalType": "string",
          "name": "",
          "type": "string"
        }
      ],
      "stateMutability": "view",
      "type": "function"
    },
    {
      "inputs": [],
      "name": "pendingGistSourceTimestamp",
      "outputs": [
        {
          "internalType": "uint256",
          "name": "",
          "type": "uint256"
        }
      ],
      "stateMutability": "view",
      "type": "function"
    },
    {
      "inputs": [],
      "name": "pendingOwner",
      "outputs": [
        {
          "internalType": "address",
          "name": "",
          "type": "address"
        }
      ],
      "stateMutability": "view",
      "type": "function"
    },
    {
      "inputs": [],
      "name": "pendingTreasury",
      "outputs": [
        {
          "internalType": "address",
          "name": "",
          "type": "address"
        }
      ],
      "stateMutability": "view",
      "type": "function"
    },
    {
      "inputs": [],
      "name": "pendingTreasuryTimestamp",
      "outputs": [
        {
          "internalType": "uint256",
          "name": "",
          "type": "uint256"
        }
      ],
      "stateMutability": "view",
      "type": "function"
    },
    {
      "inputs": [
        {
          "internalType": "string",
          "name": "_source",
          "type": "string"
        }
      ],
      "name": "proposeClaimSource",
      "outputs": [],
      "stateMutability": "nonpayable",
      "type": "function"
    },
    {
      "inputs": [
        {
          "internalType": "uint256",
          "name": "_feeBps",
          "type": "uint256"
        }
      ],
      "name": "proposeFeeBps",
      "outputs": [],
      "stateMutability": "nonpayable",
      "type": "function"
    },
    {
      "inputs": [
        {
          "internalType": "string",
          "name": "_source",
          "type": "string"
        }
      ],
      "name": "proposeGistSource",
      "outputs": [],
      "stateMutability": "nonpayable",
      "type": "function"
    },
    {
      "inputs": [
        {
          "internalType": "address",
          "name": "_treasury",
          "type": "address"
        }
      ],
      "name": "proposeTreasury",
      "outputs": [],
      "stateMutability": "nonpayable",
      "type": "function"
    },
    {
      "inputs": [
        {
          "internalType": "string",
          "name": "githubUsername",
          "type": "string"
        },
        {
          "internalType": "string",
          "name": "gistId",
          "type": "string"
        }
      ],
      "name": "registerDev",
      "outputs": [
        {
          "internalType": "bytes32",
          "name": "requestId",
          "type": "bytes32"
        }
      ],
      "stateMutability": "nonpayable",
      "type": "function"
    },
    {
      "inputs": [],
      "name": "renounceOwnership",
      "outputs": [],
      "stateMutability": "pure",
      "type": "function"
    },
    {
      "inputs": [],
      "name": "secretsExpiration",
      "outputs": [
        {
          "internalType": "uint256",
          "name": "",
          "type": "uint256"
        }
      ],
      "stateMutability": "view",
      "type": "function"
    },
    {
      "inputs": [],
      "name": "secretsSlotId",
      "outputs": [
        {
          "internalType": "uint8",
          "name": "",
          "type": "uint8"
        }
      ],
      "stateMutability": "view",
      "type": "function"
    },
    {
      "inputs": [],
      "name": "secretsValid",
      "outputs": [
        {
          "internalType": "bool",
          "name": "",
          "type": "bool"
        }
      ],
      "stateMutability": "view",
      "type": "function"
    },
    {
      "inputs": [],
      "name": "secretsVersion",
      "outputs": [
        {
          "internalType": "uint64",
          "name": "",
          "type": "uint64"
        }
      ],
      "stateMutability": "view",
      "type": "function"
    },
    {
      "inputs": [
        {
          "internalType": "uint32",
          "name": "_limit",
          "type": "uint32"
        }
      ],
      "name": "setCallbackGasLimit",
      "outputs": [],
      "stateMutability": "nonpayable",
      "type": "function"
    },
    {
      "inputs": [
        {
          "internalType": "bytes32",
          "name": "_donId",
          "type": "bytes32"
        }
      ],
      "name": "setDonId",
      "outputs": [],
      "stateMutability": "nonpayable",
      "type": "function"
    },
    {
      "inputs": [
        {
          "internalType": "uint8",
          "name": "_slotId",
          "type": "uint8"
        },
        {
          "internalType": "uint64",
          "name": "_version",
          "type": "uint64"
        },
        {
          "internalType": "uint256",
          "name": "_expiration",
          "type": "uint256"
        }
      ],
      "name": "setSecretsConfig",
      "outputs": [],
      "stateMutability": "nonpayable",
      "type": "function"
    },
    {
      "inputs": [
        {
          "internalType": "uint64",
          "name": "_subId",
          "type": "uint64"
        }
      ],
      "name": "setSubscriptionId",
      "outputs": [],
      "stateMutability": "nonpayable",
      "type": "function"
    },
    {
      "inputs": [],
      "name": "subscriptionId",
      "outputs": [
        {
          "internalType": "uint64",
          "name": "",
          "type": "uint64"
        }
      ],
      "stateMutability": "view",
      "type": "function"
    },
    {
      "inputs": [
        {
          "internalType": "address",
          "name": "newOwner",
          "type": "address"
        }
      ],
      "name": "transferOwnership",
      "outputs": [],
      "stateMutability": "nonpayable",
      "type": "function"
    },
    {
      "inputs": [],
      "name": "treasury",
      "outputs": [
        {
          "internalType": "address",
          "name": "",
          "type": "address"
        }
      ],
      "stateMutability": "view",
      "type": "function"
    },
    {
      "inputs": [],
      "name": "unpause",
      "outputs": [],
      "stateMutability": "nonpayable",
      "type": "function"
    }
  ],
  "transactionHash": "0x674c48556b146eb3e34241265066c11fc27810448ef792a6776d8f31688bbc26",
  "args": [
    "0xb83E47C2bC239B3bf370bc41e1459A34b41238D0",
    "0x4f73E1F80De6E614FBB5F4B66B6C802CD087A5CC",
    "0x590891F269720001435004A1089cAB5b2c20029A",
    200,
    "0x66756e2d657468657265756d2d7365706f6c69612d3100000000000000000000",
    "6375"
  ],
  "numDeployments": 1,
  "solcInputHash": "30c36b64f64e512c4fcaf97ee7b447f2",
  "bytecode": "0x60c080604052346103145760c08161621b803803809161001f82856104f0565b8339810103126103145761003281610513565b61003e60208301610513565b61004a60408401610513565b92606081015160a060808301519201519360018060401b038516809503610314576001600160a01b031660805260017f9b779b17422d0df92223018b32b4d1fa46e071723d6817e2486d003becc55f005533156104ae57600180546001600160a01b03191690555f8054610100600160a81b0319811633600881811b610100600160a81b03169290921784559291901c6001600160a01b0316907f8be0079c531659141344cd1fd0a4f28419497f9722a3daafe3b4186f6b6457e09080a36101106105a9565b50466001036103c2576101216105a9565b5060405161012e816104c1565b73ca2e8f1f656cd25c01f05d0b243ab1ecd4a8ffb6815273d82385dada1ae3e969447f20a3164f6213100e7560208201527377627828a55156b04ac0dc0eb30467f1a552bb0360408201525b80515f5160206161fb5f395f51905f5280546001600160a01b03199081166001600160a01b039384161790915560208301515f5160206161db5f395f51905f52805483169184169190911790556040909201517f9e7b61f58c47dc699ac88507c4f5bb9f121c03808c5676a8078fe583e4649702805490931690821617909155600354931694851561038f576001600160a01b0316801561035a576101f48211610326576a0493e000000000000000009560a05260018060a01b0319600554161760055560045560025560018060601b031916171760035561025a610527565b80601e558015610318575b5f5160206161fb5f395f51905f52546001600160a01b031690813b15610314575f91604483926040519485938492635ca4b5b160e11b845260048401523060248401525af18015610309576102f9575b604051615c1390816105c8823960805181818161078201526145ab015260a051818181610dc40152818161141601528181611d3d015281816126a401526134c10152f35b5f610303916104f0565b5f6102b5565b6040513d5f823e3d90fd5b5f80fd5b50610321610527565b610265565b60405162461bcd60e51b815260206004820152600c60248201526b08ccaca40e8dede40d0d2ced60a31b6044820152606490fd5b60405162461bcd60e51b815260206004820152600d60248201526c5a65726f20747265617375727960981b6044820152606490fd5b60405162461bcd60e51b815260206004820152600b60248201526a2d32b9379031aa37b5b2b760a91b6044820152606490fd5b4662aa36a703610431576103d46105a9565b506040516103e1816104c1565b73f0ffdc93b7e186bc2f8cb3daa75d86d1930a433d81527392c920834ec8941d2c77d188936e1f7a6f49c127602082015273be0e383937d564d7ff0bc3b46c51f0bf8d5c311a604082015261017a565b46617a690361049f576104426105a9565b5060405161044f816104c1565b7350157cffd6bbfa2dece204a89ec419c23ef5755d815273e3a9105a3a932253a70f126eb1e3b589c643dd24602082015273901f8942346f7ab3a01f6d7613119bca447bb030604082015261017a565b6373cac13b60e01b5f5260045ffd5b631e4fbdf760e01b5f525f60045260245ffd5b606081019081106001600160401b038211176104dc57604052565b634e487b7160e01b5f52604160045260245ffd5b601f909101601f19168101906001600160401b038211908210176104dc57604052565b51906001600160a01b038216820361031457565b5f5160206161db5f395f51905f5254604051639cd07acb60e01b81525f60048201819052600560248301529091602091839160449183916001600160a01b03165af1908115610309575f9161057a575090565b90506020813d6020116105a1575b81610595602093836104f0565b81010312610314575190565b3d9150610588565b604051906105b6826104c1565b5f604083828152826020820152015256fe60806040526004361015610011575f80fd5b5f3560e01c806302756ddf1461046f578063058a6a871461046a578063082b04841461046557806309c1ba2e146104605780630ca761751461045b5780631cd896c1146104565780631e3ff5cf146104515780631eddeeb91461044c57806324a9d8531461044757806324cda6bf1461044257806324f746971461043d5780632ecf9024146104385780632ed6b75d146104335780632fe013421461042e57806337c909ec146104295780633e362c96146104245780633f4ba83a1461041f5780634a7d03691461041a5780634b7c199b146104155780634c618e6814610410578063506c6a491461040b5780635c975abb146104065780635e03c1a71461038e57806361d027b31461040157806361f0949d146103fc5780636394bffe146103f757806369e527da146103f2578063715018a6146103ed57806375b1d195146103e857806378ca5de7146103e357806379ba5097146103de57806381020cad146103d95780638416a883146103d45780638456cb59146103cf5780638927b030146103ca57806389c61417146103c55780638ce907a9146103c05780638da5cb5b146103bb5780638dbe7b9d146103b65780638feb5503146103b15780639c5c0634146103ac5780639cb481ea146103a7578063a4eb718c146103a2578063a60c4b7b1461039d578063a985a2a814610398578063ae03bb7914610393578063b0ff63831461038e578063b13d69f314610389578063b4c3606714610384578063b721687d1461037f578063b7c16ce81461037a578063bb2a46d914610375578063c06a731b14610370578063c6c4c9651461036b578063d55be8c614610366578063d67132a314610361578063dd5de2c51461035c578063e30c397814610357578063e5e5dff114610352578063ea7b4f771461034d578063ee8c4bbf14610348578063eefc799c14610343578063f110ed671461033e578063f2fde38b14610339578063f99b1e9714610334578063fc58b54a1461032f578063fca4a5281461032a578063fdbea49614610325578063fdcf33d1146103205763ff36a2f51461031b575f80fd5b612898565b612806565b6127e7565b6127ca565b6125f7565b6125dc565b61257a565b6124ba565b612205565b61217e565b61207e565b611ffb565b611fd3565b611fb3565b611f86565b611f6a565b611eea565b611ece565b611e30565b611e13565b611be3565b611b6a565b611ae2565b61105b565b611a45565b611a1b565b6119fe565b61191a565b611882565b611863565b611806565b6117e9565b6117be565b6117a3565b611779565b611757565b611700565b6115b3565b611596565b6114fa565b6114ae565b611485565b611445565b611401565b611126565b6110a0565b611078565b61103a565b610f91565b610f74565b610ed8565b610d7e565b610d1a565b610cfd565b610ce2565b610cb5565b610c8d565b610c60565b610c3a565b610c08565b610bc9565b610b02565b61089f565b610884565b61072e565b610619565b6104bc565b61049f565b610482565b5f91031261047e57565b5f80fd5b3461047e575f36600319011261047e576020604051620151808152f35b3461047e575f36600319011261047e576020600d54604051908152f35b3461047e575f36600319011261047e576104d4613e23565b600d546104e28115156128b5565b6202a3008101809111610614576104fb9042101561299b565b610506600c546108d3565b6001600160401b03811161060f5761052a816105236007546108d3565b6007612a74565b5f90601f81116001146105935780610556925f91610587575b508160011b915f199060031b1c19161790565b6007555b610562612ac2565b5f600d555f516020615b875f395f51905f52604051806105824282612c3e565b0390a1005b9050600c01545f610543565b60075f9081525f516020615b075f395f51905f52925f516020615b675f395f51905f5291601f198416905b8181106105f757509383600195106105df575b505050811b0160075561055a565b01545f1960f88460031b161c191690555f80806105d1565b919260018060209286890154815501940192016105be565b61063f565b6128f5565b3461047e575f36600319011261047e5760206001600160401b0360035416604051908152f35b634e487b7160e01b5f52604160045260245ffd5b604081019081106001600160401b0382111761060f57604052565b90601f801991011681019081106001600160401b0382111761060f57604052565b6040519061069e60408361066e565b565b6040519061069e6101208361066e565b6040519061069e60608361066e565b6001600160401b03811161060f57601f01601f191660200190565b9291926106e6826106bf565b916106f4604051938461066e565b82948184528183011161047e578281602093845f960137010152565b9080601f8301121561047e5781602061072b933591016106da565b90565b3461047e57606036600319011261047e576004356024356001600160401b03811161047e57610761903690600401610710565b6044356001600160401b03811161047e57610780903690600401610710565b7f00000000000000000000000000000000000000000000000000000000000000006001600160a01b0316330361087557825f52601b60205260ff60405f2054166107c981612f52565b801561083e576002906107f16107e7865f52601b60205260405f2090565b805460ff19169055565b6107fa81612f52565b0361082f576108099183614edb565b7f85e1543bf2f84fe80c6badbce3648c8539ad1df4d2b3d822938ca0538be727e65f80a2005b6108399183614be9565b610809565b60405162461bcd60e51b815260206004820152600f60248201526e155b9adb9bdddb881c995c5d595cdd608a1b6044820152606490fd5b63c6829f8360e01b5f5260045ffd5b3461047e575f36600319011261047e57602060405160278152f35b3461047e575f36600319011261047e57602060095480159081156108c9575b506040519015158152f35b905042105f6108be565b90600182811c92168015610901575b60208310146108ed57565b634e487b7160e01b5f52602260045260245ffd5b91607f16916108e2565b604051905f826007549161091e836108d3565b808352926001811690811561098e5750600114610942575b61069e9250038361066e565b5060075f90815290915f516020615b675f395f51905f525b81831061097257505090602061069e92820101610936565b602091935080600191548385890101520191019091849261095a565b6020925061069e94915060ff191682840152151560051b820101610936565b604051905f82600654916109c0836108d3565b808352926001811690811561098e57506001146109e35761069e9250038361066e565b5060065f90815290915f516020615ba75f395f51905f525b818310610a1357505090602061069e92820101610936565b60209193508060019154838589010152019101909184926109fb565b9060405191825f825492610a42846108d3565b8084529360018116908115610aab5750600114610a67575b5061069e9250038361066e565b90505f9291925260205f20905f915b818310610a8f57505090602061069e928201015f610a5a565b6020919350806001915483858901015201910190918492610a76565b90506020925061069e94915060ff191682840152151560051b8201015f610a5a565b805180835260209291819084018484015e5f828201840152601f01601f1916010190565b90602061072b928181520190610acd565b3461047e575f36600319011261047e576040515f600c54610b22816108d3565b8084529060018116908115610ba55750600114610b5a575b610b5683610b4a8185038261066e565b60405191829182610af1565b0390f35b600c5f9081525f516020615b075f395f51905f52939250905b808210610b8b57509091508101602001610b4a610b3a565b919260018160209254838588010152019101909291610b73565b60ff191660208086019190915291151560051b84019091019150610b4a9050610b3a565b3461047e575f36600319011261047e576020600454604051908152f35b602090600319011261047e576004356001600160a01b038116810361047e5790565b3461047e576001600160a01b03610c1e36610be6565b165f526017602052602060ff60405f2054166040519015158152f35b3461047e575f36600319011261047e57602063ffffffff60035460401c16604051908152f35b3461047e576001600160a01b03610c7636610be6565b165f526018602052602060405f2054604051908152f35b3461047e575f36600319011261047e576010546040516001600160a01b039091168152602090f35b3461047e576001600160a01b03610ccb36610be6565b165f526019602052602060405f2054604051908152f35b3461047e575f36600319011261047e57602060405160788152f35b3461047e575f36600319011261047e576020601254604051908152f35b3461047e575f36600319011261047e57610d32613e23565b5f5460ff811615610d6f5760ff19165f557f5db9ee0a495bf2e6ff9c91a7834c1ba4fdd244a5e8aa4e537bd38aeae4b073aa6020604051338152a1005b638dfc202b60e01b5f5260045ffd5b3461047e575f36600319011261047e57610d96613e23565b610d9e613e39565b610e316020601e54610db6610db1613e84565b601e55565b610dc1601e54613ef0565b507f00000000000000000000000000000000000000000000000000000000000000006001600160a01b0316610df68183613f0f565b50600554604051632df5f6bf60e11b81526001600160a01b0390911660048201526024810192909252909283919082905f9082906044820190565b03925af18015610ea757610e7a575b6005546001600160a01b03167f31882bd4aa8fafe9dbdea62ad7f2daa1fcf5f08134b70f68ff6cd8f78d6b33245f80a2610e78613e71565b005b610e9b9060203d602011610ea0575b610e93818361066e565b810190612c57565b610e40565b503d610e89565b612c66565b602435906001600160401b038216820361047e57565b604435906001600160401b038216820361047e57565b3461047e57606036600319011261047e5760043560ff811680910361047e5760607fc3233c7e7fb2de84d2ae7ec9217dc992bf99bb1d9d568efe63a33fe1ec97c55191610f23610eac565b6001600160401b0360443591610f37613e23565b6008548468ffffffffffffffff008360081b169168ffffffffffffffffff19161717600855826009556040519384521660208301526040820152a1005b3461047e575f36600319011261047e576020600e54604051908152f35b3461047e57602036600319011261047e57600435610fad613e23565b6101f481116110065780600e5542600f55620151804201804211610614576040805192835260208301919091527fa7f5d2ab44bf05730cdc4bbcac853dcb248b08dde217076250444c1b67060061919081908101610582565b60405162461bcd60e51b815260206004820152600c60248201526b08ccaca40e8dede40d0d2ced60a31b6044820152606490fd5b3461047e575f36600319011261047e57602060ff5f54166040519015158152f35b3461047e575f36600319011261047e57602060405162093a808152f35b3461047e575f36600319011261047e576005546040516001600160a01b039091168152602090f35b3461047e575f36600319011261047e576110b8613e23565b6110c0612b45565b5f600b557fb9f6911e6ee4c80bddda0b2dfbe4b1d2831f4cfc3a6d314d87e773630e9dc201604051602081528061058260208201612c71565b9181601f8401121561047e578235916001600160401b03831161047e576020838186019501011161047e57565b3461047e57604036600319011261047e576004356001600160401b03811161047e576111569036906004016110f9565b90602435916001600160401b03831161047e576112d56112fc916112a86111a061119b61118960209836906004016110f9565b979094611194613f90565b36916106da565b613fdd565b946111b6865180151590816113f5575b50612c89565b801515806113ea575b6111c890612cc8565b335f908152601760205260409020546111e49060ff1615612d06565b335f908152601860205260409020541580156113c3575b61120490612d52565b6112196112126007546108d3565b1515612d9e565b61122f60095480159081156113b9575b50612de0565b61127161123a612e1e565b9361124c61124661090b565b866151e4565b611254612e64565b928861125f85612eec565b5261126984612eec565b5036916106da565b61127a82612efe565b5261128481612efe565b5061128e33614103565b61129782612f0e565b526112a181612f0e565b50826141d1565b6008546112bf816001600160401b039060081c1690565b6001600160401b0381166113a5575b505061438b565b6003546112f26001600160401b0382169160401c63ffffffff1690565b9060025492614554565b8091611320611313835f52601b60205260405f2090565b805460ff19166002179055565b61134a61132b61068f565b3381528286820152611345845f52601d60205260405f2090565b613027565b335f90815260176020526040902061136a905b805460ff19166001179055565b7f993293998257baa27aeb0a8610b55db2ccf3594249d108f282a4cf5d405503ad6040518061139a339482610af1565b0390a3604051908152f35b6113b29160ff16836141ed565b5f806112ce565b905042105f611229565b50335f908152601860205260409020611204906113e09054612909565b42101590506111fb565b5060288111156111bf565b6027915011155f6111b0565b3461047e575f36600319011261047e576040517f00000000000000000000000000000000000000000000000000000000000000006001600160a01b03168152602090f35b3461047e575f36600319011261047e5760405162461bcd60e51b8152602060048201526008602482015267111a5cd8589b195960c21b6044820152606490fd5b3461047e575f36600319011261047e5760206001600160401b0360085460081c16604051908152f35b3461047e57602036600319011261047e577f8636b239fb28228ed411937d379e0ac65fc0baaa856f6366d197e08c119feb0760206004356114ed613e23565b80600255604051908152a1005b3461047e575f36600319011261047e57600154336001600160a01b03821603611583576001600160a01b0319166001555f8054610100600160a81b0319811633600881811b610100600160a81b03169290921784559291901c6001600160a01b0316907f8be0079c531659141344cd1fd0a4f28419497f9722a3daafe3b4186f6b6457e09080a3005b63118cdaa760e01b5f523360045260245ffd5b3461047e575f36600319011261047e576020600b54604051908152f35b3461047e575f36600319011261047e576115cb613e23565b600b546115d98115156128b5565b6202a3008101809111610614576115f29042101561299b565b6115fd600a546108d3565b6001600160401b03811161060f576116218161161a6006546108d3565b6006612a74565b5f90601f8111600114611684578061164c925f9161167857508160011b915f199060031b1c19161790565b6006555b611658612b45565b5f600b555f516020615b875f395f51905f526040518061058242826130ea565b9050600a01545f610543565b60065f9081525f516020615b275f395f51905f52925f516020615ba75f395f51905f5291601f198416905b8181106116e857509383600195106116d0575b505050811b01600655611650565b01545f1960f88460031b161c191690555f80806116c2565b919260018060209286890154815501940192016116af565b3461047e575f36600319011261047e57611718613e23565b611720613f90565b600160ff195f5416175f557f62e78cea01bee320cd4e420270b5ea74000d11b0c9f74754ebdbfc544b05a2586020604051338152a1005b3461047e575f36600319011261047e57602061177161462b565b604051908152f35b3461047e57602036600319011261047e576004355f52601a602052602060405f2054604051908152f35b3461047e575f36600319011261047e57602060405160648152f35b3461047e575f36600319011261047e575f5460405160089190911c6001600160a01b03168152602090f35b3461047e575f36600319011261047e576020600254604051908152f35b3461047e575f36600319011261047e57610b5661182161090b565b604051918291602083526020830190610acd565b602060031982011261047e57600435906001600160401b03821161047e5761185f916004016110f9565b9091565b3461047e57610e7861187436611835565b9061187d613e23565b61328d565b3461047e57602036600319011261047e576004355f52601360205260405f2060018060a01b03815416331480156118fe575b156118c85760040154604051908152602090f35b60405162461bcd60e51b815260206004820152600e60248201526d139bdd08185d5d1a1bdc9a5e995960921b6044820152606490fd5b5060058101543360089190911c6001600160a01b0316146118b4565b3461047e57602036600319011261047e5760043563ffffffff811680820361047e57611944613e23565b620186a081101590816119f0575b50156119b2576003805463ffffffff60401b1916604083811b63ffffffff60401b16919091179091555163ffffffff90911681527f25358b14cd4557629ee75bbccedef47b9c0fe38c159233fb711b4c547692f889908060208101610582565b60405162461bcd60e51b8152602060048201526016602482015275476173206c696d6974206f7574206f662072616e676560501b6044820152606490fd5b6207a120915011155f611952565b3461047e575f36600319011261047e5760206040516202a3008152f35b3461047e57602036600319011261047e576004355f526014602052602060405f2054604051908152f35b3461047e5760a036600319011261047e576004356001600160401b03811161047e57611a759036906004016110f9565b6024356001600160401b03811161047e57611a949036906004016110f9565b919092611a9f610ec2565b60643590608435946001600160401b03861161047e57610b5696611aca611ad29736906004016110f9565b9690956133de565b6040519081529081906020820190565b3461047e575f36600319011261047e57611afa613e23565b611b02612ac2565b5f600d557fb9f6911e6ee4c80bddda0b2dfbe4b1d2831f4cfc3a6d314d87e773630e9dc201604051602081528061058260208201612c27565b805191908290602001825e015f815290565b6020611b5f9160405192838092611b3b565b601581520301902090565b3461047e57602036600319011261047e576004356001600160401b03811161047e573660238201121561047e57611bae610b569136906024816004013591016106da565b611bbb6040518092611b3b565b601581526020908290038101909120546040516001600160a01b039091168152918291820190565b3461047e57602036600319011261047e57600435611bff613e39565b611c07613f90565b5f6020611d9e6004611c21855f52601360205260405f2090565b8054611c41906001600160a01b03165b6001600160a01b0316331461392c565b611ca760058201611c71611c56825460ff1690565b611c5f816120fe565b60018114908115611dff575b50613966565b611c94611c8c6007850154611c8781151561399e565b612909565b4210156139e2565b80546001600160a81b0319166004179055565b84611d376001611d18611d26611ccf611cca60038801546001600160401b031690565b614784565b604051928391611d12611d05611cfc611cef8f8d9088019a8b9101613a24565b602f60f81b815260010190565b60028c01613a24565b602360f81b815260010190565b90611b3b565b03601f19810183528261066e565b5190205f52601460205260405f2090565b550180547f00000000000000000000000000000000000000000000000000000000000000006001600160a01b03169190611d72908390613f0f565b5054604051632df5f6bf60e11b8152336004820152602481019190915293849283919082906044820190565b03925af18015610ea757611de2575b506040514281527f4fe522caf12f0adba1b0532093b34bea60fc859fb838ae075b44bcd15fcde9ff90602090a2610e78613e71565b611dfa9060203d602011610ea057610e93818361066e565b611dad565b60029150611e0c816120fe565b145f611c6b565b3461047e575f36600319011261047e576020600f54604051908152f35b3461047e575f36600319011261047e57611e48613e23565b601154611e568115156128b5565b62015180810180911161061457611e6f9042101561299b565b60108054600580546001600160a01b0383166001600160a01b031991821681179092559091169091555f6011556040519081527f5990b9f3f1244cb62e9aa3198468cb0e1cb0bc55586fe61ee9095d42f317646d908060208101610582565b3461047e575f36600319011261047e5760206040516102588152f35b3461047e575f36600319011261047e57611f02613e23565b600f54611f108115156128b5565b62015180810180911161061457611f299042101561299b565b7fa1837568bc6aa9f8022c0dc7c2e193f84fc45d689e170e294c4db205eab6faef600e54806004555f600e555f600f556040518091602082019082520390a1005b3461047e575f36600319011261047e5760206040516101f48152f35b3461047e576001600160a01b03611f9c36610be6565b165f526016602052610b5661182160405f20610a2f565b3461047e575f36600319011261047e57602060ff60085416604051908152f35b3461047e575f36600319011261047e576001546040516001600160a01b039091168152602090f35b3461047e57602036600319011261047e57600435612017613e39565b61201f613f90565b5f6020611d9e6004612039855f52601360205260405f2090565b805461204d906001600160a01b0316611c31565b611ca760058201612071612062825460ff1690565b61206b816120fe565b15613a8e565b805460ff19166004179055565b3461047e57602036600319011261047e576004356001600160401b03811680910361047e5760207ffe1ef567ce884ef794b945e4334aba185ec62ce1f1d71ea9becb1a7d39d561d0916120cf613e23565b806001600160401b03196003541617600355604051908152a1005b634e487b7160e01b5f52602160045260245ffd5b6005111561210857565b6120ea565b9495926121426001600160401b0393612150939b9a99969b60018060a01b031688526101006020890152610100880190610acd565b908682036040880152610acd565b9716606084015260058410156121085760e093608084015260018060a01b031660a083015260c08201520152565b3461047e57602036600319011261047e576004355f52601360205260405f2060018060a01b0381541690610b566001600160401b036003830154169260058301546006840154906007850154926121e360026121dc60018901610a2f565b9701610a2f565b604051978897600885901c6001600160a01b03169460ff16939192918961210d565b3461047e57604036600319011261047e5760206124af600435612226610eac565b9061222f613e39565b612237613f90565b7f3de6590673cc48f483e00057f68ad38f0df34fc235384dabdee37d99803ac17161243e6112d5612270845f52601360205260405f2090565b61235c60058201612294612285825460ff1690565b61228e816120fe565b15613aca565b335f9081526016602052604090206122b6906122af906129d9565b1515613b03565b335f9081526019602052604090206122da906122d29054612947565b421015613b48565b6123006122f86122f2895f52601a60205260405f2090565b54612955565b421015613b85565b61231561230e6006546108d3565b1515613bc9565b61232a60095480159081156113b95750612de0565b335f9081526019602052604090204290554261234e885f52601a60205260405f2090565b55805460ff19166001179055565b4260078201556112a861236d612e1e565b9161237f6123796109ad565b846151e4565b6123fb611cca600361238f612e9e565b9361239c60018201610a2f565b6123a586612eec565b526123af85612eec565b506123bc60028201610a2f565b6123c586612efe565b526123cf85612efe565b506123d98c614784565b6123e286612f0e565b526123ec85612f0e565b5001546001600160401b031690565b61240482612f1e565b5261240e81612f1e565b50335f90815260166020526040902061242b90610a2f565b610a2f565b61243482612f2e565b526112a181612f2e565b93849361245661135d865f52601b60205260405f2090565b61248f6124616106b0565b8581526001600160401b0383168982015233604082015261248a875f52601c60205260405f2090565b613c06565b604080516001600160401b03909216825242602083015290918291820190565b0390a3611771613e71565b3461047e576124c836610be6565b6124d0613e23565b6001600160a01b03811690811561254657601080546001600160a01b031916909217909155426011557f2fdb8aa18e3708b0dfed4acb0de7452e85e7f833b1b055880cef38e8bee690b59061252442612919565b604080516001600160a01b039093168352602083019190915281908101610582565b60405162461bcd60e51b815260206004820152600c60248201526b5a65726f206164647265737360a01b6044820152606490fd5b3461047e5761258836610be6565b612590613e23565b60018060a01b03168060018060a01b0319600154161760015560018060a01b035f5460081c167f38d16b8cac22d99fc7c124b9cd0de2d3fa1faef420bfe791d8c362d765e227005f80a3005b3461047e575f36600319011261047e57610b566118216109ad565b3461047e57602036600319011261047e57600435612613613e39565b61261b613f90565b61262d815f52601360205260405f2090565b905f600583019260046126688554612659600261264a8360ff1690565b612653816120fe565b14613c66565b60081c6001600160a01b031690565b6001600160a01b0381169590929061269290612685881515613ca1565b805460ff19166003179055565b01602061270b8254600454612778575b7f00000000000000000000000000000000000000000000000000000000000000006001600160a01b0316906126d78282613f0f565b50604051632df5f6bf60e11b81526001600160a01b0387166004820152602481019190915295869283919082906044820190565b03925af1928315610ea7576127269361275b575b5054614924565b506040514281527f07e339a02227d9329089b11d9cdeea1af6caea87244864b70935aca91d7dc7fd90602090a3610e78613e71565b6127739060203d602011610ea057610e93818361066e565b61271f565b6127c46127a361279c61278a8461494b565b6004546001600160401b0316906149c4565b8093614a48565b916127b3610db182601e54614ae8565b6127be601e54613ef0565b50613ef0565b506126a2565b3461047e575f36600319011261047e576020601154604051908152f35b3461047e57610e786127f836611835565b90612801613e23565b613cdc565b3461047e575f36600319011261047e576040515f600a54612826816108d3565b8084529060018116908115610ba5575060011461284d57610b5683610b4a8185038261066e565b600a5f9081525f516020615b275f395f51905f52939250905b80821061287e57509091508101602001610b4a610b3a565b919260018160209254838588010152019101909291612866565b3461047e575f36600319011261047e576020600954604051908152f35b156128bc57565b60405162461bcd60e51b81526020600482015260116024820152704e6f2070656e64696e67206368616e676560781b6044820152606490fd5b634e487b7160e01b5f52601160045260245ffd5b9062093a80820180921161061457565b9062015180820180921161061457565b906202a300820180921161061457565b906001820180921161061457565b906078820180921161061457565b90610258820180921161061457565b600201908160021161061457565b600301908160031161061457565b906020820180921161061457565b9190820180921161061457565b156129a257565b60405162461bcd60e51b815260206004820152600f60248201526e54696d656c6f636b2061637469766560881b6044820152606490fd5b61072b90546108d3565b8181106129ee575050565b5f81556001016129e3565b90601f8211612a06575050565b61069e9160065f5260205f20906020601f840160051c83019310612a32575b601f0160051c01906129e3565b9091508190612a25565b90601f8211612a49575050565b61069e9160075f5260205f20906020601f840160051c83019310612a3257601f0160051c01906129e3565b9190601f8111612a8357505050565b61069e925f5260205f20906020601f840160051c83019310612a3257601f0160051c01906129e3565b908160011b918083046002149015171561061457565b612acd600c546108d3565b80612ad55750565b601f8111600114612ae757505f600c55565b600c5f52612b2a90601f0160051c5f516020615b075f395f51905f52017fdf6966c971051c3d54ec59162606531493a51404a002842f56009d7e5cf4a8c86129e3565b600c5f818152908190555f516020615b075f395f51905f5255565b612b50600a546108d3565b80612b585750565b601f8111600114612b6a57505f600a55565b600a5f52612bad90601f0160051c5f516020615b275f395f51905f52017fc65a7bb8d6351c1cf70c95a316cc6a92839c986682d98bc35f958f4883f9d2a96129e3565b600a5f818152908190555f516020615b275f395f51905f5255565b612bd281546108d3565b9081612bdc575050565b81601f5f9311600114612bed575055565b81835260208320612c0991601f0160051c8101906001016129e3565b808252602082209081548360011b9084198560031b1c191617905555565b600481526319da5cdd60e21b602082015260400190565b9190604083526020612c5260408501612c27565b930152565b9081602091031261047e575190565b6040513d5f823e3d90fd5b6005815264636c61696d60d81b602082015260400190565b15612c9057565b60405162461bcd60e51b815260206004820152601060248201526f496e76616c696420757365726e616d6560801b6044820152606490fd5b15612ccf57565b60405162461bcd60e51b815260206004820152600f60248201526e125b9d985b1a590819da5cdd081251608a1b6044820152606490fd5b15612d0d57565b60405162461bcd60e51b815260206004820152601c60248201527f566572696669636174696f6e20616c72656164792070656e64696e67000000006044820152606490fd5b15612d5957565b60405162461bcd60e51b815260206004820152601c60248201527f526567697374726174696f6e20636f6f6c646f776e20616374697665000000006044820152606490fd5b15612da557565b60405162461bcd60e51b815260206004820152601360248201527211da5cdd081cdbdd5c98d9481b9bdd081cd95d606a1b6044820152606490fd5b15612de757565b60405162461bcd60e51b815260206004820152600f60248201526e14d958dc995d1cc8195e1c1a5c9959608a1b6044820152606490fd5b6040519060e082018281106001600160401b0382111761060f57604052606060c0835f81525f60208201525f604082015282808201528260808201528260a08201520152565b60405160809190612e75838261066e565b6003815291601f1901825f5b828110612e8d57505050565b806060602080938501015201612e81565b60405160c09190612eaf838261066e565b6005815291601f1901825f5b828110612ec757505050565b806060602080938501015201612ebb565b634e487b7160e01b5f52603260045260245ffd5b805115612ef95760200190565b612ed8565b805160011015612ef95760400190565b805160021015612ef95760600190565b805160031015612ef95760800190565b805160041015612ef95760a00190565b8051821015612ef95760209160051b010190565b6003111561210857565b91909182516001600160401b03811161060f57612f8381612f7d84546108d3565b84612a74565b6020601f8211600114612fc2578190612fb39394955f92612fb7575b50508160011b915f199060031b1c19161790565b9055565b015190505f80612f9f565b601f19821690612fd5845f5260205f2090565b915f5b81811061300f57509583600195969710612ff7575b505050811b019055565b01515f1960f88460031b161c191690555f8080612fed565b9192602060018192868b015181550194019201612fd8565b815181546001600160a01b0319166001600160a01b03919091161781559091906020906001019201519182516001600160401b03811161060f5761306f81612f7d84546108d3565b6020601f821160011461309e578190612fb39394955f92612fb75750508160011b915f199060031b1c19161790565b601f198216906130b1845f5260205f2090565b915f5b8181106130d257509583600195969710612ff757505050811b019055565b9192602060018192868b0151815501940192016130b4565b9190604083526020612c5260408501612c71565b91906001600160401b03811161060f576131248161311d600a546108d3565b600a612a74565b5f601f821160011461316157819061315193945f926131565750508160011b915f199060031b1c19161790565b600a55565b013590505f80612f9f565b600a5f52601f198216935f516020615b275f395f51905f52915f5b8681106131b3575083600195961061319a575b505050811b01600a55565b01355f19600384901b60f8161c191690555f808061318f565b9092602060018192868601358155019401910161317c565b91906001600160401b03811161060f576131f1816131ea600c546108d3565b600c612a74565b5f601f821160011461322357819061321e93945f926131565750508160011b915f199060031b1c19161790565b600c55565b600c5f52601f198216935f516020615b075f395f51905f52915f5b868110613275575083600195961061325c575b505050811b01600c55565b01355f19600384901b60f8161c191690555f8080613251565b9092602060018192868601358155019401910161323e565b919060065461329b816108d3565b156132ff575091826132b16132ba9394836130fe565b61119442600b55565b602081519101207fb535cf007f0a63a526e02347e59f21e0dd977daf5e1e11a27c43ba9023ce961b6132fa6132ee42612929565b604051918291826130ea565b0390a2565b6001600160401b03821161060f578161331a61331f926108d3565b6129f9565b5f601f821160011461337157819061334c93945f926131565750508160011b915f199060031b1c19161790565b6006555b5f516020615b875f395f51905f526040518061336c42826130ea565b0390a1565b60065f52601f198216935f516020615ba75f395f51905f52915f5b8681106133c657508360019596106133ad575b505050811b01600655613350565b01355f19600384901b60f8161c191690555f808061339f565b9092602060018192868601358155019401910161338c565b61119b6134be94969361346161119b613469946134b8966133fd613e39565b613405613f90565b80151580613648575b61341790613653565b8b15158061363d575b61342990613693565b61343b613436828461465a565b6136d2565b61344d6134488d8761465a565b613717565b6111946001600160401b038c16151561375b565b9736916106da565b9585611d0561349889611d1861347e8a614784565b611d12604051958694611d12611cef60208801809b611b3b565b519020976111946134b18a5f52601460205260405f2090565b5415613797565b90614857565b927f00000000000000000000000000000000000000000000000000000000000000006001600160a01b0316926134f48486613f0f565b5060405163eb3155b560e01b81523360048201523060248201526044810186905293602090859060649082905f905af1908115610ea7576135e9967f6dccabfd4b2c4cfbd22a068798c5ab2faaea35f48e81890edf122e79b281d07f9561361493613620575b5060125497889761357261356d8a6137e3565b601255565b6135d861357d6106a0565b3381528560208201528760408201526135a28960608301906001600160401b03169052565b8260808201525f60a08201525f60c08201524260e08201525f6101008201526135d38b5f52601360205260405f2090565b613809565b6135e181613ef0565b503390614924565b506136056135f688612939565b915f52601460205260405f2090565b556040519384934292856138ee565b0390a29061069e613e71565b6136389060203d602011610ea057610e93818361066e565b61355a565b5060648c1115613420565b50606481111561340e565b1561365a57565b60405162461bcd60e51b815260206004820152601160248201527024b73b30b634b2103932b837a7bbb732b960791b6044820152606490fd5b1561369a57565b60405162461bcd60e51b815260206004820152601060248201526f496e76616c6964207265706f4e616d6560801b6044820152606490fd5b156136d957565b60405162461bcd60e51b81526020600482015260166024820152752130b21031b430b9399034b7103932b837a7bbb732b960511b6044820152606490fd5b1561371e57565b60405162461bcd60e51b815260206004820152601560248201527442616420636861727320696e207265706f4e616d6560581b6044820152606490fd5b1561376257565b60405162461bcd60e51b815260206004820152600d60248201526c496e76616c696420697373756560981b6044820152606490fd5b1561379e57565b60405162461bcd60e51b815260206004820152601c60248201527f426f756e74792065786973747320666f722074686973206973737565000000006044820152606490fd5b5f1981146106145760010190565b9060058110156121085760ff80198354169116179055565b815181546001600160a01b0319166001600160a01b03909116178155906007906101009061383e602082015160018601612f5c565b61384f604082015160028601612f5c565b61388561386660608301516001600160401b031690565b60038601906001600160401b03166001600160401b0319825416179055565b608081015160048501556138dd600585016138ad60a08401516138a7816120fe565b826137f1565b60c08301516001600160a01b03168154610100600160a81b03191660089190911b610100600160a81b0316179055565b60e081015160068501550151910155565b906139216060936139136001600160401b039398979698608086526080860190610acd565b908482036020860152610acd565b951660408201520152565b1561393357565b60405162461bcd60e51b815260206004820152600b60248201526a2737ba1031b932b0ba37b960a91b6044820152606490fd5b1561396d57565b60405162461bcd60e51b81526020600482015260096024820152684e6f7420737475636b60b81b6044820152606490fd5b156139a557565b60405162461bcd60e51b81526020600482015260156024820152744e6576657220656e74657265642070656e64696e6760581b6044820152606490fd5b156139e957565b60405162461bcd60e51b8152602060048201526013602482015272151a5b595bdd5d081b9bdd081c995858da1959606a1b6044820152606490fd5b5f9291815491613a33836108d3565b9260018116908115613a7b5750600114613a4c57505050565b90919293505f5260205f205f905b838210613a675750500190565b600181602092548486015201910190613a5a565b60ff191683525050811515909102019150565b15613a9557565b60405162461bcd60e51b815260206004820152600d60248201526c10d85b9b9bdd0818d85b98d95b609a1b6044820152606490fd5b15613ad157565b60405162461bcd60e51b815260206004820152600a6024820152694e6f742061637469766560b01b6044820152606490fd5b15613b0a57565b60405162461bcd60e51b815260206004820152601660248201527526bab9ba103132903932b3b4b9ba32b932b2103232bb60511b6044820152606490fd5b15613b4f57565b60405162461bcd60e51b815260206004820152600e60248201526d21b630b4b69031b7b7b63237bbb760911b6044820152606490fd5b15613b8c57565b60405162461bcd60e51b81526020600482015260156024820152742137bab73a3c9031b630b4b69031b7b7b63237bbb760591b6044820152606490fd5b15613bd057565b60405162461bcd60e51b815260206004820152600e60248201526d14dbdd5c98d9481b9bdd081cd95d60921b6044820152606490fd5b6001604091835181550191613c3e6001600160401b0360208301511684906001600160401b03166001600160401b0319825416179055565b01518154600160401b600160e01b03191660409190911b600160401b600160e01b0316179055565b15613c6d57565b60405162461bcd60e51b815260206004820152600c60248201526b139bdd081d995c9a599a595960a21b6044820152606490fd5b15613ca857565b60405162461bcd60e51b815260206004820152600c60248201526b2737903232bb32b637b832b960a11b6044820152606490fd5b9190600754613cea816108d3565b15613d4957509182613d00613d099394836131cb565b61119442600d55565b602081519101207fb535cf007f0a63a526e02347e59f21e0dd977daf5e1e11a27c43ba9023ce961b6132fa613d3d42612929565b60405191829182612c3e565b6001600160401b03821161060f5781613d64613d69926108d3565b612a3c565b5f601f8211600114613db6578190613d9693945f926131565750508160011b915f199060031b1c19161790565b6007555b5f516020615b875f395f51905f526040518061336c4282612c3e565b60075f52601f198216935f516020615b675f395f51905f52915f5b868110613e0b5750836001959610613df2575b505050811b01600755613d9a565b01355f19600384901b60f8161c191690555f8080613de4565b90926020600181928686013581550194019101613dd1565b5f5460081c6001600160a01b0316330361158357565b60025f516020615be75f395f51905f525414613e625760025f516020615be75f395f51905f5255565b633ee5aeb560e01b5f5260045ffd5b60015f516020615be75f395f51905f5255565b5f516020615b475f395f51905f5254604051639cd07acb60e01b81525f60048201819052600560248301529091602091839160449183916001600160a01b03165af1908115610ea7575f91613ed7575090565b61072b915060203d602011610ea057610e93818361066e565b8015613f01575b61072b308261517c565b50613f0a613e84565b613ef7565b908115613f80575b5f516020615bc75f395f51905f52546001600160a01b0316803b1561047e57604051630f8e573b60e21b8152600481018490526001600160a01b039290921660248301525f908290604490829084905af18015610ea757613f76575090565b5f61072b9161066e565b9050613f8a613e84565b90613f17565b60ff5f5416613f9b57565b63d93c066560e01b5f5260045ffd5b805160011015612ef95760210190565b908151811015612ef9570160200190565b60ff60209116019060ff821161061457565b5f5b815181101561407d5780613ff560019284613fba565b516001600160f81b031916604160f81b111580614059575b614018575b01613fdf565b61404761403761403261402b8487613fba565b5160f81c90565b613fcb565b60f81b6001600160f81b03191690565b5f1a6140538285613fba565b53614012565b506140648184613fba565b51602d60f91b6001600160f81b0319909116111561400d565b5090565b6040519061409060408361066e565b601082526f181899199a1a9b1b9c1cb0b131b232b360811b6020830152565b604051606091906140c0838261066e565b602a815291601f1901366020840137565b906140db826106bf565b6140e8604051918261066e565b82815280926140f9601f19916106bf565b0190602036910137565b61410b614081565b9060601b6bffffffffffffffffffffffff19166141266140af565b91603061413284612eec565b53607861413e84613faa565b535f5b6014811061414f5750505090565b6001906141ac614178600f86841a61418683614172600484901c85165b60ff1690565b89613fba565b516001600160f81b03191690565b6141a461419a61419588612aac565b612964565b915f1a918b613fba565b531685613fba565b6141ca6141c06141bb84612aac565b612972565b915f1a9187613fba565b5301614141565b8151156141de5760a00152565b63fe936cb760e01b5f5260045ffd5b919061426460809261425e614200615222565b9361423860ff6040926142318451614218868261066e565b60068152651cdb1bdd125160d21b602082015289615252565b16866155e4565b6142448151918261066e565b60078152663b32b939b4b7b760c91b602082015284615252565b826155e4565b600260208401525151910152565b6040519061428160408361066e565b600c82526b31b7b232a637b1b0ba34b7b760a11b6020830152565b604051906142ab60408361066e565b60088252676c616e677561676560c01b6020830152565b6001111561210857565b604051906142db60408361066e565b6006825265736f7572636560d01b6020830152565b604051906142ff60408361066e565b60048252636172677360e01b6020830152565b6040519061432160408361066e565b600f82526e39b2b1b932ba39a637b1b0ba34b7b760891b6020830152565b6040519061434e60408361066e565b60078252667365637265747360c81b6020830152565b6040519061437360408361066e565b600982526862797465734172677360b81b6020830152565b614393615222565b906143a561439f614272565b83615252565b6143c281516143b381612f52565b6143bc81612f52565b83615339565b6143cd61439f61429c565b6143e760408201516143de816142c2565b6143bc816142c2565b6143f261439f6142cc565b614400606082015183615252565b60a081018051516144fc575b50608081019081515161447f575b60c091500180515161442d575b50515190565b9161443961439f614364565b61444282615366565b5f5b8351805182101561446c579061446661445f82600194612f3e565b51856153c7565b01614444565b50509150614479816153a5565b5f614427565b60208101805161448e81612f52565b61449781612f52565b156144ed5760c0926144d06144e8926144b76144b1614312565b88615252565b516144c181612f52565b6144ca81612f52565b86615339565b6144e16144db61433f565b86615252565b51846153c7565b61441a565b63a80d31f760e01b5f5260045ffd5b9261450e6145086142f0565b84615252565b61451783615366565b5f5b84518051821015614541579061453b61453482600194612f3e565b5186615252565b01614519565b5050925061454e826153a5565b5f61440c565b92906020926001600160401b039263ffffffff614593604051978896879663230e93b160e11b885216600487015260a0602487015260a4860190610acd565b6001604486015292166064840152608483015203815f7f00000000000000000000000000000000000000000000000000000000000000006001600160a01b03165af1908115610ea7575f9161460c575b50807f1131472297a800fee664d1d89cfa8f7676ff07189ecc53f80bbb5f4969099db85f80a290565b614625915060203d602011610ea057610e93818361066e565b5f6145e3565b4660010361463857600190565b4662aa36a7036146485761271190565b617a694614614655575f90565b5f1990565b6146659136916106da565b5f5b81518110156147545761468d6146806141788385613fba565b6001600160f81b03191690565b600360fc1b8110159081614745575b8115614721575b81156146fd575b81156146ef575b81156146e1575b81156146d3575b50156146cd57600101614667565b50505f90565b601760f91b1490505f6146bf565b605f60f81b811491506146b8565b602d60f81b811491506146b1565b9050606160f81b81101580614713575b906146aa565b50603d60f91b81111561470d565b9050604160f81b81101580614737575b906146a3565b50602d60f91b811115614731565b603960f81b811115915061469c565b5050600190565b8015610614575f190190565b6001600160401b0316603001906001600160401b03821161061457565b906001600160401b03821615614836575f825b6001600160401b03811661480f57506147af816140d1565b905b6001600160401b0384166147c457509150565b6147d06148099161475b565b936147ec61403761416c600a6001600160401b03851606614767565b5f1a6147f88685613fba565b536001600160401b03600a91160490565b926147b1565b929061481d61482e916137e3565b936001600160401b03600a91160490565b929092614797565b905060405161484660408261066e565b60018152600360fc1b602082015290565b81519091901561486a5761072b9161549c565b50801561491b575f516020615bc75f395f51905f52546040516382027b6d60e01b81526004810183905233602482015290602090829060449082906001600160a01b03165afa8015610ea7575f906148de575b1590505b6148c85790565b630276b5d960e01b5f526004523360245260445ffd5b506020813d602011614913575b816148f86020938361066e565b8101031261047e5751801515810361047e576148c1906148bd565b3d91506148eb565b5061072b613e84565b908115614936575b61072b908261517c565b905061072b614943613e84565b91905061492c565b80156149b0575b5f516020615b475f395f51905f5254604051635a53accb60e01b815260048101929092526127106024830152600160f81b6044830152602090829060649082905f906001600160a01b03165af1908115610ea7575f91613ed7575090565b505f60206149bc613e84565b915050614952565b6020905f928115614a38575b5f516020615b475f395f51905f5254604051630afe14ad60e31b81526004808201949094526001600160401b0390921684830190930192909252600160f81b604482015292839160649183916001600160a01b03165af1908115610ea7575f91613ed7575090565b9050614a42613e84565b906149d0565b5f602091614ab5938115614ad8575b8015614aca575b5f516020615b475f395f51905f52546040516303056db360e31b8152600481019390935260248301919091526001600160f81b031983166044830152909384926001600160a01b0390921691839182906064820190565b03925af1908115610ea7575f91613ed7575090565b50614ad3613e84565b614a5e565b9050614ae2613e84565b90614a57565b5f602091614ab5938115614b63575b8015614b55575b5f516020615b475f395f51905f525460405163022f65e760e31b8152600481019390935260248301919091526001600160f81b031983166044830152909384926001600160a01b0390921691839182906064820190565b50614b5e613e84565b614afe565b9050614b6d613e84565b90614af7565b90604051606081018181106001600160401b0382111761060f576040526040600182948054845201546001600160401b038116602084015260018060a01b0390821c16910152565b60609060208152601360208201527215995c9a599a58d85d1a5bdb8819985a5b1959606a1b60408201520190565b9190614c05614c00845f52601c60205260405f2090565b614b73565b91614c26614c1b855f52601c60205260405f2090565b60015f918281550155565b6040830180519094906001600160a01b031615614e7457614c5084515f52601360205260405f2090565b9260058401926001614c63855460ff1690565b614c6c816120fe565b03614e24575115801590614e1b575b614de857614c93614c8e614ca092613fdd565b611b4d565b546001600160a01b031690565b6001600160a01b038116959093908615614d915751614ccf906001600160a01b03165b6001600160a01b031690565b8603614d355750508054610100600160a81b0360089390931b929092166001600160a81b0319909216919091176002179055516040514281527f962f40a88d80b64dcac7b22c651abc60c383bfe35297a732d5fa093a486d1fc99080602081015b0390a3565b825460ff191690925593505f915060070155515f516020615ae75f395f51905f5260405180614d308160609060208152601860208201527721b630b4b6b2b91034b9903737ba1028291030baba3437b960411b60408201520190565b50825460ff191690925593505f915060070155515f516020615ae75f395f51905f5260405180614d308160609060208152601260208201527111195d881b9bdd081c9959da5cdd195c995960721b60408201520190565b5093505f91614dfd60079260ff198154169055565b0155515f516020615ae75f395f51905f5260405180614d3081614bbb565b50805115614c7b565b505093505050515f516020615ae75f395f51905f5260405180614d3081606090602081526018602082015277426f756e7479206e6f206c6f6e6765722070656e64696e6760401b60408201520190565b5050505050565b90604051614e8881610653565b82546001600160a01b03168152918290602090614ea790600101610a2f565b910152565b600161069e915f815501612bc8565b60405190614eca60408361066e565b60028252614f4b60f01b6020830152565b90614ef6614ef1835f52601d60205260405f2090565b614e7b565b92614f11614f0c845f52601d60205260405f2090565b614eac565b83516001600160a01b03168015614e74576001600160a01b03165f908152601760205260409020614f41906107e7565b5115801590615173575b6151365780516020820120614f5e614ebb565b60208151910120036150f55750508051614f9990612426906001600160a01b03165b6001600160a01b03165f90815260166020526040902090565b80516150d3575b507f3aba431bb4cb7a523a1bbc4a8c56eef5c43f1911fdd33c86f0cb5806eb265bd66132fa6150756020840193614fda614c938651611b4d565b6001600160a01b03811680151590816150b4575b5061508f575b50805161502d906001600160a01b031661500e8751611b4d565b80546001600160a01b0319166001600160a01b03909216919091179055565b8451815161504d9190615048906001600160a01b0316614f80565b612f5c565b80516001600160a01b03165f908152601860205260409020429055516001600160a01b031690565b92516040516001600160a01b039094169391829182610af1565b6001600160a01b03165f9081526016602052604090206150ae90612bc8565b5f614ff4565b83519091506150cb906001600160a01b0316614cc3565b14155f614fee565b6150df6150ef91611b4d565b80546001600160a01b0319169055565b5f614fa0565b915160405191926001600160a01b03909116917f61124f035e13c0339d6f581d7ea76efd308ddd94cfc9b64348fe8a9e4cd67c95918190614d309082610af1565b5090516001600160a01b03908116167f61124f035e13c0339d6f581d7ea76efd308ddd94cfc9b64348fe8a9e4cd67c9560405180614d3081614bbb565b50805115614f4b565b5f516020615bc75f395f51905f52546001600160a01b031691823b1561047e57604051635ca4b5b160e11b815260048101929092526001600160a01b03166024820152905f908290604490829084905af18015610ea7576151da5750565b5f61069e9161066e565b8151156151fa575f808252604082015260600152565b6322ce3edd60e01b5f5260045ffd5b6040519061521682610653565b5f602083606081520152565b60405161522e81610653565b5f615237615209565b80835261524d6101006020850192848452615593565b505290565b81516152a19291906001600160401b0316601781116152a457815161528c916152869061527f606061416c565b1760ff1690565b906157c0565b505b5190615298615209565b50805191615a2a565b50565b60ff81116152d15781516152cb91906152c390601860605b17906157c0565b5082516159aa565b5061528e565b61ffff81116152f65781516152cb91906152ee90601960606152bc565b508251615931565b63ffffffff811161531d5781516152cb919061531590601a60606152bc565b5082516158b8565b81516152cb919061533190601b60606152bc565b50825161583a565b9061069e916153488151615750565b506040519160208301526020825261536160408361066e565b6153c7565b602090615375609f82516157c0565b5001805190600182018092116106145752565b601f1981019190821161061457565b5f1981019190821161061457565b6020906153b460ff82516157c0565b500180515f198101919082116106145752565b81516152a19291906001600160401b0316601781116153f457815161528c916152869061527f604061416c565b60ff81116154105781516152cb91906152c390601860406152bc565b61ffff811161542d5781516152cb91906152ee90601960406152bc565b63ffffffff811161544c5781516152cb919061531590601a60406152bc565b81516152cb919061533190601b60406152bc565b9081526001600160a01b0390911660208201526080604082018190529093929161548c91850190610acd565b9260548210156121085760600152565b60056020916154ea94935f6154ca614cc3614cc35f516020615b475f395f51905f525460018060a01b031690565b926040519788958694859363045fc19560e11b8552339060048601615460565b03925af1918215610ea7575f92615572575b505f516020615bc75f395f51905f5254829061552290614cc3906001600160a01b031681565b803b1561047e57604051630f8e573b60e21b815260048101929092523360248301525f908290604490829084905af18015610ea75761555e5750565b8061556c5f61069e9361066e565b80610474565b61558c91925060203d602011610ea057610e93818361066e565b905f6154fc565b9061559c615209565b50601f8116806155ca575b50806020830152604051908183525f8252810160200190811061047e5760405290565b60200360208111610614578101809111610614575f6155a7565b906001600160401b0381166017811161560b575090516152a1916152869061527f5f61416c565b905060ff811161562f5781516152a192906156289060185f6152bc565b50516159aa565b61ffff81116156525781516152a1929061564b9060195f6152bc565b5051615931565b63ffffffff81116156775781516152a1929061567090601a5f6152bc565b50516158b8565b81516152a1929061568a90601b5f6152bc565b505161583a565b9061569a615209565b5080516156a5615209565b506156b38251821115615a23565b825151916156c1828461298e565b9060208501518211615739575b602091855183815196820101958211615731575b505001905b602081101561570b575f19906020036101000a019081199051169082511617905290565b909161572661572061572c9285518152612980565b93612980565b91615388565b6156e7565b525f806156e2565b61574b61574583612aac565b86615acf565b6156ce565b615758615209565b508051516001810190818111610614576020830151811015615791575b60c26020845192830101538051821161578d57505090565b5290565b8160011b82810460021483151715610614576157ba906157b385519186615593565b5084615691565b50615775565b906157c9615209565b5081515160018101918282116106145760208401518210156157fc575b6020845192830101538051821161578d57505090565b8260011b83810460021484151715610614576158259061581e86519187615593565b5085615691565b506157e6565b601f8111610614576101000a90565b90615843615209565b508151518060080191826008116106145760208401518311615890575b61587261586d600861582b565b615397565b90600885519384010191198251161790528051821161578d57505090565b8260011b83810460021484151715610614576158b29061581e86519187615593565b50615860565b906158c1615209565b508151518060040191826004116106145760208401518311615909575b6158eb61586d600461582b565b90600485519384010191198251161790528051821161578d57505090565b8260011b838104600214841517156106145761592b9061581e86519187615593565b506158de565b9061593a615209565b508151518060020191826002116106145760208401518311615982575b61596461586d600261582b565b90600285519384010191198251161790528051821161578d57505090565b8260011b83810460021484151715610614576159a49061581e86519187615593565b50615957565b906159b3615209565b5081515180600101918260011161061457602084015183116159fb575b6159dd61586d600161582b565b90600185519384010191198251161790528051821161578d57505090565b8260011b8381046002148415171561061457615a1d9061581e86519187615593565b506159d0565b1561047e57565b91615a33615209565b50615a418251821115615a23565b602083515192615a51838561298e565b828601518111615ab8575b855183815196820101958211615ab0575b505001905b6020811015615a96575f19906020036101000a019081199051169082511617905290565b9091615726615720615aab9285518152612980565b615a72565b525f80615a6d565b615aca615ac482612aac565b87615acf565b615a5c565b906152a191615ae081519282615593565b5061569156feb83b8ea8a1f7f95f875ac803c195014151ec50bcb4d12a6543f2f72010f43fcedf6966c971051c3d54ec59162606531493a51404a002842f56009d7e5cf4a8c7c65a7bb8d6351c1cf70c95a316cc6a92839c986682d98bc35f958f4883f9d2a89e7b61f58c47dc699ac88507c4f5bb9f121c03808c5676a8078fe583e4649701a66cc928b5edb82af9bd49922954155ab7b0942694bea4ce44661d9a8736c68810cb9add32e01b62b489374cdf443ef9e9efa95721256bda1f48a4c7feb5e9adf652222313e28459528d920b65115c16c04f3efc82aaedc97be59f3f377c0d3f9e7b61f58c47dc699ac88507c4f5bb9f121c03808c5676a8078fe583e46497009b779b17422d0df92223018b32b4d1fa46e071723d6817e2486d003becc55f00a164736f6c634300081b000a9e7b61f58c47dc699ac88507c4f5bb9f121c03808c5676a8078fe583e46497019e7b61f58c47dc699ac88507c4f5bb9f121c03808c5676a8078fe583e4649700",
  "devdoc": {
    "details": "Owner SHOULD be a multisig (e.g. Gnosis Safe) for production deployments.",
    "errors": {
      "EnforcedPause()": [
        {
          "details": "The operation failed because the contract is paused."
        }
      ],
      "ExpectedPause()": [
        {
          "details": "The operation failed because the contract is not paused."
        }
      ],
      "OwnableInvalidOwner(address)": [
        {
          "details": "The owner is not a valid owner account. (eg. `address(0)`)"
        }
      ],
      "OwnableUnauthorizedAccount(address)": [
        {
          "details": "The caller account is not authorized to perform an operation."
        }
      ],
      "ReentrancyGuardReentrantCall()": [
        {
          "details": "Unauthorized reentrant call."
        }
      ]
    },
    "events": {
      "Paused(address)": {
        "details": "Emitted when the pause is triggered by `account`."
      },
      "Unpaused(address)": {
        "details": "Emitted when the pause is lifted by `account`."
      }
    },
    "kind": "dev",
    "methods": {
      "acceptOwnership()": {
        "details": "The new owner accepts the ownership transfer."
      },
      "handleOracleFulfillment(bytes32,bytes,bytes)": {
        "details": "Either response or error parameter will be set, but never both.",
        "params": {
          "err": "Aggregated error either from the request's source code or from the execution pipeline.",
          "requestId": "The requestId returned by FunctionsClient.sendRequest().",
          "response": "Aggregated response from the request's source code."
        }
      },
      "owner()": {
        "details": "Returns the address of the current owner."
      },
      "paused()": {
        "details": "Returns true if the contract is paused, and false otherwise."
      },
      "pendingOwner()": {
        "details": "Returns the address of the pending owner."
      },
      "registerDev(string,string)": {
        "params": {
          "gistId": "The ID of your public gist containing your ETH address",
          "githubUsername": "Your GitHub username"
        }
      },
      "renounceOwnership()": {
        "details": "Leaves the contract without owner. It will not be possible to call `onlyOwner` functions. Can only be called by the current owner. NOTE: Renouncing ownership will leave the contract without an owner, thereby disabling any functionality that is only available to the owner."
      },
      "transferOwnership(address)": {
        "details": "Starts the ownership transfer of the contract to a new account. Replaces the pending transfer if there is one. Can only be called by the current owner. Setting `newOwner` to the zero address is allowed; this can be used to cancel an initiated ownership transfer."
      }
    },
    "stateVariables": {
      "claimVerificationSource": {
        "details": "JS source for bounty claim verification"
      },
      "devGithub": {
        "details": "ETH address → lowercase GitHub username"
      },
      "devRegisteredAt": {
        "details": "Track last registration time per address (cooldown for re-registration)"
      },
      "devRegistry": {
        "details": "Lowercase GitHub username → ETH address"
      },
      "devVerificationPending": {
        "details": "Track pending verifications"
      },
      "gistVerificationSource": {
        "details": "JS source for GitHub gist identity verification"
      },
      "issueBountyId": {
        "details": "Prevent duplicate bounties per issue: keccak256(repoOwner/repoName#issue) → bountyId+1"
      },
      "lastBountyClaimAttempt": {
        "details": "Track last claim attempt per bounty (prevent spam on same bounty)"
      },
      "lastClaimAttempt": {
        "details": "Track last claim timestamp per address (rate-limit LINK drain)"
      },
      "secretsSlotId": {
        "details": "DON-hosted secrets"
      }
    },
    "title": "GhostBounty — Decentralized GitHub Bounty Protocol with Confidential Payments",
    "version": 1
  },
  "userdoc": {
    "errors": {
      "SenderNotAllowedToUseHandle(bytes32,address)": [
        {
          "notice": "Returned if the sender is not allowed to use the handle."
        }
      ],
      "ZamaProtocolUnsupported()": [
        {
          "notice": "Returned if the Zama protocol is not supported on the current chain"
        }
      ]
    },
    "kind": "user",
    "methods": {
      "cancelBounty(uint256)": {
        "notice": "Cancel a bounty and get the escrow back. Only works for Active bounties.         Cannot cancel while Chainlink is verifying a claim (Pending/Verified)."
      },
      "claimBounty(uint256,uint64)": {
        "notice": "Initiate a bounty claim. Sends a Chainlink Functions request to verify         the PR is merged and references the bounty's issue."
      },
      "createBounty(string,string,uint64,bytes32,bytes)": {
        "notice": "Create a bounty for a GitHub issue with an encrypted reward"
      },
      "emergencyCancelBounty(uint256)": {
        "notice": "Emergency cancel for bounties stuck in Pending/Verified after timeout.         Prevents permanent fund lock if Chainlink callback never arrives."
      },
      "executeClaim(uint256)": {
        "notice": "Execute the FHE payment for a verified bounty claim.         Anyone can call this after Chainlink verification succeeds."
      },
      "getBountyAmount(uint256)": {
        "notice": "Get encrypted bounty amount (only creator or claimed developer)"
      },
      "handleOracleFulfillment(bytes32,bytes,bytes)": {
        "notice": "Chainlink Functions response handler called by the Functions Router during fullilment from the designated transmitter node in an OCR round."
      },
      "proposeClaimSource(string)": {
        "notice": "Propose new claim verification JS source (48h timelock)"
      },
      "proposeGistSource(string)": {
        "notice": "Propose new gist verification JS source (48h timelock)"
      },
      "registerDev(string,string)": {
        "notice": "Register your GitHub username with proof via gist.         Create a public gist containing your ETH address, then call this."
      },
      "secretsValid()": {
        "notice": "Check if secrets are still valid"
      }
    },
    "notice": "Production-hardened version with:   - Chainlink-verified GitHub identity (gist verification)   - Bounty status machine (Active → Pending → Claimed/Cancelled)   - 48h timelock on JS source changes   - Input sanitization, case-insensitive usernames, string limits   - FHE-encrypted bounty amounts (nobody sees payment amounts)",
    "version": 1
  },
  "storageLayout": {
    "storage": [
      {
        "astId": 45119,
        "contract": "contracts/bounty/GhostBounty.sol:GhostBounty",
        "label": "_paused",
        "offset": 0,
        "slot": "0",
        "type": "t_bool"
      },
      {
        "astId": 44232,
        "contract": "contracts/bounty/GhostBounty.sol:GhostBounty",
        "label": "_owner",
        "offset": 1,
        "slot": "0",
        "type": "t_address"
      },
      {
        "astId": 44380,
        "contract": "contracts/bounty/GhostBounty.sol:GhostBounty",
        "label": "_pendingOwner",
        "offset": 0,
        "slot": "1",
        "type": "t_address"
      },
      {
        "astId": 46642,
        "contract": "contracts/bounty/GhostBounty.sol:GhostBounty",
        "label": "donId",
        "offset": 0,
        "slot": "2",
        "type": "t_bytes32"
      },
      {
        "astId": 46644,
        "contract": "contracts/bounty/GhostBounty.sol:GhostBounty",
        "label": "subscriptionId",
        "offset": 0,
        "slot": "3",
        "type": "t_uint64"
      },
      {
        "astId": 46647,
        "contract": "contracts/bounty/GhostBounty.sol:GhostBounty",
        "label": "callbackGasLimit",
        "offset": 8,
        "slot": "3",
        "type": "t_uint32"
      },
      {
        "astId": 46649,
        "contract": "contracts/bounty/GhostBounty.sol:GhostBounty",
        "label": "feeBps",
        "offset": 0,
        "slot": "4",
        "type": "t_uint256"
      },
      {
        "astId": 46651,
        "contract": "contracts/bounty/GhostBounty.sol:GhostBounty",
        "label": "treasury",
        "offset": 0,
        "slot": "5",
        "type": "t_address"
      },
      {
        "astId": 46654,
        "contract": "contracts/bounty/GhostBounty.sol:GhostBounty",
        "label": "claimVerificationSource",
        "offset": 0,
        "slot": "6",
        "type": "t_string_storage"
      },
      {
        "astId": 46657,
        "contract": "contracts/bounty/GhostBounty.sol:GhostBounty",
        "label": "gistVerificationSource",
        "offset": 0,
        "slot": "7",
        "type": "t_string_storage"
      },
      {
        "astId": 46660,
        "contract": "contracts/bounty/GhostBounty.sol:GhostBounty",
        "label": "secretsSlotId",
        "offset": 0,
        "slot": "8",
        "type": "t_uint8"
      },
      {
        "astId": 46662,
        "contract": "contracts/bounty/GhostBounty.sol:GhostBounty",
        "label": "secretsVersion",
        "offset": 1,
        "slot": "8",
        "type": "t_uint64"
      },
      {
        "astId": 46664,
        "contract": "contracts/bounty/GhostBounty.sol:GhostBounty",
        "label": "secretsExpiration",
        "offset": 0,
        "slot": "9",
        "type": "t_uint256"
      },
      {
        "astId": 46666,
        "contract": "contracts/bounty/GhostBounty.sol:GhostBounty",
        "label": "pendingClaimSource",
        "offset": 0,
        "slot": "10",
        "type": "t_string_storage"
      },
      {
        "astId": 46668,
        "contract": "contracts/bounty/GhostBounty.sol:GhostBounty",
        "label": "pendingClaimSourceTimestamp",
        "offset": 0,
        "slot": "11",
        "type": "t_uint256"
      },
      {
        "astId": 46670,
        "contract": "contracts/bounty/GhostBounty.sol:GhostBounty",
        "label": "pendingGistSource",
        "offset": 0,
        "slot": "12",
        "type": "t_string_storage"
      },
      {
        "astId": 46672,
        "contract": "contracts/bounty/GhostBounty.sol:GhostBounty",
        "label": "pendingGistSourceTimestamp",
        "offset": 0,
        "slot": "13",
        "type": "t_uint256"
      },
      {
        "astId": 46674,
        "contract": "contracts/bounty/GhostBounty.sol:GhostBounty",
        "label": "pendingFeeBps",
        "offset": 0,
        "slot": "14",
        "type": "t_uint256"
      },
      {
        "astId": 46676,
        "contract": "contracts/bounty/GhostBounty.sol:GhostBounty",
        "label": "pendingFeeTimestamp",
        "offset": 0,
        "slot": "15",
        "type": "t_uint256"
      },
      {
        "astId": 46678,
        "contract": "contracts/bounty/GhostBounty.sol:GhostBounty",
        "label": "pendingTreasury",
        "offset": 0,
        "slot": "16",
        "type": "t_address"
      },
      {
        "astId": 46680,
        "contract": "contracts/bounty/GhostBounty.sol:GhostBounty",
        "label": "pendingTreasuryTimestamp",
        "offset": 0,
        "slot": "17",
        "type": "t_uint256"
      },
      {
        "astId": 46709,
        "contract": "contracts/bounty/GhostBounty.sol:GhostBounty",
        "label": "bountyCount",
        "offset": 0,
        "slot": "18",
        "type": "t_uint256"
      },
      {
        "astId": 46714,
        "contract": "contracts/bounty/GhostBounty.sol:GhostBounty",
        "label": "_bounties",
        "offset": 0,
        "slot": "19",
        "type": "t_mapping(t_uint256,t_struct(Bounty)46707_storage)"
      },
      {
        "astId": 46719,
        "contract": "contracts/bounty/GhostBounty.sol:GhostBounty",
        "label": "issueBountyId",
        "offset": 0,
        "slot": "20",
        "type": "t_mapping(t_bytes32,t_uint256)"
      },
      {
        "astId": 46724,
        "contract": "contracts/bounty/GhostBounty.sol:GhostBounty",
        "label": "devRegistry",
        "offset": 0,
        "slot": "21",
        "type": "t_mapping(t_string_memory_ptr,t_address)"
      },
      {
        "astId": 46729,
        "contract": "contracts/bounty/GhostBounty.sol:GhostBounty",
        "label": "devGithub",
        "offset": 0,
        "slot": "22",
        "type": "t_mapping(t_address,t_string_storage)"
      },
      {
        "astId": 46734,
        "contract": "contracts/bounty/GhostBounty.sol:GhostBounty",
        "label": "devVerificationPending",
        "offset": 0,
        "slot": "23",
        "type": "t_mapping(t_address,t_bool)"
      },
      {
        "astId": 46739,
        "contract": "contracts/bounty/GhostBounty.sol:GhostBounty",
        "label": "devRegisteredAt",
        "offset": 0,
        "slot": "24",
        "type": "t_mapping(t_address,t_uint256)"
      },
      {
        "astId": 46744,
        "contract": "contracts/bounty/GhostBounty.sol:GhostBounty",
        "label": "lastClaimAttempt",
        "offset": 0,
        "slot": "25",
        "type": "t_mapping(t_address,t_uint256)"
      },
      {
        "astId": 46752,
        "contract": "contracts/bounty/GhostBounty.sol:GhostBounty",
        "label": "lastBountyClaimAttempt",
        "offset": 0,
        "slot": "26",
        "type": "t_mapping(t_uint256,t_uint256)"
      },
      {
        "astId": 46773,
        "contract": "contracts/bounty/GhostBounty.sol:GhostBounty",
        "label": "_requestTypes",
        "offset": 0,
        "slot": "27",
        "type": "t_mapping(t_bytes32,t_enum(RequestType)46756)"
      },
      {
        "astId": 46778,
        "contract": "contracts/bounty/GhostBounty.sol:GhostBounty",
        "label": "_pendingClaims",
        "offset": 0,
        "slot": "28",
        "type": "t_mapping(t_bytes32,t_struct(PendingClaim)46763_storage)"
      },
      {
        "astId": 46783,
        "contract": "contracts/bounty/GhostBounty.sol:GhostBounty",
        "label": "_pendingRegistrations",
        "offset": 0,
        "slot": "29",
        "type": "t_mapping(t_bytes32,t_struct(PendingRegistration)46768_storage)"
      },
      {
        "astId": 46786,
        "contract": "contracts/bounty/GhostBounty.sol:GhostBounty",
        "label": "_accruedFees",
        "offset": 0,
        "slot": "30",
        "type": "t_userDefinedValueType(euint64)54579"
      }
    ],
    "types": {
      "t_address": {
        "encoding": "inplace",
        "label": "address",
        "numberOfBytes": "20"
      },
      "t_bool": {
        "encoding": "inplace",
        "label": "bool",
        "numberOfBytes": "1"
      },
      "t_bytes32": {
        "encoding": "inplace",
        "label": "bytes32",
        "numberOfBytes": "32"
      },
      "t_enum(BountyStatus)46686": {
        "encoding": "inplace",
        "label": "enum GhostBounty.BountyStatus",
        "numberOfBytes": "1"
      },
      "t_enum(RequestType)46756": {
        "encoding": "inplace",
        "label": "enum GhostBounty.RequestType",
        "numberOfBytes": "1"
      },
      "t_mapping(t_address,t_bool)": {
        "encoding": "mapping",
        "key": "t_address",
        "label": "mapping(address => bool)",
        "numberOfBytes": "32",
        "value": "t_bool"
      },
      "t_mapping(t_address,t_string_storage)": {
        "encoding": "mapping",
        "key": "t_address",
        "label": "mapping(address => string)",
        "numberOfBytes": "32",
        "value": "t_string_storage"
      },
      "t_mapping(t_address,t_uint256)": {
        "encoding": "mapping",
        "key": "t_address",
        "label": "mapping(address => uint256)",
        "numberOfBytes": "32",
        "value": "t_uint256"
      },
      "t_mapping(t_bytes32,t_enum(RequestType)46756)": {
        "encoding": "mapping",
        "key": "t_bytes32",
        "label": "mapping(bytes32 => enum GhostBounty.RequestType)",
        "numberOfBytes": "32",
        "value": "t_enum(RequestType)46756"
      },
      "t_mapping(t_bytes32,t_struct(PendingClaim)46763_storage)": {
        "encoding": "mapping",
        "key": "t_bytes32",
        "label": "mapping(bytes32 => struct GhostBounty.PendingClaim)",
        "numberOfBytes": "32",
        "value": "t_struct(PendingClaim)46763_storage"
      },
      "t_mapping(t_bytes32,t_struct(PendingRegistration)46768_storage)": {
        "encoding": "mapping",
        "key": "t_bytes32",
        "label": "mapping(bytes32 => struct GhostBounty.PendingRegistration)",
        "numberOfBytes": "32",
        "value": "t_struct(PendingRegistration)46768_storage"
      },
      "t_mapping(t_bytes32,t_uint256)": {
        "encoding": "mapping",
        "key": "t_bytes32",
        "label": "mapping(bytes32 => uint256)",
        "numberOfBytes": "32",
        "value": "t_uint256"
      },
      "t_mapping(t_string_memory_ptr,t_address)": {
        "encoding": "mapping",
        "key": "t_string_memory_ptr",
        "label": "mapping(string => address)",
        "numberOfBytes": "32",
        "value": "t_address"
      },
      "t_mapping(t_uint256,t_struct(Bounty)46707_storage)": {
        "encoding": "mapping",
        "key": "t_uint256",
        "label": "mapping(uint256 => struct GhostBounty.Bounty)",
        "numberOfBytes": "32",
        "value": "t_struct(Bounty)46707_storage"
      },
      "t_mapping(t_uint256,t_uint256)": {
        "encoding": "mapping",
        "key": "t_uint256",
        "label": "mapping(uint256 => uint256)",
        "numberOfBytes": "32",
        "value": "t_uint256"
      },
      "t_string_memory_ptr": {
        "encoding": "bytes",
        "label": "string",
        "numberOfBytes": "32"
      },
      "t_string_storage": {
        "encoding": "bytes",
        "label": "string",
        "numberOfBytes": "32"
      },
      "t_struct(Bounty)46707_storage": {
        "encoding": "inplace",
        "label": "struct GhostBounty.Bounty",
        "members": [
          {
            "astId": 46688,
            "contract": "contracts/bounty/GhostBounty.sol:GhostBounty",
            "label": "creator",
            "offset": 0,
            "slot": "0",
            "type": "t_address"
          },
          {
            "astId": 46690,
            "contract": "contracts/bounty/GhostBounty.sol:GhostBounty",
            "label": "repoOwner",
            "offset": 0,
            "slot": "1",
            "type": "t_string_storage"
          },
          {
            "astId": 46692,
            "contract": "contracts/bounty/GhostBounty.sol:GhostBounty",
            "label": "repoName",
            "offset": 0,
            "slot": "2",
            "type": "t_string_storage"
          },
          {
            "astId": 46694,
            "contract": "contracts/bounty/GhostBounty.sol:GhostBounty",
            "label": "issueNumber",
            "offset": 0,
            "slot": "3",
            "type": "t_uint64"
          },
          {
            "astId": 46697,
            "contract": "contracts/bounty/GhostBounty.sol:GhostBounty",
            "label": "encryptedAmount",
            "offset": 0,
            "slot": "4",
            "type": "t_userDefinedValueType(euint64)54579"
          },
          {
            "astId": 46700,
            "contract": "contracts/bounty/GhostBounty.sol:GhostBounty",
            "label": "status",
            "offset": 0,
            "slot": "5",
            "type": "t_enum(BountyStatus)46686"
          },
          {
            "astId": 46702,
            "contract": "contracts/bounty/GhostBounty.sol:GhostBounty",
            "label": "claimedBy",
            "offset": 1,
            "slot": "5",
            "type": "t_address"
          },
          {
            "astId": 46704,
            "contract": "contracts/bounty/GhostBounty.sol:GhostBounty",
            "label": "createdAt",
            "offset": 0,
            "slot": "6",
            "type": "t_uint256"
          },
          {
            "astId": 46706,
            "contract": "contracts/bounty/GhostBounty.sol:GhostBounty",
            "label": "pendingSince",
            "offset": 0,
            "slot": "7",
            "type": "t_uint256"
          }
        ],
        "numberOfBytes": "256"
      },
      "t_struct(PendingClaim)46763_storage": {
        "encoding": "inplace",
        "label": "struct GhostBounty.PendingClaim",
        "members": [
          {
            "astId": 46758,
            "contract": "contracts/bounty/GhostBounty.sol:GhostBounty",
            "label": "bountyId",
            "offset": 0,
            "slot": "0",
            "type": "t_uint256"
          },
          {
            "astId": 46760,
            "contract": "contracts/bounty/GhostBounty.sol:GhostBounty",
            "label": "prNumber",
            "offset": 0,
            "slot": "1",
            "type": "t_uint64"
          },
          {
            "astId": 46762,
            "contract": "contracts/bounty/GhostBounty.sol:GhostBounty",
            "label": "claimer",
            "offset": 8,
            "slot": "1",
            "type": "t_address"
          }
        ],
        "numberOfBytes": "64"
      },
      "t_struct(PendingRegistration)46768_storage": {
        "encoding": "inplace",
        "label": "struct GhostBounty.PendingRegistration",
        "members": [
          {
            "astId": 46765,
            "contract": "contracts/bounty/GhostBounty.sol:GhostBounty",
            "label": "dev",
            "offset": 0,
            "slot": "0",
            "type": "t_address"
          },
          {
            "astId": 46767,
            "contract": "contracts/bounty/GhostBounty.sol:GhostBounty",
            "label": "githubUsername",
            "offset": 0,
            "slot": "1",
            "type": "t_string_storage"
          }
        ],
        "numberOfBytes": "64"
      },
      "t_uint256": {
        "encoding": "inplace",
        "label": "uint256",
        "numberOfBytes": "32"
      },
      "t_uint32": {
        "encoding": "inplace",
        "label": "uint32",
        "numberOfBytes": "4"
      },
      "t_uint64": {
        "encoding": "inplace",
        "label": "uint64",
        "numberOfBytes": "8"
      },
      "t_uint8": {
        "encoding": "inplace",
        "label": "uint8",
        "numberOfBytes": "1"
      },
      "t_userDefinedValueType(euint64)54579": {
        "encoding": "inplace",
        "label": "euint64",
        "numberOfBytes": "32"
      }
    }
  }
}